{
  "_format": "hh-sol-artifact-1",
  "contractName": "Platform",
  "sourceName": "contracts/Platform.sol",
  "abi": [
    {
      "inputs": [],
      "stateMutability": "nonpayable",
      "type": "constructor"
    },
    {
      "inputs": [
        {
          "internalType": "uint256",
          "name": "_id",
          "type": "uint256"
        },
        {
          "internalType": "uint256",
          "name": "_increasedPercentage",
          "type": "uint256"
        }
      ],
      "name": "changeMaxReturn",
      "outputs": [],
      "stateMutability": "payable",
      "type": "function"
    },
    {
      "inputs": [
        {
          "internalType": "uint256",
          "name": "_fee",
          "type": "uint256"
        }
      ],
      "name": "changePlatformFee",
      "outputs": [],
      "stateMutability": "nonpayable",
      "type": "function"
    },
    {
      "inputs": [
        {
          "internalType": "uint256",
          "name": "_id",
          "type": "uint256"
        },
        {
          "internalType": "enum Platform.PortfolioStatus",
          "name": "_state",
          "type": "uint8"
        }
      ],
      "name": "changeState",
      "outputs": [],
      "stateMutability": "nonpayable",
      "type": "function"
    },
    {
      "inputs": [
        {
          "internalType": "uint256",
          "name": "_id",
          "type": "uint256"
        },
        {
          "internalType": "uint256",
          "name": "_totalFunds",
          "type": "uint256"
        }
      ],
      "name": "changeTotalFunds",
      "outputs": [],
      "stateMutability": "nonpayable",
      "type": "function"
    },
    {
      "inputs": [
        {
          "internalType": "uint256",
          "name": "_id",
          "type": "uint256"
        }
      ],
      "name": "closePortfolio",
      "outputs": [],
      "stateMutability": "nonpayable",
      "type": "function"
    },
    {
      "inputs": [
        {
          "internalType": "string",
          "name": "_name",
          "type": "string"
        },
        {
          "internalType": "uint256",
          "name": "_minAmount",
          "type": "uint256"
        },
        {
          "internalType": "uint256",
          "name": "_totalFunds",
          "type": "uint256"
        },
        {
          "internalType": "uint256",
          "name": "_maxReturn",
          "type": "uint256"
        },
        {
          "internalType": "uint256",
          "name": "_feePercent",
          "type": "uint256"
        }
      ],
      "name": "createPortfolio",
      "outputs": [],
      "stateMutability": "nonpayable",
      "type": "function"
    },
    {
      "inputs": [
        {
          "internalType": "uint256",
          "name": "_id",
          "type": "uint256"
        }
      ],
      "name": "endPortfolio",
      "outputs": [],
      "stateMutability": "nonpayable",
      "type": "function"
    },
    {
      "inputs": [],
      "name": "getMyPortfolios",
      "outputs": [
        {
          "internalType": "uint256[]",
          "name": "",
          "type": "uint256[]"
        }
      ],
      "stateMutability": "view",
      "type": "function"
    },
    {
      "inputs": [
        {
          "internalType": "uint256",
          "name": "_id",
          "type": "uint256"
        }
      ],
      "name": "getPortfolioMajorDetails",
      "outputs": [
        {
          "internalType": "string",
          "name": "",
          "type": "string"
        },
        {
          "internalType": "uint256",
          "name": "",
          "type": "uint256"
        },
        {
          "internalType": "uint256",
          "name": "",
          "type": "uint256"
        },
        {
          "internalType": "uint256",
          "name": "",
          "type": "uint256"
        },
        {
          "internalType": "uint256",
          "name": "",
          "type": "uint256"
        },
        {
          "internalType": "uint256",
          "name": "",
          "type": "uint256"
        },
        {
          "internalType": "uint256",
          "name": "",
          "type": "uint256"
        }
      ],
      "stateMutability": "view",
      "type": "function"
    },
    {
      "inputs": [
        {
          "internalType": "uint256",
          "name": "_id",
          "type": "uint256"
        }
      ],
      "name": "getPortfolioManager",
      "outputs": [
        {
          "internalType": "address",
          "name": "",
          "type": "address"
        }
      ],
      "stateMutability": "view",
      "type": "function"
    },
    {
      "inputs": [
        {
          "internalType": "uint256",
          "name": "_id",
          "type": "uint256"
        }
      ],
      "name": "getPortfolioStatus",
      "outputs": [
        {
          "internalType": "enum Platform.PortfolioStatus",
          "name": "",
          "type": "uint8"
        }
      ],
      "stateMutability": "view",
      "type": "function"
    },
    {
      "inputs": [
        {
          "internalType": "uint256",
          "name": "id",
          "type": "uint256"
        }
      ],
      "name": "getReturns",
      "outputs": [
        {
          "internalType": "uint256",
          "name": "",
          "type": "uint256"
        }
      ],
      "stateMutability": "view",
      "type": "function"
    },
    {
      "inputs": [
        {
          "internalType": "uint256",
          "name": "_id",
          "type": "uint256"
        }
      ],
      "name": "hasDeadlineApproached",
      "outputs": [
        {
          "internalType": "bool",
          "name": "",
          "type": "bool"
        }
      ],
      "stateMutability": "view",
      "type": "function"
    },
    {
      "inputs": [
        {
          "internalType": "uint256",
          "name": "_portfolioId",
          "type": "uint256"
        }
      ],
      "name": "invest",
      "outputs": [],
      "stateMutability": "payable",
      "type": "function"
    },
    {
      "inputs": [
        {
          "internalType": "uint256",
          "name": "_id",
          "type": "uint256"
        }
      ],
      "name": "isPortfolioOpen",
      "outputs": [
        {
          "internalType": "bool",
          "name": "",
          "type": "bool"
        }
      ],
      "stateMutability": "view",
      "type": "function"
    },
    {
      "inputs": [
        {
          "internalType": "uint256",
          "name": "_id",
          "type": "uint256"
        }
      ],
      "name": "isPortfolioPaid",
      "outputs": [
        {
          "internalType": "bool",
          "name": "",
          "type": "bool"
        }
      ],
      "stateMutability": "view",
      "type": "function"
    },
    {
      "inputs": [
        {
          "internalType": "uint256",
          "name": "_id",
          "type": "uint256"
        }
      ],
      "name": "markDeadlineApproached",
      "outputs": [],
      "stateMutability": "nonpayable",
      "type": "function"
    },
    {
      "inputs": [
        {
          "internalType": "address",
          "name": "",
          "type": "address"
        },
        {
          "internalType": "uint256",
          "name": "",
          "type": "uint256"
        }
      ],
      "name": "myPortfolios",
      "outputs": [
        {
          "internalType": "uint256",
          "name": "",
          "type": "uint256"
        }
      ],
      "stateMutability": "view",
      "type": "function"
    },
    {
      "inputs": [],
      "name": "owner",
      "outputs": [
        {
          "internalType": "address",
          "name": "",
          "type": "address"
        }
      ],
      "stateMutability": "view",
      "type": "function"
    },
    {
      "inputs": [
        {
          "internalType": "uint256",
          "name": "_id",
          "type": "uint256"
        }
      ],
      "name": "payAmount",
      "outputs": [],
      "stateMutability": "payable",
      "type": "function"
    },
    {
      "inputs": [],
      "name": "platformFee",
      "outputs": [
        {
          "internalType": "uint256",
          "name": "",
          "type": "uint256"
        }
      ],
      "stateMutability": "view",
      "type": "function"
    },
    {
      "inputs": [
        {
          "internalType": "uint256",
          "name": "",
          "type": "uint256"
        },
        {
          "internalType": "address",
          "name": "",
          "type": "address"
        }
      ],
      "name": "portfolioInvestors",
      "outputs": [
        {
          "internalType": "uint256",
          "name": "",
          "type": "uint256"
        }
      ],
      "stateMutability": "view",
      "type": "function"
    },
    {
      "inputs": [
        {
          "internalType": "uint256",
          "name": "",
          "type": "uint256"
        }
      ],
      "name": "portfolioReturns",
      "outputs": [
        {
          "internalType": "uint256",
          "name": "",
          "type": "uint256"
        }
      ],
      "stateMutability": "view",
      "type": "function"
    },
    {
      "inputs": [
        {
          "internalType": "uint256",
          "name": "",
          "type": "uint256"
        }
      ],
      "name": "portfolios",
      "outputs": [
        {
          "internalType": "address",
          "name": "manager",
          "type": "address"
        },
        {
          "internalType": "bool",
          "name": "isOpen",
          "type": "bool"
        },
        {
          "internalType": "bool",
          "name": "isPaid",
          "type": "bool"
        },
        {
          "internalType": "bool",
          "name": "deadlineApproached",
          "type": "bool"
        },
        {
          "internalType": "uint256",
          "name": "id",
          "type": "uint256"
        },
        {
          "internalType": "string",
          "name": "name",
          "type": "string"
        },
        {
          "internalType": "uint256",
          "name": "minAmount",
          "type": "uint256"
        },
        {
          "internalType": "uint256",
          "name": "totalFunds",
          "type": "uint256"
        },
        {
          "internalType": "uint256",
          "name": "maxReturn",
          "type": "uint256"
        },
        {
          "internalType": "uint256",
          "name": "amountCollected",
          "type": "uint256"
        },
        {
          "internalType": "uint256",
          "name": "feePercent",
          "type": "uint256"
        },
        {
          "internalType": "enum Platform.PortfolioStatus",
          "name": "status",
          "type": "uint8"
        }
      ],
      "stateMutability": "view",
      "type": "function"
    },
    {
      "inputs": [
        {
          "internalType": "uint256",
          "name": "id",
          "type": "uint256"
        },
        {
          "internalType": "uint256",
          "name": "_amount",
          "type": "uint256"
        }
      ],
      "name": "setReturns",
      "outputs": [],
      "stateMutability": "nonpayable",
      "type": "function"
    },
    {
      "inputs": [
        {
          "internalType": "uint256",
          "name": "_id",
          "type": "uint256"
        }
      ],
      "name": "terminatePortfolio",
      "outputs": [],
      "stateMutability": "nonpayable",
      "type": "function"
    },
    {
      "inputs": [
        {
          "internalType": "uint256",
          "name": "_portfolioId",
          "type": "uint256"
        },
        {
          "internalType": "uint256",
          "name": "amount",
          "type": "uint256"
        }
      ],
      "name": "withdraw",
      "outputs": [],
      "stateMutability": "nonpayable",
      "type": "function"
    },
    {
      "inputs": [],
      "name": "withdrawFee",
      "outputs": [
        {
          "internalType": "uint256",
          "name": "",
          "type": "uint256"
        }
      ],
      "stateMutability": "view",
      "type": "function"
    }
  ],
  "bytecode": "0x6080604052662386f26fc10000600055661550f7dca7000060015534801561002657600080fd5b5033600660006101000a81548173ffffffffffffffffffffffffffffffffffffffff021916908373ffffffffffffffffffffffffffffffffffffffff160217905550614637806100776000396000f3fe6080604052600436106101b75760003560e01c8063627b43f1116100ec5780639ccd8e9e1161008a578063d7a5791a11610064578063d7a5791a1461064c578063e941fa7814610675578063ed8dc217146106a0578063fd36c3d0146106dd576101b7565b80639ccd8e9e146105a9578063b23ca704146105e6578063d27eee7714610623576101b7565b80637ff73301116100c65780637ff73301146104ed57806382ce3a7d146105165780638da5cb5b1461054157806390d36fd21461056c576101b7565b8063627b43f11461045e578063693afcd91461049b5780636e630649146104c4576101b7565b80633321051b11610159578063441a3e7011610133578063441a3e70146103ad5780634c5b20f3146103d65780635f08b866146103ff5780635f93625614610442576101b7565b80633321051b1461030c578063367ca9141461032857806340a38b0414610370576101b7565b806326232a2e1161019557806326232a2e1461025f5780632afcf4801461028a5780632b5d3ddc146102a65780632f1253a4146102cf576101b7565b806302f6fa99146101bc5780630cfe5955146101e55780631540211614610222575b600080fd5b3480156101c857600080fd5b506101e360048036038101906101de919061308a565b610706565b005b3480156101f157600080fd5b5061020c60048036038101906102079190613115565b610825565b6040516102199190613164565b60405180910390f35b34801561022e57600080fd5b506102496004803603810190610244919061308a565b61084a565b6040516102569190613164565b60405180910390f35b34801561026b57600080fd5b50610274610862565b6040516102819190613164565b60405180910390f35b6102a4600480360381019061029f919061308a565b610868565b005b3480156102b257600080fd5b506102cd60048036038101906102c8919061308a565b610b2f565b005b3480156102db57600080fd5b506102f660048036038101906102f1919061308a565b6111c6565b604051610303919061318e565b60405180910390f35b610326600480360381019061032191906131a9565b611215565b005b34801561033457600080fd5b5061034f600480360381019061034a919061308a565b61142b565b6040516103679c9b9a9998979695949392919061330b565b60405180910390f35b34801561037c57600080fd5b50610397600480360381019061039291906133cc565b611577565b6040516103a49190613164565b60405180910390f35b3480156103b957600080fd5b506103d460048036038101906103cf91906131a9565b6115a8565b005b3480156103e257600080fd5b506103fd60048036038101906103f8919061308a565b611baf565b005b34801561040b57600080fd5b506104266004803603810190610421919061308a565b612052565b604051610439979695949392919061340c565b60405180910390f35b61045c6004803603810190610457919061308a565b61220b565b005b34801561046a57600080fd5b506104856004803603810190610480919061308a565b61250b565b6040516104929190613482565b60405180910390f35b3480156104a757600080fd5b506104c260048036038101906104bd919061308a565b612547565b005b3480156104d057600080fd5b506104eb60048036038101906104e691906134c2565b612696565b005b3480156104f957600080fd5b50610514600480360381019061050f9190613637565b612777565b005b34801561052257600080fd5b5061052b612a7d565b604051610538919061378c565b60405180910390f35b34801561054d57600080fd5b50610556612b12565b604051610563919061318e565b60405180910390f35b34801561057857600080fd5b50610593600480360381019061058e919061308a565b612b38565b6040516105a09190613482565b60405180910390f35b3480156105b557600080fd5b506105d060048036038101906105cb919061308a565b612b74565b6040516105dd9190613482565b60405180910390f35b3480156105f257600080fd5b5061060d6004803603810190610608919061308a565b612bb0565b60405161061a9190613164565b60405180910390f35b34801561062f57600080fd5b5061064a600480360381019061064591906131a9565b612bcd565b005b34801561065857600080fd5b50610673600480360381019061066e919061308a565b612c79565b005b34801561068157600080fd5b5061068a612d13565b6040516106979190613164565b60405180910390f35b3480156106ac57600080fd5b506106c760048036038101906106c2919061308a565b612d19565b6040516106d491906137ae565b60405180910390f35b3480156106e957600080fd5b5061070460048036038101906106ff91906131a9565b612d55565b005b600660009054906101000a900473ffffffffffffffffffffffffffffffffffffffff1673ffffffffffffffffffffffffffffffffffffffff163373ffffffffffffffffffffffffffffffffffffffff1614610796576040517f08c379a000000000000000000000000000000000000000000000000000000000815260040161078d9061383b565b60405180910390fd5b6000600282815481106107ac576107ab61385b565b5b90600052602060002090600a020160000160146101000a81548160ff0219169083151502179055506001600282815481106107ea576107e961385b565b5b90600052602060002090600a020160080160006101000a81548160ff0219169083600281111561081d5761081c613294565b5b021790555050565b6004602052816000526040600020602052806000526040600020600091509150505481565b60036020528060005260406000206000915090505481565b60005481565b806000600281111561087d5761087c613294565b5b600282815481106108915761089061385b565b5b90600052602060002090600a020160080160009054906101000a900460ff1660028111156108c2576108c1613294565b5b14610902576040517f08c379a00000000000000000000000000000000000000000000000000000000081526004016108f9906138d6565b60405180910390fd5b600282815481106109165761091561385b565b5b90600052602060002090600a02016003015434101561096a576040517f08c379a000000000000000000000000000000000000000000000000000000000815260040161096190613968565b60405180910390fd5b6002828154811061097e5761097d61385b565b5b90600052602060002090600a020160040154600283815481106109a4576109a361385b565b5b90600052602060002090600a020160060154346109c191906139b7565b1115610a02576040517f08c379a00000000000000000000000000000000000000000000000000000000081526004016109f990613a5d565b60405180910390fd5b3460028381548110610a1757610a1661385b565b5b90600052602060002090600a02016006016000828254610a3791906139b7565b92505081905550346004600084815260200190815260200160002060003373ffffffffffffffffffffffffffffffffffffffff1673ffffffffffffffffffffffffffffffffffffffff1681526020019081526020016000206000828254610a9e91906139b7565b9250508190555060028281548110610ab957610ab861385b565b5b90600052602060002090600a0201600901339080600181540180825580915050600190039060005260206000200160009091909190916101000a81548173ffffffffffffffffffffffffffffffffffffffff021916908373ffffffffffffffffffffffffffffffffffffffff1602179055505050565b80600280811115610b4357610b42613294565b5b60028281548110610b5757610b5661385b565b5b90600052602060002090600a020160080160009054906101000a900460ff166002811115610b8857610b87613294565b5b14610bc8576040517f08c379a0000000000000000000000000000000000000000000000000000000008152600401610bbf90613ac9565b60405180910390fd5b3373ffffffffffffffffffffffffffffffffffffffff1660028381548110610bf357610bf261385b565b5b90600052602060002090600a020160000160009054906101000a900473ffffffffffffffffffffffffffffffffffffffff1673ffffffffffffffffffffffffffffffffffffffff161480610c76575060028281548110610c5657610c5561385b565b5b90600052602060002090600a020160000160169054906101000a900460ff165b610cb5576040517f08c379a0000000000000000000000000000000000000000000000000000000008152600401610cac90613b81565b60405180910390fd5b600060028381548110610ccb57610cca61385b565b5b90600052602060002090600a0201600701549050600060028481548110610cf557610cf461385b565b5b90600052602060002090600a0201600901805490509050600060028581548110610d2257610d2161385b565b5b90600052602060002090600a0201600601549050600060028681548110610d4c57610d4b61385b565b5b90600052602060002090600a020160000160009054906101000a900473ffffffffffffffffffffffffffffffffffffffff1690506000600360008881526020019081526020016000205490506000670de0b6b3a76400008685610daf9190613ba1565b610db99190613c12565b90508273ffffffffffffffffffffffffffffffffffffffff166108fc829081150290604051600060405180830381858888f19350505050158015610e01573d6000803e3d6000fd5b506000670de0b6b3a764000060005486610e1b9190613ba1565b610e259190613c12565b9050600660009054906101000a900473ffffffffffffffffffffffffffffffffffffffff1673ffffffffffffffffffffffffffffffffffffffff166108fc829081150290604051600060405180830381858888f19350505050158015610e8f573d6000803e3d6000fd5b5060005b8681101561102457600060028b81548110610eb157610eb061385b565b5b90600052602060002090600a02016009018281548110610ed457610ed361385b565b5b9060005260206000200160009054906101000a900473ffffffffffffffffffffffffffffffffffffffff1690506000600460008d815260200190815260200160002060008373ffffffffffffffffffffffffffffffffffffffff1673ffffffffffffffffffffffffffffffffffffffff1681526020019081526020016000205490506000811115611017576000670de0b6b3a76400008783610f769190613ba1565b60005484610f849190613ba1565b8d85610f909190613ba1565b670de0b6b3a764000086610fa49190613ba1565b610fae9190613c43565b610fb89190613c43565b610fc291906139b7565b610fcc9190613c12565b90508273ffffffffffffffffffffffffffffffffffffffff166108fc829081150290604051600060405180830381858888f19350505050158015611014573d6000803e3d6000fd5b50505b8260010192505050610e93565b50600060028a8154811061103b5761103a61385b565b5b90600052602060002090600a0201600501549050838111156110ce576000670de0b6b3a7640000858361106e9190613c43565b886110799190613ba1565b6110839190613c12565b90508573ffffffffffffffffffffffffffffffffffffffff166108fc829081150290604051600060405180830381858888f193505050501580156110cb573d6000803e3d6000fd5b50505b60028a815481106110e2576110e161385b565b5b90600052602060002090600a0201600080820160006101000a81549073ffffffffffffffffffffffffffffffffffffffff02191690556000820160146101000a81549060ff02191690556000820160156101000a81549060ff02191690556000820160166101000a81549060ff0219169055600182016000905560028201600061116c9190612f38565b600382016000905560048201600090556005820160009055600682016000905560078201600090556008820160006101000a81549060ff02191690556009820160006111b89190612f78565b505050505050505050505050565b6000600282815481106111dc576111db61385b565b5b90600052602060002090600a020160000160009054906101000a900473ffffffffffffffffffffffffffffffffffffffff169050919050565b600115156002838154811061122d5761122c61385b565b5b90600052602060002090600a020160000160159054906101000a900460ff1615151461128e576040517f08c379a000000000000000000000000000000000000000000000000000000000815260040161128590613cc3565b60405180910390fd5b3373ffffffffffffffffffffffffffffffffffffffff16600283815481106112b9576112b861385b565b5b90600052602060002090600a020160000160009054906101000a900473ffffffffffffffffffffffffffffffffffffffff1673ffffffffffffffffffffffffffffffffffffffff1614611341576040517f08c379a000000000000000000000000000000000000000000000000000000000815260040161133890613d55565b60405180910390fd5b6000670de0b6b3a764000082600285815481106113615761136061385b565b5b90600052602060002090600a02016004015461137d9190613ba1565b6113879190613c12565b9050803410156113cc576040517f08c379a00000000000000000000000000000000000000000000000000000000081526004016113c390613de7565b60405180910390fd5b600283815481106113e0576113df61385b565b5b90600052602060002090600a020160050154826113fd91906139b7565b600284815481106114115761141061385b565b5b90600052602060002090600a020160050181905550505050565b6002818154811061143b57600080fd5b90600052602060002090600a02016000915090508060000160009054906101000a900473ffffffffffffffffffffffffffffffffffffffff16908060000160149054906101000a900460ff16908060000160159054906101000a900460ff16908060000160169054906101000a900460ff16908060010154908060020180546114c390613e36565b80601f01602080910402602001604051908101604052809291908181526020018280546114ef90613e36565b801561153c5780601f106115115761010080835404028352916020019161153c565b820191906000526020600020905b81548152906001019060200180831161151f57829003601f168201915b5050505050908060030154908060040154908060050154908060060154908060070154908060080160009054906101000a900460ff1690508c565b6005602052816000526040600020818154811061159357600080fd5b90600052602060002001600091509150505481565b600081116115eb576040517f08c379a00000000000000000000000000000000000000000000000000000000081526004016115e290613eb3565b60405180910390fd5b6004600083815260200190815260200160002060003373ffffffffffffffffffffffffffffffffffffffff1673ffffffffffffffffffffffffffffffffffffffff1681526020019081526020016000205481111561167e576040517f08c379a000000000000000000000000000000000000000000000000000000000815260040161167590613f45565b60405180910390fd5b6001600281111561169257611691613294565b5b600283815481106116a6576116a561385b565b5b90600052602060002090600a020160080160009054906101000a900460ff1660028111156116d7576116d6613294565b5b03611717576040517f08c379a000000000000000000000000000000000000000000000000000000000815260040161170e90613fb1565b60405180910390fd5b6000600281111561172b5761172a613294565b5b6002838154811061173f5761173e61385b565b5b90600052602060002090600a020160080160009054906101000a900460ff1660028111156117705761176f613294565b5b03611904576000670de0b6b3a76400006001548361178e9190613ba1565b6117989190613c12565b9050600660009054906101000a900473ffffffffffffffffffffffffffffffffffffffff1673ffffffffffffffffffffffffffffffffffffffff166108fc829081150290604051600060405180830381858888f19350505050158015611802573d6000803e3d6000fd5b50600081836118119190613c43565b9050826004600086815260200190815260200160002060003373ffffffffffffffffffffffffffffffffffffffff1673ffffffffffffffffffffffffffffffffffffffff16815260200190815260200160002060008282546118739190613c43565b92505081905550826002858154811061188f5761188e61385b565b5b90600052602060002090600a020160060160008282546118af9190613c43565b925050819055503373ffffffffffffffffffffffffffffffffffffffff166108fc829081150290604051600060405180830381858888f193505050501580156118fc573d6000803e3d6000fd5b505050611bab565b6000670de0b6b3a76400006000548361191d9190613ba1565b6119279190613c12565b90506000670de0b6b3a7640000600285815481106119485761194761385b565b5b90600052602060002090600a020160070154846119659190613ba1565b61196f9190613c12565b9050600660009054906101000a900473ffffffffffffffffffffffffffffffffffffffff1673ffffffffffffffffffffffffffffffffffffffff166108fc839081150290604051600060405180830381858888f193505050501580156119d9573d6000803e3d6000fd5b50600284815481106119ee576119ed61385b565b5b90600052602060002090600a020160000160009054906101000a900473ffffffffffffffffffffffffffffffffffffffff1673ffffffffffffffffffffffffffffffffffffffff166108fc829081150290604051600060405180830381858888f19350505050158015611a65573d6000803e3d6000fd5b506000670de0b6b3a7640000600360008781526020019081526020016000205485611a909190613ba1565b611a9a9190613c12565b828486611aa79190613c43565b611ab19190613c43565b611abb91906139b7565b9050836004600087815260200190815260200160002060003373ffffffffffffffffffffffffffffffffffffffff1673ffffffffffffffffffffffffffffffffffffffff1681526020019081526020016000206000828254611b1d9190613c43565b925050819055508360028681548110611b3957611b3861385b565b5b90600052602060002090600a02016006016000828254611b599190613c43565b925050819055503373ffffffffffffffffffffffffffffffffffffffff166108fc829081150290604051600060405180830381858888f19350505050158015611ba6573d6000803e3d6000fd5b505050505b5050565b600660009054906101000a900473ffffffffffffffffffffffffffffffffffffffff1673ffffffffffffffffffffffffffffffffffffffff163373ffffffffffffffffffffffffffffffffffffffff1614611c3f576040517f08c379a0000000000000000000000000000000000000000000000000000000008152600401611c369061383b565b60405180910390fd5b600280811115611c5257611c51613294565b5b60028281548110611c6657611c6561385b565b5b90600052602060002090600a020160080160009054906101000a900460ff166002811115611c9757611c96613294565b5b14611cd7576040517f08c379a0000000000000000000000000000000000000000000000000000000008152600401611cce9061401d565b60405180910390fd5b6000670de0b6b3a764000060005460028481548110611cf957611cf861385b565b5b90600052602060002090600a020160060154611d159190613ba1565b611d1f9190613c12565b9050600660009054906101000a900473ffffffffffffffffffffffffffffffffffffffff1673ffffffffffffffffffffffffffffffffffffffff166108fc829081150290604051600060405180830381858888f19350505050158015611d89573d6000803e3d6000fd5b50600060028381548110611da057611d9f61385b565b5b90600052602060002090600a0201600501549050600060028481548110611dca57611dc961385b565b5b90600052602060002090600a020160090180549050905060005b81811015611f5f57600060028681548110611e0257611e0161385b565b5b90600052602060002090600a02016009018281548110611e2557611e2461385b565b5b9060005260206000200160009054906101000a900473ffffffffffffffffffffffffffffffffffffffff16905060006004600088815260200190815260200160002060008373ffffffffffffffffffffffffffffffffffffffff1673ffffffffffffffffffffffffffffffffffffffff1681526020019081526020016000205490506000811115611f52576000670de0b6b3a76400008683611ec79190613ba1565b60005484611ed59190613ba1565b670de0b6b3a764000085611ee99190613ba1565b611ef39190613c43565b611efd91906139b7565b611f079190613c12565b90508273ffffffffffffffffffffffffffffffffffffffff166108fc829081150290604051600060405180830381858888f19350505050158015611f4f573d6000803e3d6000fd5b50505b8260010192505050611de4565b5060028481548110611f7457611f7361385b565b5b90600052602060002090600a0201600080820160006101000a81549073ffffffffffffffffffffffffffffffffffffffff02191690556000820160146101000a81549060ff02191690556000820160156101000a81549060ff02191690556000820160166101000a81549060ff02191690556001820160009055600282016000611ffe9190612f38565b600382016000905560048201600090556005820160009055600682016000905560078201600090556008820160006101000a81549060ff021916905560098201600061204a9190612f78565b505050505050565b6060600080600080600080600288815481106120715761207061385b565b5b90600052602060002090600a0201600201600289815481106120965761209561385b565b5b90600052602060002090600a02016001015460028a815481106120bc576120bb61385b565b5b90600052602060002090600a02016003015460028b815481106120e2576120e161385b565b5b90600052602060002090600a02016004015460028c815481106121085761210761385b565b5b90600052602060002090600a02016005015460028d8154811061212e5761212d61385b565b5b90600052602060002090600a02016006015460028e815481106121545761215361385b565b5b90600052602060002090600a02016007015486805461217290613e36565b80601f016020809104026020016040519081016040528092919081815260200182805461219e90613e36565b80156121eb5780601f106121c0576101008083540402835291602001916121eb565b820191906000526020600020905b8154815290600101906020018083116121ce57829003601f168201915b505050505096509650965096509650965096509650919395979092949650565b803373ffffffffffffffffffffffffffffffffffffffff16600282815481106122375761223661385b565b5b90600052602060002090600a020160000160009054906101000a900473ffffffffffffffffffffffffffffffffffffffff1673ffffffffffffffffffffffffffffffffffffffff16146122bf576040517f08c379a00000000000000000000000000000000000000000000000000000000081526004016122b690613d55565b60405180910390fd5b600281815481106122d3576122d261385b565b5b90600052602060002090600a020160000160159054906101000a900460ff1615612332576040517f08c379a000000000000000000000000000000000000000000000000000000000815260040161232990614089565b60405180910390fd5b6001600281111561234657612345613294565b5b6002828154811061235a5761235961385b565b5b90600052602060002090600a020160080160009054906101000a900460ff16600281111561238b5761238a613294565b5b146123cb576040517f08c379a00000000000000000000000000000000000000000000000000000000081526004016123c29061411b565b60405180910390fd5b6000670de0b6b3a7640000600284815481106123ea576123e961385b565b5b90600052602060002090600a020160050154600285815481106124105761240f61385b565b5b90600052602060002090600a02016006015461242c9190613ba1565b6124369190613c12565b90508034101561247b576040517f08c379a0000000000000000000000000000000000000000000000000000000008152600401612472906141ad565b60405180910390fd5b6001600284815481106124915761249061385b565b5b90600052602060002090600a020160000160156101000a81548160ff02191690831515021790555060028084815481106124ce576124cd61385b565b5b90600052602060002090600a020160080160006101000a81548160ff0219169083600281111561250157612500613294565b5b0217905550505050565b6000600282815481106125215761252061385b565b5b90600052602060002090600a020160000160149054906101000a900460ff169050919050565b600660009054906101000a900473ffffffffffffffffffffffffffffffffffffffff1673ffffffffffffffffffffffffffffffffffffffff163373ffffffffffffffffffffffffffffffffffffffff16146125d7576040517f08c379a00000000000000000000000000000000000000000000000000000000081526004016125ce9061383b565b60405180910390fd5b6001600282815481106125ed576125ec61385b565b5b90600052602060002090600a020160000160166101000a81548160ff021916908315150217905550600281815481106126295761262861385b565b5b90600052602060002090600a0201600501546003600083815260200190815260200160002054111561269357600281815481106126695761266861385b565b5b90600052602060002090600a02016005015460036000838152602001908152602001600020819055505b50565b600660009054906101000a900473ffffffffffffffffffffffffffffffffffffffff1673ffffffffffffffffffffffffffffffffffffffff163373ffffffffffffffffffffffffffffffffffffffff1614612726576040517f08c379a000000000000000000000000000000000000000000000000000000000815260040161271d9061383b565b60405180910390fd5b806002838154811061273b5761273a61385b565b5b90600052602060002090600a020160080160006101000a81548160ff0219169083600281111561276e5761276d613294565b5b02179055505050565b600083116127ba576040517f08c379a00000000000000000000000000000000000000000000000000000000081526004016127b19061423f565b60405180910390fd5b6002604051806101a001604052803373ffffffffffffffffffffffffffffffffffffffff1681526020016001151581526020016000151581526020016000151581526020016002805490508152602001878152602001868152602001858152602001848152602001600081526020018381526020016000600281111561284357612842613294565b5b8152602001600067ffffffffffffffff8111156128635761286261350c565b5b6040519080825280602002602001820160405280156128915781602001602082028036833780820191505090505b5081525090806001815401808255809150506001900390600052602060002090600a020160009091909190915060008201518160000160006101000a81548173ffffffffffffffffffffffffffffffffffffffff021916908373ffffffffffffffffffffffffffffffffffffffff16021790555060208201518160000160146101000a81548160ff02191690831515021790555060408201518160000160156101000a81548160ff02191690831515021790555060608201518160000160166101000a81548160ff0219169083151502179055506080820151816001015560a0820151816002019081612984919061440b565b5060c0820151816003015560e082015181600401556101008201518160050155610120820151816006015561014082015181600701556101608201518160080160006101000a81548160ff021916908360028111156129e6576129e5613294565b5b0217905550610180820151816009019080519060200190612a08929190612f99565b505050600560003373ffffffffffffffffffffffffffffffffffffffff1673ffffffffffffffffffffffffffffffffffffffff16815260200190815260200160002060028054905090806001815401808255809150506001900390600052602060002001600090919091909150555050505050565b6060600560003373ffffffffffffffffffffffffffffffffffffffff1673ffffffffffffffffffffffffffffffffffffffff168152602001908152602001600020805480602002602001604051908101604052809291908181526020018280548015612b0857602002820191906000526020600020905b815481526020019060010190808311612af4575b5050505050905090565b600660009054906101000a900473ffffffffffffffffffffffffffffffffffffffff1681565b600060028281548110612b4e57612b4d61385b565b5b90600052602060002090600a020160000160159054906101000a900460ff169050919050565b600060028281548110612b8a57612b8961385b565b5b90600052602060002090600a020160000160169054906101000a900460ff169050919050565b600060036000838152602001908152602001600020549050919050565b600660009054906101000a900473ffffffffffffffffffffffffffffffffffffffff1673ffffffffffffffffffffffffffffffffffffffff163373ffffffffffffffffffffffffffffffffffffffff1614612c5d576040517f08c379a0000000000000000000000000000000000000000000000000000000008152600401612c549061383b565b60405180910390fd5b8060036000848152602001908152602001600020819055505050565b600660009054906101000a900473ffffffffffffffffffffffffffffffffffffffff1673ffffffffffffffffffffffffffffffffffffffff163373ffffffffffffffffffffffffffffffffffffffff1614612d09576040517f08c379a0000000000000000000000000000000000000000000000000000000008152600401612d009061383b565b60405180910390fd5b8060008190555050565b60015481565b600060028281548110612d2f57612d2e61385b565b5b90600052602060002090600a020160080160009054906101000a900460ff169050919050565b8160006002811115612d6a57612d69613294565b5b60028281548110612d7e57612d7d61385b565b5b90600052602060002090600a020160080160009054906101000a900460ff166002811115612daf57612dae613294565b5b14612def576040517f08c379a0000000000000000000000000000000000000000000000000000000008152600401612de6906138d6565b60405180910390fd5b3373ffffffffffffffffffffffffffffffffffffffff1660028481548110612e1a57612e1961385b565b5b90600052602060002090600a020160000160009054906101000a900473ffffffffffffffffffffffffffffffffffffffff1673ffffffffffffffffffffffffffffffffffffffff1614612ea2576040517f08c379a0000000000000000000000000000000000000000000000000000000008152600401612e999061454f565b60405180910390fd5b60028381548110612eb657612eb561385b565b5b90600052602060002090600a0201600401548211612f09576040517f08c379a0000000000000000000000000000000000000000000000000000000008152600401612f00906145e1565b60405180910390fd5b8160028481548110612f1e57612f1d61385b565b5b90600052602060002090600a020160040181905550505050565b508054612f4490613e36565b6000825580601f10612f565750612f75565b601f016020900490600052602060002090810190612f749190613023565b5b50565b5080546000825590600052602060002090810190612f969190613023565b50565b828054828255906000526020600020908101928215613012579160200282015b828111156130115782518260006101000a81548173ffffffffffffffffffffffffffffffffffffffff021916908373ffffffffffffffffffffffffffffffffffffffff16021790555091602001919060010190612fb9565b5b50905061301f9190613023565b5090565b5b8082111561303c576000816000905550600101613024565b5090565b6000604051905090565b600080fd5b600080fd5b6000819050919050565b61306781613054565b811461307257600080fd5b50565b6000813590506130848161305e565b92915050565b6000602082840312156130a05761309f61304a565b5b60006130ae84828501613075565b91505092915050565b600073ffffffffffffffffffffffffffffffffffffffff82169050919050565b60006130e2826130b7565b9050919050565b6130f2816130d7565b81146130fd57600080fd5b50565b60008135905061310f816130e9565b92915050565b6000806040838503121561312c5761312b61304a565b5b600061313a85828601613075565b925050602061314b85828601613100565b9150509250929050565b61315e81613054565b82525050565b60006020820190506131796000830184613155565b92915050565b613188816130d7565b82525050565b60006020820190506131a3600083018461317f565b92915050565b600080604083850312156131c0576131bf61304a565b5b60006131ce85828601613075565b92505060206131df85828601613075565b9150509250929050565b60008115159050919050565b6131fe816131e9565b82525050565b600081519050919050565b600082825260208201905092915050565b60005b8381101561323e578082015181840152602081019050613223565b60008484015250505050565b6000601f19601f8301169050919050565b600061326682613204565b613270818561320f565b9350613280818560208601613220565b6132898161324a565b840191505092915050565b7f4e487b7100000000000000000000000000000000000000000000000000000000600052602160045260246000fd5b600381106132d4576132d3613294565b5b50565b60008190506132e5826132c3565b919050565b60006132f5826132d7565b9050919050565b613305816132ea565b82525050565b600061018082019050613321600083018f61317f565b61332e602083018e6131f5565b61333b604083018d6131f5565b613348606083018c6131f5565b613355608083018b613155565b81810360a0830152613367818a61325b565b905061337660c0830189613155565b61338360e0830188613155565b613391610100830187613155565b61339f610120830186613155565b6133ad610140830185613155565b6133bb6101608301846132fc565b9d9c50505050505050505050505050565b600080604083850312156133e3576133e261304a565b5b60006133f185828601613100565b925050602061340285828601613075565b9150509250929050565b600060e0820190508181036000830152613426818a61325b565b90506134356020830189613155565b6134426040830188613155565b61344f6060830187613155565b61345c6080830186613155565b61346960a0830185613155565b61347660c0830184613155565b98975050505050505050565b600060208201905061349760008301846131f5565b92915050565b600381106134aa57600080fd5b50565b6000813590506134bc8161349d565b92915050565b600080604083850312156134d9576134d861304a565b5b60006134e785828601613075565b92505060206134f8858286016134ad565b9150509250929050565b600080fd5b600080fd5b7f4e487b7100000000000000000000000000000000000000000000000000000000600052604160045260246000fd5b6135448261324a565b810181811067ffffffffffffffff821117156135635761356261350c565b5b80604052505050565b6000613576613040565b9050613582828261353b565b919050565b600067ffffffffffffffff8211156135a2576135a161350c565b5b6135ab8261324a565b9050602081019050919050565b82818337600083830152505050565b60006135da6135d584613587565b61356c565b9050828152602081018484840111156135f6576135f5613507565b5b6136018482856135b8565b509392505050565b600082601f83011261361e5761361d613502565b5b813561362e8482602086016135c7565b91505092915050565b600080600080600060a086880312156136535761365261304a565b5b600086013567ffffffffffffffff8111156136715761367061304f565b5b61367d88828901613609565b955050602061368e88828901613075565b945050604061369f88828901613075565b93505060606136b088828901613075565b92505060806136c188828901613075565b9150509295509295909350565b600081519050919050565b600082825260208201905092915050565b6000819050602082019050919050565b61370381613054565b82525050565b600061371583836136fa565b60208301905092915050565b6000602082019050919050565b6000613739826136ce565b61374381856136d9565b935061374e836136ea565b8060005b8381101561377f5781516137668882613709565b975061377183613721565b925050600181019050613752565b5085935050505092915050565b600060208201905081810360008301526137a6818461372e565b905092915050565b60006020820190506137c360008301846132fc565b92915050565b7f4f6e6c7920746865206f776e65722063616e2063616c6c20746869732066756e60008201527f6374696f6e000000000000000000000000000000000000000000000000000000602082015250565b600061382560258361320f565b9150613830826137c9565b604082019050919050565b6000602082019050818103600083015261385481613818565b9050919050565b7f4e487b7100000000000000000000000000000000000000000000000000000000600052603260045260246000fd5b7f506f7274666f6c696f206e6f7420696e206f70656e2073746174650000000000600082015250565b60006138c0601b8361320f565b91506138cb8261388a565b602082019050919050565b600060208201905081810360008301526138ef816138b3565b9050919050565b7f416d6f756e742073686f756c642062652067726561746572207468616e20746860008201527f65206d696e696d756d20616d6f756e7400000000000000000000000000000000602082015250565b600061395260308361320f565b915061395d826138f6565b604082019050919050565b6000602082019050818103600083015261398181613945565b9050919050565b7f4e487b7100000000000000000000000000000000000000000000000000000000600052601160045260246000fd5b60006139c282613054565b91506139cd83613054565b92508282019050808211156139e5576139e4613988565b5b92915050565b7f416d6f756e742073686f756c64206265206c657373207468616e20746865207460008201527f6f74616c2066756e647300000000000000000000000000000000000000000000602082015250565b6000613a47602a8361320f565b9150613a52826139eb565b604082019050919050565b60006020820190508181036000830152613a7681613a3a565b9050919050565b7f506f7274666f6c696f2061696e277420696e2074726164696e67206d6f646521600082015250565b6000613ab360208361320f565b9150613abe82613a7d565b602082019050919050565b60006020820190508181036000830152613ae281613aa6565b9050919050565b7f4f6e6c7920746865206d616e616765722063616e2063616c6c2074686973206660008201527f756e6374696f6e206f722069662074686520646561646c696e6520686173206160208201527f7070726f61636865640000000000000000000000000000000000000000000000604082015250565b6000613b6b60498361320f565b9150613b7682613ae9565b606082019050919050565b60006020820190508181036000830152613b9a81613b5e565b9050919050565b6000613bac82613054565b9150613bb783613054565b9250828202613bc581613054565b91508282048414831517613bdc57613bdb613988565b5b5092915050565b7f4e487b7100000000000000000000000000000000000000000000000000000000600052601260045260246000fd5b6000613c1d82613054565b9150613c2883613054565b925082613c3857613c37613be3565b5b828204905092915050565b6000613c4e82613054565b9150613c5983613054565b9250828203905081811115613c7157613c70613988565b5b92915050565b7f46697273742070617920796f757220696e697469616c20616d6f756e74000000600082015250565b6000613cad601d8361320f565b9150613cb882613c77565b602082019050919050565b60006020820190508181036000830152613cdc81613ca0565b9050919050565b7f4f6e6c7920746865206d616e616765722063616e2063616c6c2074686973206660008201527f756e6374696f6e00000000000000000000000000000000000000000000000000602082015250565b6000613d3f60278361320f565b9150613d4a82613ce3565b604082019050919050565b60006020820190508181036000830152613d6e81613d32565b9050919050565b7f416d6f756e742073686f756c6420626520657175616c20746f2074686520696e60008201527f6372656173656420616d6f756e74000000000000000000000000000000000000602082015250565b6000613dd1602e8361320f565b9150613ddc82613d75565b604082019050919050565b60006020820190508181036000830152613e0081613dc4565b9050919050565b7f4e487b7100000000000000000000000000000000000000000000000000000000600052602260045260246000fd5b60006002820490506001821680613e4e57607f821691505b602082108103613e6157613e60613e07565b5b50919050565b7f416d6f756e742073686f756c642062652067726561746572207468616e203000600082015250565b6000613e9d601f8361320f565b9150613ea882613e67565b602082019050919050565b60006020820190508181036000830152613ecc81613e90565b9050919050565b7f596f7520646f6e2774206861766520656e6f75676820616d6f756e7420746f2060008201527f7769746864726177000000000000000000000000000000000000000000000000602082015250565b6000613f2f60288361320f565b9150613f3a82613ed3565b604082019050919050565b60006020820190508181036000830152613f5e81613f22565b9050919050565b7f596f752063616e2774207769746864726177206e6f7700000000000000000000600082015250565b6000613f9b60168361320f565b9150613fa682613f65565b602082019050919050565b60006020820190508181036000830152613fca81613f8e565b9050919050565b7f506f7274666f6c696f206973206e6f7420696e20616374696f6e000000000000600082015250565b6000614007601a8361320f565b915061401282613fd1565b602082019050919050565b6000602082019050818103600083015261403681613ffa565b9050919050565b7f4d616e616765722068617320706169642074686520616d6f756e740000000000600082015250565b6000614073601b8361320f565b915061407e8261403d565b602082019050919050565b600060208201905081810360008301526140a281614066565b9050919050565b7f506f7274666f6c696f206973206e6f74206f70656e20666f72206d616e61676560008201527f7220746f207061792074686520616d6f756e7400000000000000000000000000602082015250565b600061410560338361320f565b9150614110826140a9565b604082019050919050565b60006020820190508181036000830152614134816140f8565b9050919050565b7f416d6f756e742073686f756c6420626520657175616c20746f2074686520746f60008201527f74616c2066756e64730000000000000000000000000000000000000000000000602082015250565b600061419760298361320f565b91506141a28261413b565b604082019050919050565b600060208201905081810360008301526141c68161418a565b9050919050565b7f546f74616c2066756e64732073686f756c64206265206772656174657220746860008201527f616e203000000000000000000000000000000000000000000000000000000000602082015250565b600061422960248361320f565b9150614234826141cd565b604082019050919050565b600060208201905081810360008301526142588161421c565b9050919050565b60008190508160005260206000209050919050565b60006020601f8301049050919050565b600082821b905092915050565b6000600883026142c17fffffffffffffffffffffffffffffffffffffffffffffffffffffffffffffffff82614284565b6142cb8683614284565b95508019841693508086168417925050509392505050565b6000819050919050565b60006143086143036142fe84613054565b6142e3565b613054565b9050919050565b6000819050919050565b614322836142ed565b61433661432e8261430f565b848454614291565b825550505050565b600090565b61434b61433e565b614356818484614319565b505050565b5b8181101561437a5761436f600082614343565b60018101905061435c565b5050565b601f8211156143bf576143908161425f565b61439984614274565b810160208510156143a8578190505b6143bc6143b485614274565b83018261435b565b50505b505050565b600082821c905092915050565b60006143e2600019846008026143c4565b1980831691505092915050565b60006143fb83836143d1565b9150826002028217905092915050565b61441482613204565b67ffffffffffffffff81111561442d5761442c61350c565b5b6144378254613e36565b61444282828561437e565b600060209050601f8311600181146144755760008415614463578287015190505b61446d85826143ef565b8655506144d5565b601f1984166144838661425f565b60005b828110156144ab57848901518255600182019150602085019450602081019050614486565b868310156144c857848901516144c4601f8916826143d1565b8355505b6001600288020188555050505b505050505050565b7f4f6e6c7920746865206d616e616765722063616e206368616e6765207468652060008201527f746f74616c2066756e6473000000000000000000000000000000000000000000602082015250565b6000614539602b8361320f565b9150614544826144dd565b604082019050919050565b600060208201905081810360008301526145688161452c565b9050919050565b7f4e657720746f74616c2066756e64732073686f756c642062652067726561746560008201527f72207468616e207468652070726576696f7573206f6e65000000000000000000602082015250565b60006145cb60378361320f565b91506145d68261456f565b604082019050919050565b600060208201905081810360008301526145fa816145be565b905091905056fea2646970667358221220dd0f4199d9b4d6caafd627cb22f74c507119ea681b50d35c76677664ff2ec92764736f6c63430008140033",
  "linkReferences": {},
  "deployedLinkReferences": {}
}