{
  "_format": "hh-sol-artifact-1",
  "contractName": "Platform",
  "sourceName": "contracts/Platform.sol",
  "abi": [
    {
      "inputs": [],
      "stateMutability": "nonpayable",
      "type": "constructor"
    },
    {
      "inputs": [
        {
          "internalType": "uint256",
          "name": "_id",
          "type": "uint256"
        },
        {
          "internalType": "uint256",
          "name": "_increasedPercentage",
          "type": "uint256"
        }
      ],
      "name": "changeMaxReturn",
      "outputs": [],
      "stateMutability": "payable",
      "type": "function"
    },
    {
      "inputs": [
        {
          "internalType": "uint256",
          "name": "_fee",
          "type": "uint256"
        }
      ],
      "name": "changePlatformFee",
      "outputs": [],
      "stateMutability": "nonpayable",
      "type": "function"
    },
    {
      "inputs": [
        {
          "internalType": "uint256",
          "name": "_id",
          "type": "uint256"
        },
        {
          "internalType": "enum Platform.PortfolioStatus",
          "name": "_state",
          "type": "uint8"
        }
      ],
      "name": "changeState",
      "outputs": [],
      "stateMutability": "nonpayable",
      "type": "function"
    },
    {
      "inputs": [
        {
          "internalType": "uint256",
          "name": "_id",
          "type": "uint256"
        },
        {
          "internalType": "uint256",
          "name": "_totalFunds",
          "type": "uint256"
        }
      ],
      "name": "changeTotalFunds",
      "outputs": [],
      "stateMutability": "nonpayable",
      "type": "function"
    },
    {
      "inputs": [
        {
          "internalType": "uint256",
          "name": "_id",
          "type": "uint256"
        }
      ],
      "name": "closePortfolio",
      "outputs": [],
      "stateMutability": "nonpayable",
      "type": "function"
    },
    {
      "inputs": [
        {
          "internalType": "string",
          "name": "_name",
          "type": "string"
        },
        {
          "internalType": "uint256",
          "name": "_minAmount",
          "type": "uint256"
        },
        {
          "internalType": "uint256",
          "name": "_totalFunds",
          "type": "uint256"
        },
        {
          "internalType": "uint256",
          "name": "_maxReturn",
          "type": "uint256"
        },
        {
          "internalType": "uint256",
          "name": "_feePercent",
          "type": "uint256"
        }
      ],
      "name": "createPortfolio",
      "outputs": [],
      "stateMutability": "nonpayable",
      "type": "function"
    },
    {
      "inputs": [
        {
          "internalType": "uint256",
          "name": "_id",
          "type": "uint256"
        }
      ],
      "name": "endPortfolio",
      "outputs": [],
      "stateMutability": "nonpayable",
      "type": "function"
    },
    {
      "inputs": [],
      "name": "getOwner",
      "outputs": [
        {
          "internalType": "address",
          "name": "",
          "type": "address"
        }
      ],
      "stateMutability": "view",
      "type": "function"
    },
    {
      "inputs": [
        {
          "internalType": "uint256",
          "name": "id",
          "type": "uint256"
        }
      ],
      "name": "getReturns",
      "outputs": [
        {
          "internalType": "uint256",
          "name": "",
          "type": "uint256"
        }
      ],
      "stateMutability": "view",
      "type": "function"
    },
    {
      "inputs": [
        {
          "internalType": "uint256",
          "name": "_portfolioId",
          "type": "uint256"
        }
      ],
      "name": "invest",
      "outputs": [],
      "stateMutability": "payable",
      "type": "function"
    },
    {
      "inputs": [
        {
          "internalType": "uint256",
          "name": "_id",
          "type": "uint256"
        }
      ],
      "name": "markDeadlineApproached",
      "outputs": [],
      "stateMutability": "nonpayable",
      "type": "function"
    },
    {
      "inputs": [],
      "name": "owner",
      "outputs": [
        {
          "internalType": "address",
          "name": "",
          "type": "address"
        }
      ],
      "stateMutability": "view",
      "type": "function"
    },
    {
      "inputs": [
        {
          "internalType": "uint256",
          "name": "_id",
          "type": "uint256"
        }
      ],
      "name": "payAmount",
      "outputs": [],
      "stateMutability": "payable",
      "type": "function"
    },
    {
      "inputs": [],
      "name": "platformFee",
      "outputs": [
        {
          "internalType": "uint256",
          "name": "",
          "type": "uint256"
        }
      ],
      "stateMutability": "view",
      "type": "function"
    },
    {
      "inputs": [
        {
          "internalType": "uint256",
          "name": "",
          "type": "uint256"
        },
        {
          "internalType": "address",
          "name": "",
          "type": "address"
        }
      ],
      "name": "portfolioInvestors",
      "outputs": [
        {
          "internalType": "uint256",
          "name": "",
          "type": "uint256"
        }
      ],
      "stateMutability": "view",
      "type": "function"
    },
    {
      "inputs": [
        {
          "internalType": "uint256",
          "name": "",
          "type": "uint256"
        }
      ],
      "name": "portfolioReturns",
      "outputs": [
        {
          "internalType": "uint256",
          "name": "",
          "type": "uint256"
        }
      ],
      "stateMutability": "view",
      "type": "function"
    },
    {
      "inputs": [
        {
          "internalType": "uint256",
          "name": "",
          "type": "uint256"
        }
      ],
      "name": "portfolios",
      "outputs": [
        {
          "internalType": "address",
          "name": "manager",
          "type": "address"
        },
        {
          "internalType": "bool",
          "name": "isOpen",
          "type": "bool"
        },
        {
          "internalType": "bool",
          "name": "isPaid",
          "type": "bool"
        },
        {
          "internalType": "bool",
          "name": "deadlineApproached",
          "type": "bool"
        },
        {
          "internalType": "uint256",
          "name": "id",
          "type": "uint256"
        },
        {
          "internalType": "string",
          "name": "name",
          "type": "string"
        },
        {
          "internalType": "uint256",
          "name": "minAmount",
          "type": "uint256"
        },
        {
          "internalType": "uint256",
          "name": "totalFunds",
          "type": "uint256"
        },
        {
          "internalType": "uint256",
          "name": "maxReturn",
          "type": "uint256"
        },
        {
          "internalType": "uint256",
          "name": "amountCollected",
          "type": "uint256"
        },
        {
          "internalType": "uint256",
          "name": "feePercent",
          "type": "uint256"
        },
        {
          "internalType": "enum Platform.PortfolioStatus",
          "name": "status",
          "type": "uint8"
        }
      ],
      "stateMutability": "view",
      "type": "function"
    },
    {
      "inputs": [
        {
          "internalType": "uint256",
          "name": "id",
          "type": "uint256"
        },
        {
          "internalType": "uint256",
          "name": "_amount",
          "type": "uint256"
        }
      ],
      "name": "setReturns",
      "outputs": [],
      "stateMutability": "nonpayable",
      "type": "function"
    },
    {
      "inputs": [
        {
          "internalType": "uint256",
          "name": "_id",
          "type": "uint256"
        }
      ],
      "name": "terminatePortfolio",
      "outputs": [],
      "stateMutability": "nonpayable",
      "type": "function"
    },
    {
      "inputs": [
        {
          "internalType": "uint256",
          "name": "_portfolioId",
          "type": "uint256"
        },
        {
          "internalType": "uint256",
          "name": "amount",
          "type": "uint256"
        }
      ],
      "name": "withdraw",
      "outputs": [],
      "stateMutability": "nonpayable",
      "type": "function"
    },
    {
      "inputs": [],
      "name": "withdrawFee",
      "outputs": [
        {
          "internalType": "uint256",
          "name": "",
          "type": "uint256"
        }
      ],
      "stateMutability": "view",
      "type": "function"
    }
  ],
  "bytecode": "0x6080604052662386f26fc10000600055661550f7dca7000060015534801561002657600080fd5b5033600560006101000a81548173ffffffffffffffffffffffffffffffffffffffff021916908373ffffffffffffffffffffffffffffffffffffffff160217905550613e2e806100776000396000f3fe60806040526004361061012a5760003560e01c80635f936256116100ab5780638da5cb5b1161006f5780638da5cb5b146103ba578063b23ca704146103e5578063d27eee7714610422578063d7a5791a1461044b578063e941fa7814610474578063fd36c3d01461049f5761012a565b80635f936256146102f8578063693afcd9146103145780636e6306491461033d5780637ff7330114610366578063893d20e81461038f5761012a565b80632b5d3ddc116100f25780632b5d3ddc146102195780633321051b14610242578063367ca9141461025e578063441a3e70146102a65780634c5b20f3146102cf5761012a565b806302f6fa991461012f5780630cfe595514610158578063154021161461019557806326232a2e146101d25780632afcf480146101fd575b600080fd5b34801561013b57600080fd5b5061015660048036038101906101519190612a4d565b6104c8565b005b34801561016457600080fd5b5061017f600480360381019061017a9190612ad8565b6105e7565b60405161018c9190612b27565b60405180910390f35b3480156101a157600080fd5b506101bc60048036038101906101b79190612a4d565b61060c565b6040516101c99190612b27565b60405180910390f35b3480156101de57600080fd5b506101e7610624565b6040516101f49190612b27565b60405180910390f35b61021760048036038101906102129190612a4d565b61062a565b005b34801561022557600080fd5b50610240600480360381019061023b9190612a4d565b6108f1565b005b61025c60048036038101906102579190612b42565b610f88565b005b34801561026a57600080fd5b5061028560048036038101906102809190612a4d565b61119e565b60405161029d9c9b9a99989796959493929190612cb3565b60405180910390f35b3480156102b257600080fd5b506102cd60048036038101906102c89190612b42565b6112ea565b005b3480156102db57600080fd5b506102f660048036038101906102f19190612a4d565b6118f1565b005b610312600480360381019061030d9190612a4d565b611d94565b005b34801561032057600080fd5b5061033b60048036038101906103369190612a4d565b612094565b005b34801561034957600080fd5b50610364600480360381019061035f9190612d99565b6121e3565b005b34801561037257600080fd5b5061038d60048036038101906103889190612f0e565b6122c4565b005b34801561039b57600080fd5b506103a461255f565b6040516103b19190612fa5565b60405180910390f35b3480156103c657600080fd5b506103cf612589565b6040516103dc9190612fa5565b60405180910390f35b3480156103f157600080fd5b5061040c60048036038101906104079190612a4d565b6125af565b6040516104199190612b27565b60405180910390f35b34801561042e57600080fd5b5061044960048036038101906104449190612b42565b6125cc565b005b34801561045757600080fd5b50610472600480360381019061046d9190612a4d565b612678565b005b34801561048057600080fd5b50610489612712565b6040516104969190612b27565b60405180910390f35b3480156104ab57600080fd5b506104c660048036038101906104c19190612b42565b612718565b005b600560009054906101000a900473ffffffffffffffffffffffffffffffffffffffff1673ffffffffffffffffffffffffffffffffffffffff163373ffffffffffffffffffffffffffffffffffffffff1614610558576040517f08c379a000000000000000000000000000000000000000000000000000000000815260040161054f90613032565b60405180910390fd5b60006002828154811061056e5761056d613052565b5b90600052602060002090600a020160000160146101000a81548160ff0219169083151502179055506001600282815481106105ac576105ab613052565b5b90600052602060002090600a020160080160006101000a81548160ff021916908360028111156105df576105de612c3c565b5b021790555050565b6004602052816000526040600020602052806000526040600020600091509150505481565b60036020528060005260406000206000915090505481565b60005481565b806000600281111561063f5761063e612c3c565b5b6002828154811061065357610652613052565b5b90600052602060002090600a020160080160009054906101000a900460ff16600281111561068457610683612c3c565b5b146106c4576040517f08c379a00000000000000000000000000000000000000000000000000000000081526004016106bb906130cd565b60405180910390fd5b600282815481106106d8576106d7613052565b5b90600052602060002090600a02016003015434101561072c576040517f08c379a00000000000000000000000000000000000000000000000000000000081526004016107239061315f565b60405180910390fd5b600282815481106107405761073f613052565b5b90600052602060002090600a0201600401546002838154811061076657610765613052565b5b90600052602060002090600a0201600601543461078391906131ae565b11156107c4576040517f08c379a00000000000000000000000000000000000000000000000000000000081526004016107bb90613254565b60405180910390fd5b34600283815481106107d9576107d8613052565b5b90600052602060002090600a020160060160008282546107f991906131ae565b92505081905550346004600084815260200190815260200160002060003373ffffffffffffffffffffffffffffffffffffffff1673ffffffffffffffffffffffffffffffffffffffff168152602001908152602001600020600082825461086091906131ae565b925050819055506002828154811061087b5761087a613052565b5b90600052602060002090600a0201600901339080600181540180825580915050600190039060005260206000200160009091909190916101000a81548173ffffffffffffffffffffffffffffffffffffffff021916908373ffffffffffffffffffffffffffffffffffffffff1602179055505050565b8060028081111561090557610904612c3c565b5b6002828154811061091957610918613052565b5b90600052602060002090600a020160080160009054906101000a900460ff16600281111561094a57610949612c3c565b5b1461098a576040517f08c379a0000000000000000000000000000000000000000000000000000000008152600401610981906132c0565b60405180910390fd5b3373ffffffffffffffffffffffffffffffffffffffff16600283815481106109b5576109b4613052565b5b90600052602060002090600a020160000160009054906101000a900473ffffffffffffffffffffffffffffffffffffffff1673ffffffffffffffffffffffffffffffffffffffff161480610a38575060028281548110610a1857610a17613052565b5b90600052602060002090600a020160000160169054906101000a900460ff165b610a77576040517f08c379a0000000000000000000000000000000000000000000000000000000008152600401610a6e90613378565b60405180910390fd5b600060028381548110610a8d57610a8c613052565b5b90600052602060002090600a0201600701549050600060028481548110610ab757610ab6613052565b5b90600052602060002090600a0201600901805490509050600060028581548110610ae457610ae3613052565b5b90600052602060002090600a0201600601549050600060028681548110610b0e57610b0d613052565b5b90600052602060002090600a020160000160009054906101000a900473ffffffffffffffffffffffffffffffffffffffff1690506000600360008881526020019081526020016000205490506000670de0b6b3a76400008685610b719190613398565b610b7b9190613409565b90508273ffffffffffffffffffffffffffffffffffffffff166108fc829081150290604051600060405180830381858888f19350505050158015610bc3573d6000803e3d6000fd5b506000670de0b6b3a764000060005486610bdd9190613398565b610be79190613409565b9050600560009054906101000a900473ffffffffffffffffffffffffffffffffffffffff1673ffffffffffffffffffffffffffffffffffffffff166108fc829081150290604051600060405180830381858888f19350505050158015610c51573d6000803e3d6000fd5b5060005b86811015610de657600060028b81548110610c7357610c72613052565b5b90600052602060002090600a02016009018281548110610c9657610c95613052565b5b9060005260206000200160009054906101000a900473ffffffffffffffffffffffffffffffffffffffff1690506000600460008d815260200190815260200160002060008373ffffffffffffffffffffffffffffffffffffffff1673ffffffffffffffffffffffffffffffffffffffff1681526020019081526020016000205490506000811115610dd9576000670de0b6b3a76400008783610d389190613398565b60005484610d469190613398565b8d85610d529190613398565b670de0b6b3a764000086610d669190613398565b610d70919061343a565b610d7a919061343a565b610d8491906131ae565b610d8e9190613409565b90508273ffffffffffffffffffffffffffffffffffffffff166108fc829081150290604051600060405180830381858888f19350505050158015610dd6573d6000803e3d6000fd5b50505b8260010192505050610c55565b50600060028a81548110610dfd57610dfc613052565b5b90600052602060002090600a020160050154905083811115610e90576000670de0b6b3a76400008583610e30919061343a565b88610e3b9190613398565b610e459190613409565b90508573ffffffffffffffffffffffffffffffffffffffff166108fc829081150290604051600060405180830381858888f19350505050158015610e8d573d6000803e3d6000fd5b50505b60028a81548110610ea457610ea3613052565b5b90600052602060002090600a0201600080820160006101000a81549073ffffffffffffffffffffffffffffffffffffffff02191690556000820160146101000a81549060ff02191690556000820160156101000a81549060ff02191690556000820160166101000a81549060ff02191690556001820160009055600282016000610f2e91906128fb565b600382016000905560048201600090556005820160009055600682016000905560078201600090556008820160006101000a81549060ff0219169055600982016000610f7a919061293b565b505050505050505050505050565b6001151560028381548110610fa057610f9f613052565b5b90600052602060002090600a020160000160159054906101000a900460ff16151514611001576040517f08c379a0000000000000000000000000000000000000000000000000000000008152600401610ff8906134ba565b60405180910390fd5b3373ffffffffffffffffffffffffffffffffffffffff166002838154811061102c5761102b613052565b5b90600052602060002090600a020160000160009054906101000a900473ffffffffffffffffffffffffffffffffffffffff1673ffffffffffffffffffffffffffffffffffffffff16146110b4576040517f08c379a00000000000000000000000000000000000000000000000000000000081526004016110ab9061354c565b60405180910390fd5b6000670de0b6b3a764000082600285815481106110d4576110d3613052565b5b90600052602060002090600a0201600401546110f09190613398565b6110fa9190613409565b90508034101561113f576040517f08c379a0000000000000000000000000000000000000000000000000000000008152600401611136906135de565b60405180910390fd5b6002838154811061115357611152613052565b5b90600052602060002090600a0201600501548261117091906131ae565b6002848154811061118457611183613052565b5b90600052602060002090600a020160050181905550505050565b600281815481106111ae57600080fd5b90600052602060002090600a02016000915090508060000160009054906101000a900473ffffffffffffffffffffffffffffffffffffffff16908060000160149054906101000a900460ff16908060000160159054906101000a900460ff16908060000160169054906101000a900460ff16908060010154908060020180546112369061362d565b80601f01602080910402602001604051908101604052809291908181526020018280546112629061362d565b80156112af5780601f10611284576101008083540402835291602001916112af565b820191906000526020600020905b81548152906001019060200180831161129257829003601f168201915b5050505050908060030154908060040154908060050154908060060154908060070154908060080160009054906101000a900460ff1690508c565b6000811161132d576040517f08c379a0000000000000000000000000000000000000000000000000000000008152600401611324906136aa565b60405180910390fd5b6004600083815260200190815260200160002060003373ffffffffffffffffffffffffffffffffffffffff1673ffffffffffffffffffffffffffffffffffffffff168152602001908152602001600020548111156113c0576040517f08c379a00000000000000000000000000000000000000000000000000000000081526004016113b79061373c565b60405180910390fd5b600160028111156113d4576113d3612c3c565b5b600283815481106113e8576113e7613052565b5b90600052602060002090600a020160080160009054906101000a900460ff16600281111561141957611418612c3c565b5b03611459576040517f08c379a0000000000000000000000000000000000000000000000000000000008152600401611450906137a8565b60405180910390fd5b6000600281111561146d5761146c612c3c565b5b6002838154811061148157611480613052565b5b90600052602060002090600a020160080160009054906101000a900460ff1660028111156114b2576114b1612c3c565b5b03611646576000670de0b6b3a7640000600154836114d09190613398565b6114da9190613409565b9050600560009054906101000a900473ffffffffffffffffffffffffffffffffffffffff1673ffffffffffffffffffffffffffffffffffffffff166108fc829081150290604051600060405180830381858888f19350505050158015611544573d6000803e3d6000fd5b5060008183611553919061343a565b9050826004600086815260200190815260200160002060003373ffffffffffffffffffffffffffffffffffffffff1673ffffffffffffffffffffffffffffffffffffffff16815260200190815260200160002060008282546115b5919061343a565b9250508190555082600285815481106115d1576115d0613052565b5b90600052602060002090600a020160060160008282546115f1919061343a565b925050819055503373ffffffffffffffffffffffffffffffffffffffff166108fc829081150290604051600060405180830381858888f1935050505015801561163e573d6000803e3d6000fd5b5050506118ed565b6000670de0b6b3a76400006000548361165f9190613398565b6116699190613409565b90506000670de0b6b3a76400006002858154811061168a57611689613052565b5b90600052602060002090600a020160070154846116a79190613398565b6116b19190613409565b9050600560009054906101000a900473ffffffffffffffffffffffffffffffffffffffff1673ffffffffffffffffffffffffffffffffffffffff166108fc839081150290604051600060405180830381858888f1935050505015801561171b573d6000803e3d6000fd5b50600284815481106117305761172f613052565b5b90600052602060002090600a020160000160009054906101000a900473ffffffffffffffffffffffffffffffffffffffff1673ffffffffffffffffffffffffffffffffffffffff166108fc829081150290604051600060405180830381858888f193505050501580156117a7573d6000803e3d6000fd5b506000670de0b6b3a76400006003600087815260200190815260200160002054856117d29190613398565b6117dc9190613409565b8284866117e9919061343a565b6117f3919061343a565b6117fd91906131ae565b9050836004600087815260200190815260200160002060003373ffffffffffffffffffffffffffffffffffffffff1673ffffffffffffffffffffffffffffffffffffffff168152602001908152602001600020600082825461185f919061343a565b92505081905550836002868154811061187b5761187a613052565b5b90600052602060002090600a0201600601600082825461189b919061343a565b925050819055503373ffffffffffffffffffffffffffffffffffffffff166108fc829081150290604051600060405180830381858888f193505050501580156118e8573d6000803e3d6000fd5b505050505b5050565b600560009054906101000a900473ffffffffffffffffffffffffffffffffffffffff1673ffffffffffffffffffffffffffffffffffffffff163373ffffffffffffffffffffffffffffffffffffffff1614611981576040517f08c379a000000000000000000000000000000000000000000000000000000000815260040161197890613032565b60405180910390fd5b60028081111561199457611993612c3c565b5b600282815481106119a8576119a7613052565b5b90600052602060002090600a020160080160009054906101000a900460ff1660028111156119d9576119d8612c3c565b5b14611a19576040517f08c379a0000000000000000000000000000000000000000000000000000000008152600401611a1090613814565b60405180910390fd5b6000670de0b6b3a764000060005460028481548110611a3b57611a3a613052565b5b90600052602060002090600a020160060154611a579190613398565b611a619190613409565b9050600560009054906101000a900473ffffffffffffffffffffffffffffffffffffffff1673ffffffffffffffffffffffffffffffffffffffff166108fc829081150290604051600060405180830381858888f19350505050158015611acb573d6000803e3d6000fd5b50600060028381548110611ae257611ae1613052565b5b90600052602060002090600a0201600501549050600060028481548110611b0c57611b0b613052565b5b90600052602060002090600a020160090180549050905060005b81811015611ca157600060028681548110611b4457611b43613052565b5b90600052602060002090600a02016009018281548110611b6757611b66613052565b5b9060005260206000200160009054906101000a900473ffffffffffffffffffffffffffffffffffffffff16905060006004600088815260200190815260200160002060008373ffffffffffffffffffffffffffffffffffffffff1673ffffffffffffffffffffffffffffffffffffffff1681526020019081526020016000205490506000811115611c94576000670de0b6b3a76400008683611c099190613398565b60005484611c179190613398565b670de0b6b3a764000085611c2b9190613398565b611c35919061343a565b611c3f91906131ae565b611c499190613409565b90508273ffffffffffffffffffffffffffffffffffffffff166108fc829081150290604051600060405180830381858888f19350505050158015611c91573d6000803e3d6000fd5b50505b8260010192505050611b26565b5060028481548110611cb657611cb5613052565b5b90600052602060002090600a0201600080820160006101000a81549073ffffffffffffffffffffffffffffffffffffffff02191690556000820160146101000a81549060ff02191690556000820160156101000a81549060ff02191690556000820160166101000a81549060ff02191690556001820160009055600282016000611d4091906128fb565b600382016000905560048201600090556005820160009055600682016000905560078201600090556008820160006101000a81549060ff0219169055600982016000611d8c919061293b565b505050505050565b803373ffffffffffffffffffffffffffffffffffffffff1660028281548110611dc057611dbf613052565b5b90600052602060002090600a020160000160009054906101000a900473ffffffffffffffffffffffffffffffffffffffff1673ffffffffffffffffffffffffffffffffffffffff1614611e48576040517f08c379a0000000000000000000000000000000000000000000000000000000008152600401611e3f9061354c565b60405180910390fd5b60028181548110611e5c57611e5b613052565b5b90600052602060002090600a020160000160159054906101000a900460ff1615611ebb576040517f08c379a0000000000000000000000000000000000000000000000000000000008152600401611eb290613880565b60405180910390fd5b60016002811115611ecf57611ece612c3c565b5b60028281548110611ee357611ee2613052565b5b90600052602060002090600a020160080160009054906101000a900460ff166002811115611f1457611f13612c3c565b5b14611f54576040517f08c379a0000000000000000000000000000000000000000000000000000000008152600401611f4b90613912565b60405180910390fd5b6000670de0b6b3a764000060028481548110611f7357611f72613052565b5b90600052602060002090600a02016005015460028581548110611f9957611f98613052565b5b90600052602060002090600a020160060154611fb59190613398565b611fbf9190613409565b905080341015612004576040517f08c379a0000000000000000000000000000000000000000000000000000000008152600401611ffb906139a4565b60405180910390fd5b60016002848154811061201a57612019613052565b5b90600052602060002090600a020160000160156101000a81548160ff021916908315150217905550600280848154811061205757612056613052565b5b90600052602060002090600a020160080160006101000a81548160ff0219169083600281111561208a57612089612c3c565b5b0217905550505050565b600560009054906101000a900473ffffffffffffffffffffffffffffffffffffffff1673ffffffffffffffffffffffffffffffffffffffff163373ffffffffffffffffffffffffffffffffffffffff1614612124576040517f08c379a000000000000000000000000000000000000000000000000000000000815260040161211b90613032565b60405180910390fd5b60016002828154811061213a57612139613052565b5b90600052602060002090600a020160000160166101000a81548160ff0219169083151502179055506002818154811061217657612175613052565b5b90600052602060002090600a020160050154600360008381526020019081526020016000205411156121e057600281815481106121b6576121b5613052565b5b90600052602060002090600a02016005015460036000838152602001908152602001600020819055505b50565b600560009054906101000a900473ffffffffffffffffffffffffffffffffffffffff1673ffffffffffffffffffffffffffffffffffffffff163373ffffffffffffffffffffffffffffffffffffffff1614612273576040517f08c379a000000000000000000000000000000000000000000000000000000000815260040161226a90613032565b60405180910390fd5b806002838154811061228857612287613052565b5b90600052602060002090600a020160080160006101000a81548160ff021916908360028111156122bb576122ba612c3c565b5b02179055505050565b60008311612307576040517f08c379a00000000000000000000000000000000000000000000000000000000081526004016122fe90613a36565b60405180910390fd5b6002604051806101a001604052803373ffffffffffffffffffffffffffffffffffffffff168152602001600115158152602001600015158152602001600015158152602001600280549050815260200187815260200186815260200185815260200184815260200160008152602001838152602001600060028111156123905761238f612c3c565b5b8152602001600067ffffffffffffffff8111156123b0576123af612de3565b5b6040519080825280602002602001820160405280156123de5781602001602082028036833780820191505090505b5081525090806001815401808255809150506001900390600052602060002090600a020160009091909190915060008201518160000160006101000a81548173ffffffffffffffffffffffffffffffffffffffff021916908373ffffffffffffffffffffffffffffffffffffffff16021790555060208201518160000160146101000a81548160ff02191690831515021790555060408201518160000160156101000a81548160ff02191690831515021790555060608201518160000160166101000a81548160ff0219169083151502179055506080820151816001015560a08201518160020190816124d19190613c02565b5060c0820151816003015560e082015181600401556101008201518160050155610120820151816006015561014082015181600701556101608201518160080160006101000a81548160ff0219169083600281111561253357612532612c3c565b5b021790555061018082015181600901908051906020019061255592919061295c565b5050505050505050565b6000600560009054906101000a900473ffffffffffffffffffffffffffffffffffffffff16905090565b600560009054906101000a900473ffffffffffffffffffffffffffffffffffffffff1681565b600060036000838152602001908152602001600020549050919050565b600560009054906101000a900473ffffffffffffffffffffffffffffffffffffffff1673ffffffffffffffffffffffffffffffffffffffff163373ffffffffffffffffffffffffffffffffffffffff161461265c576040517f08c379a000000000000000000000000000000000000000000000000000000000815260040161265390613032565b60405180910390fd5b8060036000848152602001908152602001600020819055505050565b600560009054906101000a900473ffffffffffffffffffffffffffffffffffffffff1673ffffffffffffffffffffffffffffffffffffffff163373ffffffffffffffffffffffffffffffffffffffff1614612708576040517f08c379a00000000000000000000000000000000000000000000000000000000081526004016126ff90613032565b60405180910390fd5b8060008190555050565b60015481565b816000600281111561272d5761272c612c3c565b5b6002828154811061274157612740613052565b5b90600052602060002090600a020160080160009054906101000a900460ff16600281111561277257612771612c3c565b5b146127b2576040517f08c379a00000000000000000000000000000000000000000000000000000000081526004016127a9906130cd565b60405180910390fd5b3373ffffffffffffffffffffffffffffffffffffffff16600284815481106127dd576127dc613052565b5b90600052602060002090600a020160000160009054906101000a900473ffffffffffffffffffffffffffffffffffffffff1673ffffffffffffffffffffffffffffffffffffffff1614612865576040517f08c379a000000000000000000000000000000000000000000000000000000000815260040161285c90613d46565b60405180910390fd5b6002838154811061287957612878613052565b5b90600052602060002090600a02016004015482116128cc576040517f08c379a00000000000000000000000000000000000000000000000000000000081526004016128c390613dd8565b60405180910390fd5b81600284815481106128e1576128e0613052565b5b90600052602060002090600a020160040181905550505050565b5080546129079061362d565b6000825580601f106129195750612938565b601f01602090049060005260206000209081019061293791906129e6565b5b50565b508054600082559060005260206000209081019061295991906129e6565b50565b8280548282559060005260206000209081019282156129d5579160200282015b828111156129d45782518260006101000a81548173ffffffffffffffffffffffffffffffffffffffff021916908373ffffffffffffffffffffffffffffffffffffffff1602179055509160200191906001019061297c565b5b5090506129e291906129e6565b5090565b5b808211156129ff5760008160009055506001016129e7565b5090565b6000604051905090565b600080fd5b600080fd5b6000819050919050565b612a2a81612a17565b8114612a3557600080fd5b50565b600081359050612a4781612a21565b92915050565b600060208284031215612a6357612a62612a0d565b5b6000612a7184828501612a38565b91505092915050565b600073ffffffffffffffffffffffffffffffffffffffff82169050919050565b6000612aa582612a7a565b9050919050565b612ab581612a9a565b8114612ac057600080fd5b50565b600081359050612ad281612aac565b92915050565b60008060408385031215612aef57612aee612a0d565b5b6000612afd85828601612a38565b9250506020612b0e85828601612ac3565b9150509250929050565b612b2181612a17565b82525050565b6000602082019050612b3c6000830184612b18565b92915050565b60008060408385031215612b5957612b58612a0d565b5b6000612b6785828601612a38565b9250506020612b7885828601612a38565b9150509250929050565b612b8b81612a9a565b82525050565b60008115159050919050565b612ba681612b91565b82525050565b600081519050919050565b600082825260208201905092915050565b60005b83811015612be6578082015181840152602081019050612bcb565b60008484015250505050565b6000601f19601f8301169050919050565b6000612c0e82612bac565b612c188185612bb7565b9350612c28818560208601612bc8565b612c3181612bf2565b840191505092915050565b7f4e487b7100000000000000000000000000000000000000000000000000000000600052602160045260246000fd5b60038110612c7c57612c7b612c3c565b5b50565b6000819050612c8d82612c6b565b919050565b6000612c9d82612c7f565b9050919050565b612cad81612c92565b82525050565b600061018082019050612cc9600083018f612b82565b612cd6602083018e612b9d565b612ce3604083018d612b9d565b612cf0606083018c612b9d565b612cfd608083018b612b18565b81810360a0830152612d0f818a612c03565b9050612d1e60c0830189612b18565b612d2b60e0830188612b18565b612d39610100830187612b18565b612d47610120830186612b18565b612d55610140830185612b18565b612d63610160830184612ca4565b9d9c50505050505050505050505050565b60038110612d8157600080fd5b50565b600081359050612d9381612d74565b92915050565b60008060408385031215612db057612daf612a0d565b5b6000612dbe85828601612a38565b9250506020612dcf85828601612d84565b9150509250929050565b600080fd5b600080fd5b7f4e487b7100000000000000000000000000000000000000000000000000000000600052604160045260246000fd5b612e1b82612bf2565b810181811067ffffffffffffffff82111715612e3a57612e39612de3565b5b80604052505050565b6000612e4d612a03565b9050612e598282612e12565b919050565b600067ffffffffffffffff821115612e7957612e78612de3565b5b612e8282612bf2565b9050602081019050919050565b82818337600083830152505050565b6000612eb1612eac84612e5e565b612e43565b905082815260208101848484011115612ecd57612ecc612dde565b5b612ed8848285612e8f565b509392505050565b600082601f830112612ef557612ef4612dd9565b5b8135612f05848260208601612e9e565b91505092915050565b600080600080600060a08688031215612f2a57612f29612a0d565b5b600086013567ffffffffffffffff811115612f4857612f47612a12565b5b612f5488828901612ee0565b9550506020612f6588828901612a38565b9450506040612f7688828901612a38565b9350506060612f8788828901612a38565b9250506080612f9888828901612a38565b9150509295509295909350565b6000602082019050612fba6000830184612b82565b92915050565b7f4f6e6c7920746865206f776e65722063616e2063616c6c20746869732066756e60008201527f6374696f6e000000000000000000000000000000000000000000000000000000602082015250565b600061301c602583612bb7565b915061302782612fc0565b604082019050919050565b6000602082019050818103600083015261304b8161300f565b9050919050565b7f4e487b7100000000000000000000000000000000000000000000000000000000600052603260045260246000fd5b7f506f7274666f6c696f206e6f7420696e206f70656e2073746174650000000000600082015250565b60006130b7601b83612bb7565b91506130c282613081565b602082019050919050565b600060208201905081810360008301526130e6816130aa565b9050919050565b7f416d6f756e742073686f756c642062652067726561746572207468616e20746860008201527f65206d696e696d756d20616d6f756e7400000000000000000000000000000000602082015250565b6000613149603083612bb7565b9150613154826130ed565b604082019050919050565b600060208201905081810360008301526131788161313c565b9050919050565b7f4e487b7100000000000000000000000000000000000000000000000000000000600052601160045260246000fd5b60006131b982612a17565b91506131c483612a17565b92508282019050808211156131dc576131db61317f565b5b92915050565b7f416d6f756e742073686f756c64206265206c657373207468616e20746865207460008201527f6f74616c2066756e647300000000000000000000000000000000000000000000602082015250565b600061323e602a83612bb7565b9150613249826131e2565b604082019050919050565b6000602082019050818103600083015261326d81613231565b9050919050565b7f506f7274666f6c696f2061696e277420696e2074726164696e67206d6f646521600082015250565b60006132aa602083612bb7565b91506132b582613274565b602082019050919050565b600060208201905081810360008301526132d98161329d565b9050919050565b7f4f6e6c7920746865206d616e616765722063616e2063616c6c2074686973206660008201527f756e6374696f6e206f722069662074686520646561646c696e6520686173206160208201527f7070726f61636865640000000000000000000000000000000000000000000000604082015250565b6000613362604983612bb7565b915061336d826132e0565b606082019050919050565b6000602082019050818103600083015261339181613355565b9050919050565b60006133a382612a17565b91506133ae83612a17565b92508282026133bc81612a17565b915082820484148315176133d3576133d261317f565b5b5092915050565b7f4e487b7100000000000000000000000000000000000000000000000000000000600052601260045260246000fd5b600061341482612a17565b915061341f83612a17565b92508261342f5761342e6133da565b5b828204905092915050565b600061344582612a17565b915061345083612a17565b92508282039050818111156134685761346761317f565b5b92915050565b7f46697273742070617920796f757220696e697469616c20616d6f756e74000000600082015250565b60006134a4601d83612bb7565b91506134af8261346e565b602082019050919050565b600060208201905081810360008301526134d381613497565b9050919050565b7f4f6e6c7920746865206d616e616765722063616e2063616c6c2074686973206660008201527f756e6374696f6e00000000000000000000000000000000000000000000000000602082015250565b6000613536602783612bb7565b9150613541826134da565b604082019050919050565b6000602082019050818103600083015261356581613529565b9050919050565b7f416d6f756e742073686f756c6420626520657175616c20746f2074686520696e60008201527f6372656173656420616d6f756e74000000000000000000000000000000000000602082015250565b60006135c8602e83612bb7565b91506135d38261356c565b604082019050919050565b600060208201905081810360008301526135f7816135bb565b9050919050565b7f4e487b7100000000000000000000000000000000000000000000000000000000600052602260045260246000fd5b6000600282049050600182168061364557607f821691505b602082108103613658576136576135fe565b5b50919050565b7f416d6f756e742073686f756c642062652067726561746572207468616e203000600082015250565b6000613694601f83612bb7565b915061369f8261365e565b602082019050919050565b600060208201905081810360008301526136c381613687565b9050919050565b7f596f7520646f6e2774206861766520656e6f75676820616d6f756e7420746f2060008201527f7769746864726177000000000000000000000000000000000000000000000000602082015250565b6000613726602883612bb7565b9150613731826136ca565b604082019050919050565b6000602082019050818103600083015261375581613719565b9050919050565b7f596f752063616e2774207769746864726177206e6f7700000000000000000000600082015250565b6000613792601683612bb7565b915061379d8261375c565b602082019050919050565b600060208201905081810360008301526137c181613785565b9050919050565b7f506f7274666f6c696f206973206e6f7420696e20616374696f6e000000000000600082015250565b60006137fe601a83612bb7565b9150613809826137c8565b602082019050919050565b6000602082019050818103600083015261382d816137f1565b9050919050565b7f4d616e616765722068617320706169642074686520616d6f756e740000000000600082015250565b600061386a601b83612bb7565b915061387582613834565b602082019050919050565b600060208201905081810360008301526138998161385d565b9050919050565b7f506f7274666f6c696f206973206e6f74206f70656e20666f72206d616e61676560008201527f7220746f207061792074686520616d6f756e7400000000000000000000000000602082015250565b60006138fc603383612bb7565b9150613907826138a0565b604082019050919050565b6000602082019050818103600083015261392b816138ef565b9050919050565b7f416d6f756e742073686f756c6420626520657175616c20746f2074686520746f60008201527f74616c2066756e64730000000000000000000000000000000000000000000000602082015250565b600061398e602983612bb7565b915061399982613932565b604082019050919050565b600060208201905081810360008301526139bd81613981565b9050919050565b7f546f74616c2066756e64732073686f756c64206265206772656174657220746860008201527f616e203000000000000000000000000000000000000000000000000000000000602082015250565b6000613a20602483612bb7565b9150613a2b826139c4565b604082019050919050565b60006020820190508181036000830152613a4f81613a13565b9050919050565b60008190508160005260206000209050919050565b60006020601f8301049050919050565b600082821b905092915050565b600060088302613ab87fffffffffffffffffffffffffffffffffffffffffffffffffffffffffffffffff82613a7b565b613ac28683613a7b565b95508019841693508086168417925050509392505050565b6000819050919050565b6000613aff613afa613af584612a17565b613ada565b612a17565b9050919050565b6000819050919050565b613b1983613ae4565b613b2d613b2582613b06565b848454613a88565b825550505050565b600090565b613b42613b35565b613b4d818484613b10565b505050565b5b81811015613b7157613b66600082613b3a565b600181019050613b53565b5050565b601f821115613bb657613b8781613a56565b613b9084613a6b565b81016020851015613b9f578190505b613bb3613bab85613a6b565b830182613b52565b50505b505050565b600082821c905092915050565b6000613bd960001984600802613bbb565b1980831691505092915050565b6000613bf28383613bc8565b9150826002028217905092915050565b613c0b82612bac565b67ffffffffffffffff811115613c2457613c23612de3565b5b613c2e825461362d565b613c39828285613b75565b600060209050601f831160018114613c6c5760008415613c5a578287015190505b613c648582613be6565b865550613ccc565b601f198416613c7a86613a56565b60005b82811015613ca257848901518255600182019150602085019450602081019050613c7d565b86831015613cbf5784890151613cbb601f891682613bc8565b8355505b6001600288020188555050505b505050505050565b7f4f6e6c7920746865206d616e616765722063616e206368616e6765207468652060008201527f746f74616c2066756e6473000000000000000000000000000000000000000000602082015250565b6000613d30602b83612bb7565b9150613d3b82613cd4565b604082019050919050565b60006020820190508181036000830152613d5f81613d23565b9050919050565b7f4e657720746f74616c2066756e64732073686f756c642062652067726561746560008201527f72207468616e207468652070726576696f7573206f6e65000000000000000000602082015250565b6000613dc2603783612bb7565b9150613dcd82613d66565b604082019050919050565b60006020820190508181036000830152613df181613db5565b905091905056fea26469706673582212206b8f1873b5055a1523821b09a78d15bf6bb448765ebc5f717b4b05a9850e16c964736f6c63430008140033",
  "linkReferences": {},
  "deployedLinkReferences": {}
}