{
  "_format": "hh-sol-artifact-1",
  "contractName": "Platform",
  "sourceName": "contracts/Platform.sol",
  "abi": [
    {
      "inputs": [],
      "stateMutability": "nonpayable",
      "type": "constructor"
    },
    {
      "inputs": [
        {
          "internalType": "uint256",
          "name": "_id",
          "type": "uint256"
        },
        {
          "internalType": "uint256",
          "name": "_increasedPercentage",
          "type": "uint256"
        }
      ],
      "name": "changeMaxReturn",
      "outputs": [],
      "stateMutability": "payable",
      "type": "function"
    },
    {
      "inputs": [
        {
          "internalType": "uint256",
          "name": "_fee",
          "type": "uint256"
        }
      ],
      "name": "changePlatformFee",
      "outputs": [],
      "stateMutability": "nonpayable",
      "type": "function"
    },
    {
      "inputs": [
        {
          "internalType": "uint256",
          "name": "_id",
          "type": "uint256"
        },
        {
          "internalType": "enum Platform.PortfolioStatus",
          "name": "_state",
          "type": "uint8"
        }
      ],
      "name": "changeState",
      "outputs": [],
      "stateMutability": "nonpayable",
      "type": "function"
    },
    {
      "inputs": [
        {
          "internalType": "uint256",
          "name": "_id",
          "type": "uint256"
        },
        {
          "internalType": "uint256",
          "name": "_totalFunds",
          "type": "uint256"
        }
      ],
      "name": "changeTotalFunds",
      "outputs": [],
      "stateMutability": "nonpayable",
      "type": "function"
    },
    {
      "inputs": [
        {
          "internalType": "uint256",
          "name": "_id",
          "type": "uint256"
        }
      ],
      "name": "closePortfolio",
      "outputs": [],
      "stateMutability": "nonpayable",
      "type": "function"
    },
    {
      "inputs": [
        {
          "internalType": "string",
          "name": "_name",
          "type": "string"
        },
        {
          "internalType": "uint256",
          "name": "_minAmount",
          "type": "uint256"
        },
        {
          "internalType": "uint256",
          "name": "_totalFunds",
          "type": "uint256"
        },
        {
          "internalType": "uint256",
          "name": "_maxReturn",
          "type": "uint256"
        },
        {
          "internalType": "uint256",
          "name": "_feePercent",
          "type": "uint256"
        }
      ],
      "name": "createPortfolio",
      "outputs": [],
      "stateMutability": "nonpayable",
      "type": "function"
    },
    {
      "inputs": [
        {
          "internalType": "uint256",
          "name": "_id",
          "type": "uint256"
        }
      ],
      "name": "endPortfolio",
      "outputs": [],
      "stateMutability": "nonpayable",
      "type": "function"
    },
    {
      "inputs": [
        {
          "internalType": "address",
          "name": "_to",
          "type": "address"
        }
      ],
      "name": "getPortfolioIds",
      "outputs": [
        {
          "internalType": "uint256[]",
          "name": "",
          "type": "uint256[]"
        }
      ],
      "stateMutability": "view",
      "type": "function"
    },
    {
      "inputs": [
        {
          "internalType": "uint256",
          "name": "_id",
          "type": "uint256"
        }
      ],
      "name": "getPortfolioMajorDetails",
      "outputs": [
        {
          "internalType": "string",
          "name": "",
          "type": "string"
        },
        {
          "internalType": "uint256",
          "name": "",
          "type": "uint256"
        },
        {
          "internalType": "uint256",
          "name": "",
          "type": "uint256"
        },
        {
          "internalType": "uint256",
          "name": "",
          "type": "uint256"
        },
        {
          "internalType": "uint256",
          "name": "",
          "type": "uint256"
        },
        {
          "internalType": "uint256",
          "name": "",
          "type": "uint256"
        },
        {
          "internalType": "uint256",
          "name": "",
          "type": "uint256"
        }
      ],
      "stateMutability": "view",
      "type": "function"
    },
    {
      "inputs": [
        {
          "internalType": "uint256",
          "name": "_id",
          "type": "uint256"
        }
      ],
      "name": "getPortfolioManager",
      "outputs": [
        {
          "internalType": "address",
          "name": "",
          "type": "address"
        }
      ],
      "stateMutability": "view",
      "type": "function"
    },
    {
      "inputs": [
        {
          "internalType": "uint256",
          "name": "_id",
          "type": "uint256"
        }
      ],
      "name": "getPortfolioStatus",
      "outputs": [
        {
          "internalType": "enum Platform.PortfolioStatus",
          "name": "",
          "type": "uint8"
        }
      ],
      "stateMutability": "view",
      "type": "function"
    },
    {
      "inputs": [
        {
          "internalType": "uint256",
          "name": "id",
          "type": "uint256"
        }
      ],
      "name": "getReturns",
      "outputs": [
        {
          "internalType": "uint256",
          "name": "",
          "type": "uint256"
        }
      ],
      "stateMutability": "view",
      "type": "function"
    },
    {
      "inputs": [],
      "name": "getallIds",
      "outputs": [
        {
          "internalType": "uint256[]",
          "name": "",
          "type": "uint256[]"
        }
      ],
      "stateMutability": "view",
      "type": "function"
    },
    {
      "inputs": [
        {
          "internalType": "uint256",
          "name": "_id",
          "type": "uint256"
        }
      ],
      "name": "hasDeadlineApproached",
      "outputs": [
        {
          "internalType": "bool",
          "name": "",
          "type": "bool"
        }
      ],
      "stateMutability": "view",
      "type": "function"
    },
    {
      "inputs": [
        {
          "internalType": "uint256",
          "name": "_portfolioId",
          "type": "uint256"
        }
      ],
      "name": "invest",
      "outputs": [],
      "stateMutability": "payable",
      "type": "function"
    },
    {
      "inputs": [
        {
          "internalType": "uint256",
          "name": "_id",
          "type": "uint256"
        }
      ],
      "name": "isPortfolioDeleted",
      "outputs": [
        {
          "internalType": "bool",
          "name": "",
          "type": "bool"
        }
      ],
      "stateMutability": "view",
      "type": "function"
    },
    {
      "inputs": [
        {
          "internalType": "uint256",
          "name": "_id",
          "type": "uint256"
        }
      ],
      "name": "isPortfolioOpen",
      "outputs": [
        {
          "internalType": "bool",
          "name": "",
          "type": "bool"
        }
      ],
      "stateMutability": "view",
      "type": "function"
    },
    {
      "inputs": [
        {
          "internalType": "uint256",
          "name": "_id",
          "type": "uint256"
        }
      ],
      "name": "isPortfolioPaid",
      "outputs": [
        {
          "internalType": "bool",
          "name": "",
          "type": "bool"
        }
      ],
      "stateMutability": "view",
      "type": "function"
    },
    {
      "inputs": [
        {
          "internalType": "uint256",
          "name": "_id",
          "type": "uint256"
        }
      ],
      "name": "markDeadlineApproached",
      "outputs": [],
      "stateMutability": "nonpayable",
      "type": "function"
    },
    {
      "inputs": [],
      "name": "owner",
      "outputs": [
        {
          "internalType": "address",
          "name": "",
          "type": "address"
        }
      ],
      "stateMutability": "view",
      "type": "function"
    },
    {
      "inputs": [
        {
          "internalType": "uint256",
          "name": "_id",
          "type": "uint256"
        }
      ],
      "name": "payAmount",
      "outputs": [],
      "stateMutability": "payable",
      "type": "function"
    },
    {
      "inputs": [],
      "name": "platformFee",
      "outputs": [
        {
          "internalType": "uint256",
          "name": "",
          "type": "uint256"
        }
      ],
      "stateMutability": "view",
      "type": "function"
    },
    {
      "inputs": [
        {
          "internalType": "uint256",
          "name": "id",
          "type": "uint256"
        },
        {
          "internalType": "uint256",
          "name": "_amount",
          "type": "uint256"
        }
      ],
      "name": "setReturns",
      "outputs": [],
      "stateMutability": "nonpayable",
      "type": "function"
    },
    {
      "inputs": [
        {
          "internalType": "uint256",
          "name": "_id",
          "type": "uint256"
        }
      ],
      "name": "terminatePortfolio",
      "outputs": [],
      "stateMutability": "nonpayable",
      "type": "function"
    },
    {
      "inputs": [
        {
          "internalType": "uint256",
          "name": "_portfolioId",
          "type": "uint256"
        },
        {
          "internalType": "uint256",
          "name": "amount",
          "type": "uint256"
        }
      ],
      "name": "withdraw",
      "outputs": [],
      "stateMutability": "nonpayable",
      "type": "function"
    },
    {
      "inputs": [],
      "name": "withdrawFee",
      "outputs": [
        {
          "internalType": "uint256",
          "name": "",
          "type": "uint256"
        }
      ],
      "stateMutability": "view",
      "type": "function"
    }
  ],
  "bytecode": "0x6080604052662386f26fc10000600055661550f7dca7000060015534801561002657600080fd5b5033600760006101000a81548173ffffffffffffffffffffffffffffffffffffffff021916908373ffffffffffffffffffffffffffffffffffffffff1602179055506143ef806100776000396000f3fe6080604052600436106101815760003560e01c80637ff73301116100d1578063b23ca7041161008a578063e941fa7811610064578063e941fa781461057d578063ed6d2800146105a8578063ed8dc217146105e5578063fd36c3d01461062257610181565b8063b23ca704146104ee578063d27eee771461052b578063d7a5791a1461055457610181565b80637ff73301146103b857806387a0a3c6146103e15780638da5cb5b1461040c57806390d36fd2146104375780639ccd8e9e14610474578063b06248c6146104b157610181565b8063441a3e701161013e5780635f936256116101185780635f9362561461030d578063627b43f114610329578063693afcd9146103665780636e6306491461038f57610181565b8063441a3e70146102785780634c5b20f3146102a15780635f08b866146102ca57610181565b806302f6fa991461018657806326232a2e146101af5780632afcf480146101da5780632b5d3ddc146101f65780632f1253a41461021f5780633321051b1461025c575b600080fd5b34801561019257600080fd5b506101ad60048036038101906101a89190612f56565b61064b565b005b3480156101bb57600080fd5b506101c461076a565b6040516101d19190612f92565b60405180910390f35b6101f460048036038101906101ef9190612f56565b610770565b005b34801561020257600080fd5b5061021d60048036038101906102189190612f56565b610a37565b005b34801561022b57600080fd5b5061024660048036038101906102419190612f56565b6110fa565b6040516102539190612fee565b60405180910390f35b61027660048036038101906102719190613009565b611149565b005b34801561028457600080fd5b5061029f600480360381019061029a9190613009565b61135f565b005b3480156102ad57600080fd5b506102c860048036038101906102c39190612f56565b611966565b005b3480156102d657600080fd5b506102f160048036038101906102ec9190612f56565b611e35565b60405161030497969594939291906130d9565b60405180910390f35b61032760048036038101906103229190612f56565b611fee565b005b34801561033557600080fd5b50610350600480360381019061034b9190612f56565b6122ee565b60405161035d919061316a565b60405180910390f35b34801561037257600080fd5b5061038d60048036038101906103889190612f56565b61232a565b005b34801561039b57600080fd5b506103b660048036038101906103b191906131aa565b612479565b005b3480156103c457600080fd5b506103df60048036038101906103da919061331f565b61255a565b005b3480156103ed57600080fd5b506103f6612860565b6040516104039190613474565b60405180910390f35b34801561041857600080fd5b5061042161291d565b60405161042e9190612fee565b60405180910390f35b34801561044357600080fd5b5061045e60048036038101906104599190612f56565b612943565b60405161046b919061316a565b60405180910390f35b34801561048057600080fd5b5061049b60048036038101906104969190612f56565b61297f565b6040516104a8919061316a565b60405180910390f35b3480156104bd57600080fd5b506104d860048036038101906104d39190612f56565b6129bb565b6040516104e5919061316a565b60405180910390f35b3480156104fa57600080fd5b5061051560048036038101906105109190612f56565b6129e5565b6040516105229190612f92565b60405180910390f35b34801561053757600080fd5b50610552600480360381019061054d9190613009565b612a02565b005b34801561056057600080fd5b5061057b60048036038101906105769190612f56565b612aae565b005b34801561058957600080fd5b50610592612b48565b60405161059f9190612f92565b60405180910390f35b3480156105b457600080fd5b506105cf60048036038101906105ca91906134c2565b612b4e565b6040516105dc9190613474565b60405180910390f35b3480156105f157600080fd5b5061060c60048036038101906106079190612f56565b612be5565b6040516106199190613566565b60405180910390f35b34801561062e57600080fd5b5061064960048036038101906106449190613009565b612c21565b005b600760009054906101000a900473ffffffffffffffffffffffffffffffffffffffff1673ffffffffffffffffffffffffffffffffffffffff163373ffffffffffffffffffffffffffffffffffffffff16146106db576040517f08c379a00000000000000000000000000000000000000000000000000000000081526004016106d2906135f3565b60405180910390fd5b6000600282815481106106f1576106f0613613565b5b90600052602060002090600a020160000160146101000a81548160ff02191690831515021790555060016002828154811061072f5761072e613613565b5b90600052602060002090600a020160080160006101000a81548160ff02191690836002811115610762576107616134ef565b5b021790555050565b60005481565b8060006002811115610785576107846134ef565b5b6002828154811061079957610798613613565b5b90600052602060002090600a020160080160009054906101000a900460ff1660028111156107ca576107c96134ef565b5b1461080a576040517f08c379a00000000000000000000000000000000000000000000000000000000081526004016108019061368e565b60405180910390fd5b6002828154811061081e5761081d613613565b5b90600052602060002090600a020160030154341015610872576040517f08c379a000000000000000000000000000000000000000000000000000000000815260040161086990613720565b60405180910390fd5b6002828154811061088657610885613613565b5b90600052602060002090600a020160040154600283815481106108ac576108ab613613565b5b90600052602060002090600a020160060154346108c9919061376f565b111561090a576040517f08c379a000000000000000000000000000000000000000000000000000000000815260040161090190613815565b60405180910390fd5b346002838154811061091f5761091e613613565b5b90600052602060002090600a0201600601600082825461093f919061376f565b92505081905550346005600084815260200190815260200160002060003373ffffffffffffffffffffffffffffffffffffffff1673ffffffffffffffffffffffffffffffffffffffff16815260200190815260200160002060008282546109a6919061376f565b92505081905550600282815481106109c1576109c0613613565b5b90600052602060002090600a0201600901339080600181540180825580915050600190039060005260206000200160009091909190916101000a81548173ffffffffffffffffffffffffffffffffffffffff021916908373ffffffffffffffffffffffffffffffffffffffff1602179055505050565b80600280811115610a4b57610a4a6134ef565b5b60028281548110610a5f57610a5e613613565b5b90600052602060002090600a020160080160009054906101000a900460ff166002811115610a9057610a8f6134ef565b5b14610ad0576040517f08c379a0000000000000000000000000000000000000000000000000000000008152600401610ac790613881565b60405180910390fd5b3373ffffffffffffffffffffffffffffffffffffffff1660028381548110610afb57610afa613613565b5b90600052602060002090600a020160000160009054906101000a900473ffffffffffffffffffffffffffffffffffffffff1673ffffffffffffffffffffffffffffffffffffffff161480610b7e575060028281548110610b5e57610b5d613613565b5b90600052602060002090600a020160000160169054906101000a900460ff165b610bbd576040517f08c379a0000000000000000000000000000000000000000000000000000000008152600401610bb490613939565b60405180910390fd5b600060028381548110610bd357610bd2613613565b5b90600052602060002090600a0201600701549050600060028481548110610bfd57610bfc613613565b5b90600052602060002090600a0201600901805490509050600060028581548110610c2a57610c29613613565b5b90600052602060002090600a0201600601549050600060028681548110610c5457610c53613613565b5b90600052602060002090600a020160000160009054906101000a900473ffffffffffffffffffffffffffffffffffffffff1690506000600460008881526020019081526020016000205490506000670de0b6b3a76400008685610cb79190613959565b610cc191906139ca565b90508273ffffffffffffffffffffffffffffffffffffffff166108fc829081150290604051600060405180830381858888f19350505050158015610d09573d6000803e3d6000fd5b506000670de0b6b3a764000060005486610d239190613959565b610d2d91906139ca565b9050600760009054906101000a900473ffffffffffffffffffffffffffffffffffffffff1673ffffffffffffffffffffffffffffffffffffffff166108fc829081150290604051600060405180830381858888f19350505050158015610d97573d6000803e3d6000fd5b5060005b86811015610f2c57600060028b81548110610db957610db8613613565b5b90600052602060002090600a02016009018281548110610ddc57610ddb613613565b5b9060005260206000200160009054906101000a900473ffffffffffffffffffffffffffffffffffffffff1690506000600560008d815260200190815260200160002060008373ffffffffffffffffffffffffffffffffffffffff1673ffffffffffffffffffffffffffffffffffffffff1681526020019081526020016000205490506000811115610f1f576000670de0b6b3a76400008783610e7e9190613959565b60005484610e8c9190613959565b8d85610e989190613959565b670de0b6b3a764000086610eac9190613959565b610eb691906139fb565b610ec091906139fb565b610eca919061376f565b610ed491906139ca565b90508273ffffffffffffffffffffffffffffffffffffffff166108fc829081150290604051600060405180830381858888f19350505050158015610f1c573d6000803e3d6000fd5b50505b8260010192505050610d9b565b50600060028a81548110610f4357610f42613613565b5b90600052602060002090600a020160050154905083811115610fd6576000670de0b6b3a76400008583610f7691906139fb565b88610f819190613959565b610f8b91906139ca565b90508573ffffffffffffffffffffffffffffffffffffffff166108fc829081150290604051600060405180830381858888f19350505050158015610fd3573d6000803e3d6000fd5b50505b6001600360008c815260200190815260200160002060006101000a81548160ff02191690831515021790555060028a8154811061101657611015613613565b5b90600052602060002090600a0201600080820160006101000a81549073ffffffffffffffffffffffffffffffffffffffff02191690556000820160146101000a81549060ff02191690556000820160156101000a81549060ff02191690556000820160166101000a81549060ff021916905560018201600090556002820160006110a09190612e04565b600382016000905560048201600090556005820160009055600682016000905560078201600090556008820160006101000a81549060ff02191690556009820160006110ec9190612e44565b505050505050505050505050565b6000600282815481106111105761110f613613565b5b90600052602060002090600a020160000160009054906101000a900473ffffffffffffffffffffffffffffffffffffffff169050919050565b600115156002838154811061116157611160613613565b5b90600052602060002090600a020160000160159054906101000a900460ff161515146111c2576040517f08c379a00000000000000000000000000000000000000000000000000000000081526004016111b990613a7b565b60405180910390fd5b3373ffffffffffffffffffffffffffffffffffffffff16600283815481106111ed576111ec613613565b5b90600052602060002090600a020160000160009054906101000a900473ffffffffffffffffffffffffffffffffffffffff1673ffffffffffffffffffffffffffffffffffffffff1614611275576040517f08c379a000000000000000000000000000000000000000000000000000000000815260040161126c90613b0d565b60405180910390fd5b6000670de0b6b3a7640000826002858154811061129557611294613613565b5b90600052602060002090600a0201600401546112b19190613959565b6112bb91906139ca565b905080341015611300576040517f08c379a00000000000000000000000000000000000000000000000000000000081526004016112f790613b9f565b60405180910390fd5b6002838154811061131457611313613613565b5b90600052602060002090600a02016005015482611331919061376f565b6002848154811061134557611344613613565b5b90600052602060002090600a020160050181905550505050565b600081116113a2576040517f08c379a000000000000000000000000000000000000000000000000000000000815260040161139990613c0b565b60405180910390fd5b6005600083815260200190815260200160002060003373ffffffffffffffffffffffffffffffffffffffff1673ffffffffffffffffffffffffffffffffffffffff16815260200190815260200160002054811115611435576040517f08c379a000000000000000000000000000000000000000000000000000000000815260040161142c90613c9d565b60405180910390fd5b60016002811115611449576114486134ef565b5b6002838154811061145d5761145c613613565b5b90600052602060002090600a020160080160009054906101000a900460ff16600281111561148e5761148d6134ef565b5b036114ce576040517f08c379a00000000000000000000000000000000000000000000000000000000081526004016114c590613d09565b60405180910390fd5b600060028111156114e2576114e16134ef565b5b600283815481106114f6576114f5613613565b5b90600052602060002090600a020160080160009054906101000a900460ff166002811115611527576115266134ef565b5b036116bb576000670de0b6b3a7640000600154836115459190613959565b61154f91906139ca565b9050600760009054906101000a900473ffffffffffffffffffffffffffffffffffffffff1673ffffffffffffffffffffffffffffffffffffffff166108fc829081150290604051600060405180830381858888f193505050501580156115b9573d6000803e3d6000fd5b50600081836115c891906139fb565b9050826005600086815260200190815260200160002060003373ffffffffffffffffffffffffffffffffffffffff1673ffffffffffffffffffffffffffffffffffffffff168152602001908152602001600020600082825461162a91906139fb565b92505081905550826002858154811061164657611645613613565b5b90600052602060002090600a0201600601600082825461166691906139fb565b925050819055503373ffffffffffffffffffffffffffffffffffffffff166108fc829081150290604051600060405180830381858888f193505050501580156116b3573d6000803e3d6000fd5b505050611962565b6000670de0b6b3a7640000600054836116d49190613959565b6116de91906139ca565b90506000670de0b6b3a7640000600285815481106116ff576116fe613613565b5b90600052602060002090600a0201600701548461171c9190613959565b61172691906139ca565b9050600760009054906101000a900473ffffffffffffffffffffffffffffffffffffffff1673ffffffffffffffffffffffffffffffffffffffff166108fc839081150290604051600060405180830381858888f19350505050158015611790573d6000803e3d6000fd5b50600284815481106117a5576117a4613613565b5b90600052602060002090600a020160000160009054906101000a900473ffffffffffffffffffffffffffffffffffffffff1673ffffffffffffffffffffffffffffffffffffffff166108fc829081150290604051600060405180830381858888f1935050505015801561181c573d6000803e3d6000fd5b506000670de0b6b3a76400006004600087815260200190815260200160002054856118479190613959565b61185191906139ca565b82848661185e91906139fb565b61186891906139fb565b611872919061376f565b9050836005600087815260200190815260200160002060003373ffffffffffffffffffffffffffffffffffffffff1673ffffffffffffffffffffffffffffffffffffffff16815260200190815260200160002060008282546118d491906139fb565b9250508190555083600286815481106118f0576118ef613613565b5b90600052602060002090600a0201600601600082825461191091906139fb565b925050819055503373ffffffffffffffffffffffffffffffffffffffff166108fc829081150290604051600060405180830381858888f1935050505015801561195d573d6000803e3d6000fd5b505050505b5050565b600760009054906101000a900473ffffffffffffffffffffffffffffffffffffffff1673ffffffffffffffffffffffffffffffffffffffff163373ffffffffffffffffffffffffffffffffffffffff16146119f6576040517f08c379a00000000000000000000000000000000000000000000000000000000081526004016119ed906135f3565b60405180910390fd5b600280811115611a0957611a086134ef565b5b60028281548110611a1d57611a1c613613565b5b90600052602060002090600a020160080160009054906101000a900460ff166002811115611a4e57611a4d6134ef565b5b14611a8e576040517f08c379a0000000000000000000000000000000000000000000000000000000008152600401611a8590613d75565b60405180910390fd5b6000670de0b6b3a764000060005460028481548110611ab057611aaf613613565b5b90600052602060002090600a020160060154611acc9190613959565b611ad691906139ca565b9050600760009054906101000a900473ffffffffffffffffffffffffffffffffffffffff1673ffffffffffffffffffffffffffffffffffffffff166108fc829081150290604051600060405180830381858888f19350505050158015611b40573d6000803e3d6000fd5b50600060028381548110611b5757611b56613613565b5b90600052602060002090600a0201600501549050600060028481548110611b8157611b80613613565b5b90600052602060002090600a020160090180549050905060005b81811015611d1657600060028681548110611bb957611bb8613613565b5b90600052602060002090600a02016009018281548110611bdc57611bdb613613565b5b9060005260206000200160009054906101000a900473ffffffffffffffffffffffffffffffffffffffff16905060006005600088815260200190815260200160002060008373ffffffffffffffffffffffffffffffffffffffff1673ffffffffffffffffffffffffffffffffffffffff1681526020019081526020016000205490506000811115611d09576000670de0b6b3a76400008683611c7e9190613959565b60005484611c8c9190613959565b670de0b6b3a764000085611ca09190613959565b611caa91906139fb565b611cb4919061376f565b611cbe91906139ca565b90508273ffffffffffffffffffffffffffffffffffffffff166108fc829081150290604051600060405180830381858888f19350505050158015611d06573d6000803e3d6000fd5b50505b8260010192505050611b9b565b5060016003600086815260200190815260200160002060006101000a81548160ff02191690831515021790555060028481548110611d5757611d56613613565b5b90600052602060002090600a0201600080820160006101000a81549073ffffffffffffffffffffffffffffffffffffffff02191690556000820160146101000a81549060ff02191690556000820160156101000a81549060ff02191690556000820160166101000a81549060ff02191690556001820160009055600282016000611de19190612e04565b600382016000905560048201600090556005820160009055600682016000905560078201600090556008820160006101000a81549060ff0219169055600982016000611e2d9190612e44565b505050505050565b606060008060008060008060028881548110611e5457611e53613613565b5b90600052602060002090600a020160020160028981548110611e7957611e78613613565b5b90600052602060002090600a02016001015460028a81548110611e9f57611e9e613613565b5b90600052602060002090600a02016003015460028b81548110611ec557611ec4613613565b5b90600052602060002090600a02016004015460028c81548110611eeb57611eea613613565b5b90600052602060002090600a02016005015460028d81548110611f1157611f10613613565b5b90600052602060002090600a02016006015460028e81548110611f3757611f36613613565b5b90600052602060002090600a020160070154868054611f5590613dc4565b80601f0160208091040260200160405190810160405280929190818152602001828054611f8190613dc4565b8015611fce5780601f10611fa357610100808354040283529160200191611fce565b820191906000526020600020905b815481529060010190602001808311611fb157829003601f168201915b505050505096509650965096509650965096509650919395979092949650565b803373ffffffffffffffffffffffffffffffffffffffff166002828154811061201a57612019613613565b5b90600052602060002090600a020160000160009054906101000a900473ffffffffffffffffffffffffffffffffffffffff1673ffffffffffffffffffffffffffffffffffffffff16146120a2576040517f08c379a000000000000000000000000000000000000000000000000000000000815260040161209990613b0d565b60405180910390fd5b600281815481106120b6576120b5613613565b5b90600052602060002090600a020160000160159054906101000a900460ff1615612115576040517f08c379a000000000000000000000000000000000000000000000000000000000815260040161210c90613e41565b60405180910390fd5b60016002811115612129576121286134ef565b5b6002828154811061213d5761213c613613565b5b90600052602060002090600a020160080160009054906101000a900460ff16600281111561216e5761216d6134ef565b5b146121ae576040517f08c379a00000000000000000000000000000000000000000000000000000000081526004016121a590613ed3565b60405180910390fd5b6000670de0b6b3a7640000600284815481106121cd576121cc613613565b5b90600052602060002090600a020160050154600285815481106121f3576121f2613613565b5b90600052602060002090600a02016006015461220f9190613959565b61221991906139ca565b90508034101561225e576040517f08c379a000000000000000000000000000000000000000000000000000000000815260040161225590613f65565b60405180910390fd5b60016002848154811061227457612273613613565b5b90600052602060002090600a020160000160156101000a81548160ff02191690831515021790555060028084815481106122b1576122b0613613565b5b90600052602060002090600a020160080160006101000a81548160ff021916908360028111156122e4576122e36134ef565b5b0217905550505050565b60006002828154811061230457612303613613565b5b90600052602060002090600a020160000160149054906101000a900460ff169050919050565b600760009054906101000a900473ffffffffffffffffffffffffffffffffffffffff1673ffffffffffffffffffffffffffffffffffffffff163373ffffffffffffffffffffffffffffffffffffffff16146123ba576040517f08c379a00000000000000000000000000000000000000000000000000000000081526004016123b1906135f3565b60405180910390fd5b6001600282815481106123d0576123cf613613565b5b90600052602060002090600a020160000160166101000a81548160ff0219169083151502179055506002818154811061240c5761240b613613565b5b90600052602060002090600a02016005015460046000838152602001908152602001600020541115612476576002818154811061244c5761244b613613565b5b90600052602060002090600a02016005015460046000838152602001908152602001600020819055505b50565b600760009054906101000a900473ffffffffffffffffffffffffffffffffffffffff1673ffffffffffffffffffffffffffffffffffffffff163373ffffffffffffffffffffffffffffffffffffffff1614612509576040517f08c379a0000000000000000000000000000000000000000000000000000000008152600401612500906135f3565b60405180910390fd5b806002838154811061251e5761251d613613565b5b90600052602060002090600a020160080160006101000a81548160ff02191690836002811115612551576125506134ef565b5b02179055505050565b6000831161259d576040517f08c379a000000000000000000000000000000000000000000000000000000000815260040161259490613ff7565b60405180910390fd5b600660003373ffffffffffffffffffffffffffffffffffffffff1673ffffffffffffffffffffffffffffffffffffffff16815260200190815260200160002060028054905090806001815401808255809150506001900390600052602060002001600090919091909150556002604051806101a001604052803373ffffffffffffffffffffffffffffffffffffffff16815260200160011515815260200160001515815260200160001515815260200160028054905081526020018781526020018681526020018581526020018481526020016000815260200183815260200160006002811115612691576126906134ef565b5b8152602001600067ffffffffffffffff8111156126b1576126b06131f4565b5b6040519080825280602002602001820160405280156126df5781602001602082028036833780820191505090505b5081525090806001815401808255809150506001900390600052602060002090600a020160009091909190915060008201518160000160006101000a81548173ffffffffffffffffffffffffffffffffffffffff021916908373ffffffffffffffffffffffffffffffffffffffff16021790555060208201518160000160146101000a81548160ff02191690831515021790555060408201518160000160156101000a81548160ff02191690831515021790555060608201518160000160166101000a81548160ff0219169083151502179055506080820151816001015560a08201518160020190816127d291906141c3565b5060c0820151816003015560e082015181600401556101008201518160050155610120820151816006015561014082015181600701556101608201518160080160006101000a81548160ff02191690836002811115612834576128336134ef565b5b0217905550610180820151816009019080519060200190612856929190612e65565b5050505050505050565b60606000600280549050905060008167ffffffffffffffff811115612888576128876131f4565b5b6040519080825280602002602001820160405280156128b65781602001602082028036833780820191505090505b50905060005b8281101561291457600281815481106128d8576128d7613613565b5b90600052602060002090600a0201600101548282815181106128fd576128fc613613565b5b6020026020010181815250508060010190506128bc565b50809250505090565b600760009054906101000a900473ffffffffffffffffffffffffffffffffffffffff1681565b60006002828154811061295957612958613613565b5b90600052602060002090600a020160000160159054906101000a900460ff169050919050565b60006002828154811061299557612994613613565b5b90600052602060002090600a020160000160169054906101000a900460ff169050919050565b60006003600083815260200190815260200160002060009054906101000a900460ff169050919050565b600060046000838152602001908152602001600020549050919050565b600760009054906101000a900473ffffffffffffffffffffffffffffffffffffffff1673ffffffffffffffffffffffffffffffffffffffff163373ffffffffffffffffffffffffffffffffffffffff1614612a92576040517f08c379a0000000000000000000000000000000000000000000000000000000008152600401612a89906135f3565b60405180910390fd5b8060046000848152602001908152602001600020819055505050565b600760009054906101000a900473ffffffffffffffffffffffffffffffffffffffff1673ffffffffffffffffffffffffffffffffffffffff163373ffffffffffffffffffffffffffffffffffffffff1614612b3e576040517f08c379a0000000000000000000000000000000000000000000000000000000008152600401612b35906135f3565b60405180910390fd5b8060008190555050565b60015481565b6060600660008373ffffffffffffffffffffffffffffffffffffffff1673ffffffffffffffffffffffffffffffffffffffff168152602001908152602001600020805480602002602001604051908101604052809291908181526020018280548015612bd957602002820191906000526020600020905b815481526020019060010190808311612bc5575b50505050509050919050565b600060028281548110612bfb57612bfa613613565b5b90600052602060002090600a020160080160009054906101000a900460ff169050919050565b8160006002811115612c3657612c356134ef565b5b60028281548110612c4a57612c49613613565b5b90600052602060002090600a020160080160009054906101000a900460ff166002811115612c7b57612c7a6134ef565b5b14612cbb576040517f08c379a0000000000000000000000000000000000000000000000000000000008152600401612cb29061368e565b60405180910390fd5b3373ffffffffffffffffffffffffffffffffffffffff1660028481548110612ce657612ce5613613565b5b90600052602060002090600a020160000160009054906101000a900473ffffffffffffffffffffffffffffffffffffffff1673ffffffffffffffffffffffffffffffffffffffff1614612d6e576040517f08c379a0000000000000000000000000000000000000000000000000000000008152600401612d6590614307565b60405180910390fd5b60028381548110612d8257612d81613613565b5b90600052602060002090600a0201600401548211612dd5576040517f08c379a0000000000000000000000000000000000000000000000000000000008152600401612dcc90614399565b60405180910390fd5b8160028481548110612dea57612de9613613565b5b90600052602060002090600a020160040181905550505050565b508054612e1090613dc4565b6000825580601f10612e225750612e41565b601f016020900490600052602060002090810190612e409190612eef565b5b50565b5080546000825590600052602060002090810190612e629190612eef565b50565b828054828255906000526020600020908101928215612ede579160200282015b82811115612edd5782518260006101000a81548173ffffffffffffffffffffffffffffffffffffffff021916908373ffffffffffffffffffffffffffffffffffffffff16021790555091602001919060010190612e85565b5b509050612eeb9190612eef565b5090565b5b80821115612f08576000816000905550600101612ef0565b5090565b6000604051905090565b600080fd5b600080fd5b6000819050919050565b612f3381612f20565b8114612f3e57600080fd5b50565b600081359050612f5081612f2a565b92915050565b600060208284031215612f6c57612f6b612f16565b5b6000612f7a84828501612f41565b91505092915050565b612f8c81612f20565b82525050565b6000602082019050612fa76000830184612f83565b92915050565b600073ffffffffffffffffffffffffffffffffffffffff82169050919050565b6000612fd882612fad565b9050919050565b612fe881612fcd565b82525050565b60006020820190506130036000830184612fdf565b92915050565b600080604083850312156130205761301f612f16565b5b600061302e85828601612f41565b925050602061303f85828601612f41565b9150509250929050565b600081519050919050565b600082825260208201905092915050565b60005b83811015613083578082015181840152602081019050613068565b60008484015250505050565b6000601f19601f8301169050919050565b60006130ab82613049565b6130b58185613054565b93506130c5818560208601613065565b6130ce8161308f565b840191505092915050565b600060e08201905081810360008301526130f3818a6130a0565b90506131026020830189612f83565b61310f6040830188612f83565b61311c6060830187612f83565b6131296080830186612f83565b61313660a0830185612f83565b61314360c0830184612f83565b98975050505050505050565b60008115159050919050565b6131648161314f565b82525050565b600060208201905061317f600083018461315b565b92915050565b6003811061319257600080fd5b50565b6000813590506131a481613185565b92915050565b600080604083850312156131c1576131c0612f16565b5b60006131cf85828601612f41565b92505060206131e085828601613195565b9150509250929050565b600080fd5b600080fd5b7f4e487b7100000000000000000000000000000000000000000000000000000000600052604160045260246000fd5b61322c8261308f565b810181811067ffffffffffffffff8211171561324b5761324a6131f4565b5b80604052505050565b600061325e612f0c565b905061326a8282613223565b919050565b600067ffffffffffffffff82111561328a576132896131f4565b5b6132938261308f565b9050602081019050919050565b82818337600083830152505050565b60006132c26132bd8461326f565b613254565b9050828152602081018484840111156132de576132dd6131ef565b5b6132e98482856132a0565b509392505050565b600082601f830112613306576133056131ea565b5b81356133168482602086016132af565b91505092915050565b600080600080600060a0868803121561333b5761333a612f16565b5b600086013567ffffffffffffffff81111561335957613358612f1b565b5b613365888289016132f1565b955050602061337688828901612f41565b945050604061338788828901612f41565b935050606061339888828901612f41565b92505060806133a988828901612f41565b9150509295509295909350565b600081519050919050565b600082825260208201905092915050565b6000819050602082019050919050565b6133eb81612f20565b82525050565b60006133fd83836133e2565b60208301905092915050565b6000602082019050919050565b6000613421826133b6565b61342b81856133c1565b9350613436836133d2565b8060005b8381101561346757815161344e88826133f1565b975061345983613409565b92505060018101905061343a565b5085935050505092915050565b6000602082019050818103600083015261348e8184613416565b905092915050565b61349f81612fcd565b81146134aa57600080fd5b50565b6000813590506134bc81613496565b92915050565b6000602082840312156134d8576134d7612f16565b5b60006134e6848285016134ad565b91505092915050565b7f4e487b7100000000000000000000000000000000000000000000000000000000600052602160045260246000fd5b6003811061352f5761352e6134ef565b5b50565b60008190506135408261351e565b919050565b600061355082613532565b9050919050565b61356081613545565b82525050565b600060208201905061357b6000830184613557565b92915050565b7f4f6e6c7920746865206f776e65722063616e2063616c6c20746869732066756e60008201527f6374696f6e000000000000000000000000000000000000000000000000000000602082015250565b60006135dd602583613054565b91506135e882613581565b604082019050919050565b6000602082019050818103600083015261360c816135d0565b9050919050565b7f4e487b7100000000000000000000000000000000000000000000000000000000600052603260045260246000fd5b7f506f7274666f6c696f206e6f7420696e206f70656e2073746174650000000000600082015250565b6000613678601b83613054565b915061368382613642565b602082019050919050565b600060208201905081810360008301526136a78161366b565b9050919050565b7f416d6f756e742073686f756c642062652067726561746572207468616e20746860008201527f65206d696e696d756d20616d6f756e7400000000000000000000000000000000602082015250565b600061370a603083613054565b9150613715826136ae565b604082019050919050565b60006020820190508181036000830152613739816136fd565b9050919050565b7f4e487b7100000000000000000000000000000000000000000000000000000000600052601160045260246000fd5b600061377a82612f20565b915061378583612f20565b925082820190508082111561379d5761379c613740565b5b92915050565b7f416d6f756e742073686f756c64206265206c657373207468616e20746865207460008201527f6f74616c2066756e647300000000000000000000000000000000000000000000602082015250565b60006137ff602a83613054565b915061380a826137a3565b604082019050919050565b6000602082019050818103600083015261382e816137f2565b9050919050565b7f506f7274666f6c696f2061696e277420696e2074726164696e67206d6f646521600082015250565b600061386b602083613054565b915061387682613835565b602082019050919050565b6000602082019050818103600083015261389a8161385e565b9050919050565b7f4f6e6c7920746865206d616e616765722063616e2063616c6c2074686973206660008201527f756e6374696f6e206f722069662074686520646561646c696e6520686173206160208201527f7070726f61636865640000000000000000000000000000000000000000000000604082015250565b6000613923604983613054565b915061392e826138a1565b606082019050919050565b6000602082019050818103600083015261395281613916565b9050919050565b600061396482612f20565b915061396f83612f20565b925082820261397d81612f20565b9150828204841483151761399457613993613740565b5b5092915050565b7f4e487b7100000000000000000000000000000000000000000000000000000000600052601260045260246000fd5b60006139d582612f20565b91506139e083612f20565b9250826139f0576139ef61399b565b5b828204905092915050565b6000613a0682612f20565b9150613a1183612f20565b9250828203905081811115613a2957613a28613740565b5b92915050565b7f46697273742070617920796f757220696e697469616c20616d6f756e74000000600082015250565b6000613a65601d83613054565b9150613a7082613a2f565b602082019050919050565b60006020820190508181036000830152613a9481613a58565b9050919050565b7f4f6e6c7920746865206d616e616765722063616e2063616c6c2074686973206660008201527f756e6374696f6e00000000000000000000000000000000000000000000000000602082015250565b6000613af7602783613054565b9150613b0282613a9b565b604082019050919050565b60006020820190508181036000830152613b2681613aea565b9050919050565b7f416d6f756e742073686f756c6420626520657175616c20746f2074686520696e60008201527f6372656173656420616d6f756e74000000000000000000000000000000000000602082015250565b6000613b89602e83613054565b9150613b9482613b2d565b604082019050919050565b60006020820190508181036000830152613bb881613b7c565b9050919050565b7f416d6f756e742073686f756c642062652067726561746572207468616e203000600082015250565b6000613bf5601f83613054565b9150613c0082613bbf565b602082019050919050565b60006020820190508181036000830152613c2481613be8565b9050919050565b7f596f7520646f6e2774206861766520656e6f75676820616d6f756e7420746f2060008201527f7769746864726177000000000000000000000000000000000000000000000000602082015250565b6000613c87602883613054565b9150613c9282613c2b565b604082019050919050565b60006020820190508181036000830152613cb681613c7a565b9050919050565b7f596f752063616e2774207769746864726177206e6f7700000000000000000000600082015250565b6000613cf3601683613054565b9150613cfe82613cbd565b602082019050919050565b60006020820190508181036000830152613d2281613ce6565b9050919050565b7f506f7274666f6c696f206973206e6f7420696e20616374696f6e000000000000600082015250565b6000613d5f601a83613054565b9150613d6a82613d29565b602082019050919050565b60006020820190508181036000830152613d8e81613d52565b9050919050565b7f4e487b7100000000000000000000000000000000000000000000000000000000600052602260045260246000fd5b60006002820490506001821680613ddc57607f821691505b602082108103613def57613dee613d95565b5b50919050565b7f4d616e616765722068617320706169642074686520616d6f756e740000000000600082015250565b6000613e2b601b83613054565b9150613e3682613df5565b602082019050919050565b60006020820190508181036000830152613e5a81613e1e565b9050919050565b7f506f7274666f6c696f206973206e6f74206f70656e20666f72206d616e61676560008201527f7220746f207061792074686520616d6f756e7400000000000000000000000000602082015250565b6000613ebd603383613054565b9150613ec882613e61565b604082019050919050565b60006020820190508181036000830152613eec81613eb0565b9050919050565b7f416d6f756e742073686f756c6420626520657175616c20746f2074686520746f60008201527f74616c2066756e64730000000000000000000000000000000000000000000000602082015250565b6000613f4f602983613054565b9150613f5a82613ef3565b604082019050919050565b60006020820190508181036000830152613f7e81613f42565b9050919050565b7f546f74616c2066756e64732073686f756c64206265206772656174657220746860008201527f616e203000000000000000000000000000000000000000000000000000000000602082015250565b6000613fe1602483613054565b9150613fec82613f85565b604082019050919050565b6000602082019050818103600083015261401081613fd4565b9050919050565b60008190508160005260206000209050919050565b60006020601f8301049050919050565b600082821b905092915050565b6000600883026140797fffffffffffffffffffffffffffffffffffffffffffffffffffffffffffffffff8261403c565b614083868361403c565b95508019841693508086168417925050509392505050565b6000819050919050565b60006140c06140bb6140b684612f20565b61409b565b612f20565b9050919050565b6000819050919050565b6140da836140a5565b6140ee6140e6826140c7565b848454614049565b825550505050565b600090565b6141036140f6565b61410e8184846140d1565b505050565b5b81811015614132576141276000826140fb565b600181019050614114565b5050565b601f8211156141775761414881614017565b6141518461402c565b81016020851015614160578190505b61417461416c8561402c565b830182614113565b50505b505050565b600082821c905092915050565b600061419a6000198460080261417c565b1980831691505092915050565b60006141b38383614189565b9150826002028217905092915050565b6141cc82613049565b67ffffffffffffffff8111156141e5576141e46131f4565b5b6141ef8254613dc4565b6141fa828285614136565b600060209050601f83116001811461422d576000841561421b578287015190505b61422585826141a7565b86555061428d565b601f19841661423b86614017565b60005b828110156142635784890151825560018201915060208501945060208101905061423e565b86831015614280578489015161427c601f891682614189565b8355505b6001600288020188555050505b505050505050565b7f4f6e6c7920746865206d616e616765722063616e206368616e6765207468652060008201527f746f74616c2066756e6473000000000000000000000000000000000000000000602082015250565b60006142f1602b83613054565b91506142fc82614295565b604082019050919050565b60006020820190508181036000830152614320816142e4565b9050919050565b7f4e657720746f74616c2066756e64732073686f756c642062652067726561746560008201527f72207468616e207468652070726576696f7573206f6e65000000000000000000602082015250565b6000614383603783613054565b915061438e82614327565b604082019050919050565b600060208201905081810360008301526143b281614376565b905091905056fea2646970667358221220db8ca0231c517135896f06d0ac2c1fe6e24405de5ac9e2be204083c15ecdc3cc64736f6c63430008140033",
  "linkReferences": {},
  "deployedLinkReferences": {}
}