{
  "_format": "hh-sol-artifact-1",
  "contractName": "Platform",
  "sourceName": "contracts/Platform.sol",
  "abi": [
    {
      "inputs": [],
      "stateMutability": "nonpayable",
      "type": "constructor"
    },
    {
      "inputs": [
        {
          "internalType": "uint256",
          "name": "_id",
          "type": "uint256"
        },
        {
          "internalType": "uint256",
          "name": "_increasedPercentage",
          "type": "uint256"
        }
      ],
      "name": "changeMaxReturn",
      "outputs": [],
      "stateMutability": "payable",
      "type": "function"
    },
    {
      "inputs": [
        {
          "internalType": "uint256",
          "name": "_fee",
          "type": "uint256"
        }
      ],
      "name": "changePlatformFee",
      "outputs": [],
      "stateMutability": "nonpayable",
      "type": "function"
    },
    {
      "inputs": [
        {
          "internalType": "uint256",
          "name": "_id",
          "type": "uint256"
        },
        {
          "internalType": "enum Platform.PortfolioStatus",
          "name": "_state",
          "type": "uint8"
        }
      ],
      "name": "changeState",
      "outputs": [],
      "stateMutability": "nonpayable",
      "type": "function"
    },
    {
      "inputs": [
        {
          "internalType": "uint256",
          "name": "_id",
          "type": "uint256"
        },
        {
          "internalType": "uint256",
          "name": "_totalFunds",
          "type": "uint256"
        }
      ],
      "name": "changeTotalFunds",
      "outputs": [],
      "stateMutability": "nonpayable",
      "type": "function"
    },
    {
      "inputs": [
        {
          "internalType": "uint256",
          "name": "_id",
          "type": "uint256"
        }
      ],
      "name": "closePortfolio",
      "outputs": [],
      "stateMutability": "nonpayable",
      "type": "function"
    },
    {
      "inputs": [
        {
          "internalType": "string",
          "name": "_name",
          "type": "string"
        },
        {
          "internalType": "uint256",
          "name": "_minAmount",
          "type": "uint256"
        },
        {
          "internalType": "uint256",
          "name": "_totalFunds",
          "type": "uint256"
        },
        {
          "internalType": "uint256",
          "name": "_maxReturn",
          "type": "uint256"
        },
        {
          "internalType": "uint256",
          "name": "_feePercent",
          "type": "uint256"
        }
      ],
      "name": "createPortfolio",
      "outputs": [],
      "stateMutability": "nonpayable",
      "type": "function"
    },
    {
      "inputs": [
        {
          "internalType": "uint256",
          "name": "_id",
          "type": "uint256"
        }
      ],
      "name": "endPortfolio",
      "outputs": [],
      "stateMutability": "nonpayable",
      "type": "function"
    },
    {
      "inputs": [
        {
          "internalType": "address",
          "name": "_to",
          "type": "address"
        }
      ],
      "name": "getPortfolioIds",
      "outputs": [
        {
          "internalType": "uint256[]",
          "name": "",
          "type": "uint256[]"
        }
      ],
      "stateMutability": "view",
      "type": "function"
    },
    {
      "inputs": [
        {
          "internalType": "uint256",
          "name": "_id",
          "type": "uint256"
        }
      ],
      "name": "getPortfolioMajorDetails",
      "outputs": [
        {
          "internalType": "string",
          "name": "",
          "type": "string"
        },
        {
          "internalType": "uint256",
          "name": "",
          "type": "uint256"
        },
        {
          "internalType": "uint256",
          "name": "",
          "type": "uint256"
        },
        {
          "internalType": "uint256",
          "name": "",
          "type": "uint256"
        },
        {
          "internalType": "uint256",
          "name": "",
          "type": "uint256"
        },
        {
          "internalType": "uint256",
          "name": "",
          "type": "uint256"
        },
        {
          "internalType": "uint256",
          "name": "",
          "type": "uint256"
        }
      ],
      "stateMutability": "view",
      "type": "function"
    },
    {
      "inputs": [
        {
          "internalType": "uint256",
          "name": "_id",
          "type": "uint256"
        }
      ],
      "name": "getPortfolioManager",
      "outputs": [
        {
          "internalType": "address",
          "name": "",
          "type": "address"
        }
      ],
      "stateMutability": "view",
      "type": "function"
    },
    {
      "inputs": [
        {
          "internalType": "uint256",
          "name": "_id",
          "type": "uint256"
        }
      ],
      "name": "getPortfolioStatus",
      "outputs": [
        {
          "internalType": "enum Platform.PortfolioStatus",
          "name": "",
          "type": "uint8"
        }
      ],
      "stateMutability": "view",
      "type": "function"
    },
    {
      "inputs": [
        {
          "internalType": "uint256",
          "name": "id",
          "type": "uint256"
        }
      ],
      "name": "getReturns",
      "outputs": [
        {
          "internalType": "uint256",
          "name": "",
          "type": "uint256"
        }
      ],
      "stateMutability": "view",
      "type": "function"
    },
    {
      "inputs": [],
      "name": "getallIds",
      "outputs": [
        {
          "internalType": "uint256[]",
          "name": "",
          "type": "uint256[]"
        }
      ],
      "stateMutability": "view",
      "type": "function"
    },
    {
      "inputs": [
        {
          "internalType": "uint256",
          "name": "_id",
          "type": "uint256"
        }
      ],
      "name": "hasDeadlineApproached",
      "outputs": [
        {
          "internalType": "bool",
          "name": "",
          "type": "bool"
        }
      ],
      "stateMutability": "view",
      "type": "function"
    },
    {
      "inputs": [
        {
          "internalType": "uint256",
          "name": "_portfolioId",
          "type": "uint256"
        }
      ],
      "name": "invest",
      "outputs": [],
      "stateMutability": "payable",
      "type": "function"
    },
    {
      "inputs": [
        {
          "internalType": "uint256",
          "name": "_id",
          "type": "uint256"
        }
      ],
      "name": "isPortfolioDeleted",
      "outputs": [
        {
          "internalType": "bool",
          "name": "",
          "type": "bool"
        }
      ],
      "stateMutability": "view",
      "type": "function"
    },
    {
      "inputs": [
        {
          "internalType": "uint256",
          "name": "_id",
          "type": "uint256"
        }
      ],
      "name": "isPortfolioOpen",
      "outputs": [
        {
          "internalType": "bool",
          "name": "",
          "type": "bool"
        }
      ],
      "stateMutability": "view",
      "type": "function"
    },
    {
      "inputs": [
        {
          "internalType": "uint256",
          "name": "_id",
          "type": "uint256"
        }
      ],
      "name": "isPortfolioPaid",
      "outputs": [
        {
          "internalType": "bool",
          "name": "",
          "type": "bool"
        }
      ],
      "stateMutability": "view",
      "type": "function"
    },
    {
      "inputs": [
        {
          "internalType": "uint256",
          "name": "_id",
          "type": "uint256"
        }
      ],
      "name": "markDeadlineApproached",
      "outputs": [],
      "stateMutability": "nonpayable",
      "type": "function"
    },
    {
      "inputs": [],
      "name": "owner",
      "outputs": [
        {
          "internalType": "address",
          "name": "",
          "type": "address"
        }
      ],
      "stateMutability": "view",
      "type": "function"
    },
    {
      "inputs": [
        {
          "internalType": "uint256",
          "name": "_id",
          "type": "uint256"
        }
      ],
      "name": "payAmount",
      "outputs": [],
      "stateMutability": "payable",
      "type": "function"
    },
    {
      "inputs": [],
      "name": "platformFee",
      "outputs": [
        {
          "internalType": "uint256",
          "name": "",
          "type": "uint256"
        }
      ],
      "stateMutability": "view",
      "type": "function"
    },
    {
      "inputs": [
        {
          "internalType": "uint256",
          "name": "id",
          "type": "uint256"
        },
        {
          "internalType": "uint256",
          "name": "_amount",
          "type": "uint256"
        }
      ],
      "name": "setReturns",
      "outputs": [],
      "stateMutability": "nonpayable",
      "type": "function"
    },
    {
      "inputs": [
        {
          "internalType": "uint256",
          "name": "_id",
          "type": "uint256"
        }
      ],
      "name": "terminatePortfolio",
      "outputs": [],
      "stateMutability": "nonpayable",
      "type": "function"
    },
    {
      "inputs": [
        {
          "internalType": "uint256",
          "name": "_portfolioId",
          "type": "uint256"
        },
        {
          "internalType": "uint256",
          "name": "amount",
          "type": "uint256"
        }
      ],
      "name": "withdraw",
      "outputs": [],
      "stateMutability": "nonpayable",
      "type": "function"
    },
    {
      "inputs": [],
      "name": "withdrawFee",
      "outputs": [
        {
          "internalType": "uint256",
          "name": "",
          "type": "uint256"
        }
      ],
      "stateMutability": "view",
      "type": "function"
    }
  ],
  "bytecode": "0x6080604052662386f26fc10000600055661550f7dca7000060015534801561002657600080fd5b5033600760006101000a81548173ffffffffffffffffffffffffffffffffffffffff021916908373ffffffffffffffffffffffffffffffffffffffff1602179055506141b6806100776000396000f3fe6080604052600436106101815760003560e01c80637ff73301116100d1578063b23ca7041161008a578063e941fa7811610064578063e941fa781461057d578063ed6d2800146105a8578063ed8dc217146105e5578063fd36c3d01461062257610181565b8063b23ca704146104ee578063d27eee771461052b578063d7a5791a1461055457610181565b80637ff73301146103b857806387a0a3c6146103e15780638da5cb5b1461040c57806390d36fd2146104375780639ccd8e9e14610474578063b06248c6146104b157610181565b8063441a3e701161013e5780635f936256116101185780635f9362561461030d578063627b43f114610329578063693afcd9146103665780636e6306491461038f57610181565b8063441a3e70146102785780634c5b20f3146102a15780635f08b866146102ca57610181565b806302f6fa991461018657806326232a2e146101af5780632afcf480146101da5780632b5d3ddc146101f65780632f1253a41461021f5780633321051b1461025c575b600080fd5b34801561019257600080fd5b506101ad60048036038101906101a89190612d1d565b61064b565b005b3480156101bb57600080fd5b506101c461076a565b6040516101d19190612d59565b60405180910390f35b6101f460048036038101906101ef9190612d1d565b610770565b005b34801561020257600080fd5b5061021d60048036038101906102189190612d1d565b610a37565b005b34801561022b57600080fd5b5061024660048036038101906102419190612d1d565b61100e565b6040516102539190612db5565b60405180910390f35b61027660048036038101906102719190612dd0565b61105d565b005b34801561028457600080fd5b5061029f600480360381019061029a9190612dd0565b611273565b005b3480156102ad57600080fd5b506102c860048036038101906102c39190612d1d565b61187a565b005b3480156102d657600080fd5b506102f160048036038101906102ec9190612d1d565b611c5d565b6040516103049796959493929190612ea0565b60405180910390f35b61032760048036038101906103229190612d1d565b611e16565b005b34801561033557600080fd5b50610350600480360381019061034b9190612d1d565b612116565b60405161035d9190612f31565b60405180910390f35b34801561037257600080fd5b5061038d60048036038101906103889190612d1d565b612152565b005b34801561039b57600080fd5b506103b660048036038101906103b19190612f71565b6122a1565b005b3480156103c457600080fd5b506103df60048036038101906103da91906130e6565b612382565b005b3480156103ed57600080fd5b506103f6612688565b604051610403919061323b565b60405180910390f35b34801561041857600080fd5b50610421612745565b60405161042e9190612db5565b60405180910390f35b34801561044357600080fd5b5061045e60048036038101906104599190612d1d565b61276b565b60405161046b9190612f31565b60405180910390f35b34801561048057600080fd5b5061049b60048036038101906104969190612d1d565b6127a7565b6040516104a89190612f31565b60405180910390f35b3480156104bd57600080fd5b506104d860048036038101906104d39190612d1d565b6127e3565b6040516104e59190612f31565b60405180910390f35b3480156104fa57600080fd5b5061051560048036038101906105109190612d1d565b61280d565b6040516105229190612d59565b60405180910390f35b34801561053757600080fd5b50610552600480360381019061054d9190612dd0565b61282a565b005b34801561056057600080fd5b5061057b60048036038101906105769190612d1d565b6128d6565b005b34801561058957600080fd5b50610592612970565b60405161059f9190612d59565b60405180910390f35b3480156105b457600080fd5b506105cf60048036038101906105ca9190613289565b612976565b6040516105dc919061323b565b60405180910390f35b3480156105f157600080fd5b5061060c60048036038101906106079190612d1d565b612a0d565b604051610619919061332d565b60405180910390f35b34801561062e57600080fd5b5061064960048036038101906106449190612dd0565b612a49565b005b600760009054906101000a900473ffffffffffffffffffffffffffffffffffffffff1673ffffffffffffffffffffffffffffffffffffffff163373ffffffffffffffffffffffffffffffffffffffff16146106db576040517f08c379a00000000000000000000000000000000000000000000000000000000081526004016106d2906133ba565b60405180910390fd5b6000600282815481106106f1576106f06133da565b5b90600052602060002090600a020160000160146101000a81548160ff02191690831515021790555060016002828154811061072f5761072e6133da565b5b90600052602060002090600a020160080160006101000a81548160ff02191690836002811115610762576107616132b6565b5b021790555050565b60005481565b8060006002811115610785576107846132b6565b5b60028281548110610799576107986133da565b5b90600052602060002090600a020160080160009054906101000a900460ff1660028111156107ca576107c96132b6565b5b1461080a576040517f08c379a000000000000000000000000000000000000000000000000000000000815260040161080190613455565b60405180910390fd5b6002828154811061081e5761081d6133da565b5b90600052602060002090600a020160030154341015610872576040517f08c379a0000000000000000000000000000000000000000000000000000000008152600401610869906134e7565b60405180910390fd5b60028281548110610886576108856133da565b5b90600052602060002090600a020160040154600283815481106108ac576108ab6133da565b5b90600052602060002090600a020160060154346108c99190613536565b111561090a576040517f08c379a0000000000000000000000000000000000000000000000000000000008152600401610901906135dc565b60405180910390fd5b346002838154811061091f5761091e6133da565b5b90600052602060002090600a0201600601600082825461093f9190613536565b92505081905550346005600084815260200190815260200160002060003373ffffffffffffffffffffffffffffffffffffffff1673ffffffffffffffffffffffffffffffffffffffff16815260200190815260200160002060008282546109a69190613536565b92505081905550600282815481106109c1576109c06133da565b5b90600052602060002090600a0201600901339080600181540180825580915050600190039060005260206000200160009091909190916101000a81548173ffffffffffffffffffffffffffffffffffffffff021916908373ffffffffffffffffffffffffffffffffffffffff1602179055505050565b80600280811115610a4b57610a4a6132b6565b5b60028281548110610a5f57610a5e6133da565b5b90600052602060002090600a020160080160009054906101000a900460ff166002811115610a9057610a8f6132b6565b5b14610ad0576040517f08c379a0000000000000000000000000000000000000000000000000000000008152600401610ac790613648565b60405180910390fd5b3373ffffffffffffffffffffffffffffffffffffffff1660028381548110610afb57610afa6133da565b5b90600052602060002090600a020160000160009054906101000a900473ffffffffffffffffffffffffffffffffffffffff1673ffffffffffffffffffffffffffffffffffffffff161480610b7e575060028281548110610b5e57610b5d6133da565b5b90600052602060002090600a020160000160169054906101000a900460ff165b610bbd576040517f08c379a0000000000000000000000000000000000000000000000000000000008152600401610bb490613700565b60405180910390fd5b600060028381548110610bd357610bd26133da565b5b90600052602060002090600a0201600701549050600060028481548110610bfd57610bfc6133da565b5b90600052602060002090600a0201600901805490509050600060028581548110610c2a57610c296133da565b5b90600052602060002090600a0201600601549050600060028681548110610c5457610c536133da565b5b90600052602060002090600a020160000160009054906101000a900473ffffffffffffffffffffffffffffffffffffffff1690506000600460008881526020019081526020016000205490506000670de0b6b3a76400008685610cb79190613720565b610cc19190613791565b90508273ffffffffffffffffffffffffffffffffffffffff166108fc829081150290604051600060405180830381858888f19350505050158015610d09573d6000803e3d6000fd5b506000670de0b6b3a764000060005486610d239190613720565b610d2d9190613791565b9050600760009054906101000a900473ffffffffffffffffffffffffffffffffffffffff1673ffffffffffffffffffffffffffffffffffffffff166108fc829081150290604051600060405180830381858888f19350505050158015610d97573d6000803e3d6000fd5b5060005b86811015610f2c57600060028b81548110610db957610db86133da565b5b90600052602060002090600a02016009018281548110610ddc57610ddb6133da565b5b9060005260206000200160009054906101000a900473ffffffffffffffffffffffffffffffffffffffff1690506000600560008d815260200190815260200160002060008373ffffffffffffffffffffffffffffffffffffffff1673ffffffffffffffffffffffffffffffffffffffff1681526020019081526020016000205490506000811115610f1f576000670de0b6b3a76400008783610e7e9190613720565b60005484610e8c9190613720565b8d85610e989190613720565b670de0b6b3a764000086610eac9190613720565b610eb691906137c2565b610ec091906137c2565b610eca9190613536565b610ed49190613791565b90508273ffffffffffffffffffffffffffffffffffffffff166108fc829081150290604051600060405180830381858888f19350505050158015610f1c573d6000803e3d6000fd5b50505b8260010192505050610d9b565b50600060028a81548110610f4357610f426133da565b5b90600052602060002090600a020160050154905083811115610fd6576000670de0b6b3a76400008583610f7691906137c2565b88610f819190613720565b610f8b9190613791565b90508573ffffffffffffffffffffffffffffffffffffffff166108fc829081150290604051600060405180830381858888f19350505050158015610fd3573d6000803e3d6000fd5b50505b6001600360008c815260200190815260200160002060006101000a81548160ff02191690831515021790555050505050505050505050565b600060028281548110611024576110236133da565b5b90600052602060002090600a020160000160009054906101000a900473ffffffffffffffffffffffffffffffffffffffff169050919050565b6001151560028381548110611075576110746133da565b5b90600052602060002090600a020160000160159054906101000a900460ff161515146110d6576040517f08c379a00000000000000000000000000000000000000000000000000000000081526004016110cd90613842565b60405180910390fd5b3373ffffffffffffffffffffffffffffffffffffffff1660028381548110611101576111006133da565b5b90600052602060002090600a020160000160009054906101000a900473ffffffffffffffffffffffffffffffffffffffff1673ffffffffffffffffffffffffffffffffffffffff1614611189576040517f08c379a0000000000000000000000000000000000000000000000000000000008152600401611180906138d4565b60405180910390fd5b6000670de0b6b3a764000082600285815481106111a9576111a86133da565b5b90600052602060002090600a0201600401546111c59190613720565b6111cf9190613791565b905080341015611214576040517f08c379a000000000000000000000000000000000000000000000000000000000815260040161120b90613966565b60405180910390fd5b60028381548110611228576112276133da565b5b90600052602060002090600a020160050154826112459190613536565b60028481548110611259576112586133da565b5b90600052602060002090600a020160050181905550505050565b600081116112b6576040517f08c379a00000000000000000000000000000000000000000000000000000000081526004016112ad906139d2565b60405180910390fd5b6005600083815260200190815260200160002060003373ffffffffffffffffffffffffffffffffffffffff1673ffffffffffffffffffffffffffffffffffffffff16815260200190815260200160002054811115611349576040517f08c379a000000000000000000000000000000000000000000000000000000000815260040161134090613a64565b60405180910390fd5b6001600281111561135d5761135c6132b6565b5b60028381548110611371576113706133da565b5b90600052602060002090600a020160080160009054906101000a900460ff1660028111156113a2576113a16132b6565b5b036113e2576040517f08c379a00000000000000000000000000000000000000000000000000000000081526004016113d990613ad0565b60405180910390fd5b600060028111156113f6576113f56132b6565b5b6002838154811061140a576114096133da565b5b90600052602060002090600a020160080160009054906101000a900460ff16600281111561143b5761143a6132b6565b5b036115cf576000670de0b6b3a7640000600154836114599190613720565b6114639190613791565b9050600760009054906101000a900473ffffffffffffffffffffffffffffffffffffffff1673ffffffffffffffffffffffffffffffffffffffff166108fc829081150290604051600060405180830381858888f193505050501580156114cd573d6000803e3d6000fd5b50600081836114dc91906137c2565b9050826005600086815260200190815260200160002060003373ffffffffffffffffffffffffffffffffffffffff1673ffffffffffffffffffffffffffffffffffffffff168152602001908152602001600020600082825461153e91906137c2565b92505081905550826002858154811061155a576115596133da565b5b90600052602060002090600a0201600601600082825461157a91906137c2565b925050819055503373ffffffffffffffffffffffffffffffffffffffff166108fc829081150290604051600060405180830381858888f193505050501580156115c7573d6000803e3d6000fd5b505050611876565b6000670de0b6b3a7640000600054836115e89190613720565b6115f29190613791565b90506000670de0b6b3a764000060028581548110611613576116126133da565b5b90600052602060002090600a020160070154846116309190613720565b61163a9190613791565b9050600760009054906101000a900473ffffffffffffffffffffffffffffffffffffffff1673ffffffffffffffffffffffffffffffffffffffff166108fc839081150290604051600060405180830381858888f193505050501580156116a4573d6000803e3d6000fd5b50600284815481106116b9576116b86133da565b5b90600052602060002090600a020160000160009054906101000a900473ffffffffffffffffffffffffffffffffffffffff1673ffffffffffffffffffffffffffffffffffffffff166108fc829081150290604051600060405180830381858888f19350505050158015611730573d6000803e3d6000fd5b506000670de0b6b3a764000060046000878152602001908152602001600020548561175b9190613720565b6117659190613791565b82848661177291906137c2565b61177c91906137c2565b6117869190613536565b9050836005600087815260200190815260200160002060003373ffffffffffffffffffffffffffffffffffffffff1673ffffffffffffffffffffffffffffffffffffffff16815260200190815260200160002060008282546117e891906137c2565b925050819055508360028681548110611804576118036133da565b5b90600052602060002090600a0201600601600082825461182491906137c2565b925050819055503373ffffffffffffffffffffffffffffffffffffffff166108fc829081150290604051600060405180830381858888f19350505050158015611871573d6000803e3d6000fd5b505050505b5050565b600760009054906101000a900473ffffffffffffffffffffffffffffffffffffffff1673ffffffffffffffffffffffffffffffffffffffff163373ffffffffffffffffffffffffffffffffffffffff161461190a576040517f08c379a0000000000000000000000000000000000000000000000000000000008152600401611901906133ba565b60405180910390fd5b60028081111561191d5761191c6132b6565b5b60028281548110611931576119306133da565b5b90600052602060002090600a020160080160009054906101000a900460ff166002811115611962576119616132b6565b5b146119a2576040517f08c379a000000000000000000000000000000000000000000000000000000000815260040161199990613b3c565b60405180910390fd5b6000670de0b6b3a7640000600054600284815481106119c4576119c36133da565b5b90600052602060002090600a0201600601546119e09190613720565b6119ea9190613791565b9050600760009054906101000a900473ffffffffffffffffffffffffffffffffffffffff1673ffffffffffffffffffffffffffffffffffffffff166108fc829081150290604051600060405180830381858888f19350505050158015611a54573d6000803e3d6000fd5b50600060028381548110611a6b57611a6a6133da565b5b90600052602060002090600a0201600501549050600060028481548110611a9557611a946133da565b5b90600052602060002090600a020160090180549050905060005b81811015611c2a57600060028681548110611acd57611acc6133da565b5b90600052602060002090600a02016009018281548110611af057611aef6133da565b5b9060005260206000200160009054906101000a900473ffffffffffffffffffffffffffffffffffffffff16905060006005600088815260200190815260200160002060008373ffffffffffffffffffffffffffffffffffffffff1673ffffffffffffffffffffffffffffffffffffffff1681526020019081526020016000205490506000811115611c1d576000670de0b6b3a76400008683611b929190613720565b60005484611ba09190613720565b670de0b6b3a764000085611bb49190613720565b611bbe91906137c2565b611bc89190613536565b611bd29190613791565b90508273ffffffffffffffffffffffffffffffffffffffff166108fc829081150290604051600060405180830381858888f19350505050158015611c1a573d6000803e3d6000fd5b50505b8260010192505050611aaf565b5060016003600086815260200190815260200160002060006101000a81548160ff02191690831515021790555050505050565b606060008060008060008060028881548110611c7c57611c7b6133da565b5b90600052602060002090600a020160020160028981548110611ca157611ca06133da565b5b90600052602060002090600a02016001015460028a81548110611cc757611cc66133da565b5b90600052602060002090600a02016003015460028b81548110611ced57611cec6133da565b5b90600052602060002090600a02016004015460028c81548110611d1357611d126133da565b5b90600052602060002090600a02016005015460028d81548110611d3957611d386133da565b5b90600052602060002090600a02016006015460028e81548110611d5f57611d5e6133da565b5b90600052602060002090600a020160070154868054611d7d90613b8b565b80601f0160208091040260200160405190810160405280929190818152602001828054611da990613b8b565b8015611df65780601f10611dcb57610100808354040283529160200191611df6565b820191906000526020600020905b815481529060010190602001808311611dd957829003601f168201915b505050505096509650965096509650965096509650919395979092949650565b803373ffffffffffffffffffffffffffffffffffffffff1660028281548110611e4257611e416133da565b5b90600052602060002090600a020160000160009054906101000a900473ffffffffffffffffffffffffffffffffffffffff1673ffffffffffffffffffffffffffffffffffffffff1614611eca576040517f08c379a0000000000000000000000000000000000000000000000000000000008152600401611ec1906138d4565b60405180910390fd5b60028181548110611ede57611edd6133da565b5b90600052602060002090600a020160000160159054906101000a900460ff1615611f3d576040517f08c379a0000000000000000000000000000000000000000000000000000000008152600401611f3490613c08565b60405180910390fd5b60016002811115611f5157611f506132b6565b5b60028281548110611f6557611f646133da565b5b90600052602060002090600a020160080160009054906101000a900460ff166002811115611f9657611f956132b6565b5b14611fd6576040517f08c379a0000000000000000000000000000000000000000000000000000000008152600401611fcd90613c9a565b60405180910390fd5b6000670de0b6b3a764000060028481548110611ff557611ff46133da565b5b90600052602060002090600a0201600501546002858154811061201b5761201a6133da565b5b90600052602060002090600a0201600601546120379190613720565b6120419190613791565b905080341015612086576040517f08c379a000000000000000000000000000000000000000000000000000000000815260040161207d90613d2c565b60405180910390fd5b60016002848154811061209c5761209b6133da565b5b90600052602060002090600a020160000160156101000a81548160ff02191690831515021790555060028084815481106120d9576120d86133da565b5b90600052602060002090600a020160080160006101000a81548160ff0219169083600281111561210c5761210b6132b6565b5b0217905550505050565b60006002828154811061212c5761212b6133da565b5b90600052602060002090600a020160000160149054906101000a900460ff169050919050565b600760009054906101000a900473ffffffffffffffffffffffffffffffffffffffff1673ffffffffffffffffffffffffffffffffffffffff163373ffffffffffffffffffffffffffffffffffffffff16146121e2576040517f08c379a00000000000000000000000000000000000000000000000000000000081526004016121d9906133ba565b60405180910390fd5b6001600282815481106121f8576121f76133da565b5b90600052602060002090600a020160000160166101000a81548160ff02191690831515021790555060028181548110612234576122336133da565b5b90600052602060002090600a0201600501546004600083815260200190815260200160002054111561229e5760028181548110612274576122736133da565b5b90600052602060002090600a02016005015460046000838152602001908152602001600020819055505b50565b600760009054906101000a900473ffffffffffffffffffffffffffffffffffffffff1673ffffffffffffffffffffffffffffffffffffffff163373ffffffffffffffffffffffffffffffffffffffff1614612331576040517f08c379a0000000000000000000000000000000000000000000000000000000008152600401612328906133ba565b60405180910390fd5b8060028381548110612346576123456133da565b5b90600052602060002090600a020160080160006101000a81548160ff02191690836002811115612379576123786132b6565b5b02179055505050565b600083116123c5576040517f08c379a00000000000000000000000000000000000000000000000000000000081526004016123bc90613dbe565b60405180910390fd5b600660003373ffffffffffffffffffffffffffffffffffffffff1673ffffffffffffffffffffffffffffffffffffffff16815260200190815260200160002060028054905090806001815401808255809150506001900390600052602060002001600090919091909150556002604051806101a001604052803373ffffffffffffffffffffffffffffffffffffffff168152602001600115158152602001600015158152602001600015158152602001600280549050815260200187815260200186815260200185815260200184815260200160008152602001838152602001600060028111156124b9576124b86132b6565b5b8152602001600067ffffffffffffffff8111156124d9576124d8612fbb565b5b6040519080825280602002602001820160405280156125075781602001602082028036833780820191505090505b5081525090806001815401808255809150506001900390600052602060002090600a020160009091909190915060008201518160000160006101000a81548173ffffffffffffffffffffffffffffffffffffffff021916908373ffffffffffffffffffffffffffffffffffffffff16021790555060208201518160000160146101000a81548160ff02191690831515021790555060408201518160000160156101000a81548160ff02191690831515021790555060608201518160000160166101000a81548160ff0219169083151502179055506080820151816001015560a08201518160020190816125fa9190613f8a565b5060c0820151816003015560e082015181600401556101008201518160050155610120820151816006015561014082015181600701556101608201518160080160006101000a81548160ff0219169083600281111561265c5761265b6132b6565b5b021790555061018082015181600901908051906020019061267e929190612c2c565b5050505050505050565b60606000600280549050905060008167ffffffffffffffff8111156126b0576126af612fbb565b5b6040519080825280602002602001820160405280156126de5781602001602082028036833780820191505090505b50905060005b8281101561273c5760028181548110612700576126ff6133da565b5b90600052602060002090600a020160010154828281518110612725576127246133da565b5b6020026020010181815250508060010190506126e4565b50809250505090565b600760009054906101000a900473ffffffffffffffffffffffffffffffffffffffff1681565b600060028281548110612781576127806133da565b5b90600052602060002090600a020160000160159054906101000a900460ff169050919050565b6000600282815481106127bd576127bc6133da565b5b90600052602060002090600a020160000160169054906101000a900460ff169050919050565b60006003600083815260200190815260200160002060009054906101000a900460ff169050919050565b600060046000838152602001908152602001600020549050919050565b600760009054906101000a900473ffffffffffffffffffffffffffffffffffffffff1673ffffffffffffffffffffffffffffffffffffffff163373ffffffffffffffffffffffffffffffffffffffff16146128ba576040517f08c379a00000000000000000000000000000000000000000000000000000000081526004016128b1906133ba565b60405180910390fd5b8060046000848152602001908152602001600020819055505050565b600760009054906101000a900473ffffffffffffffffffffffffffffffffffffffff1673ffffffffffffffffffffffffffffffffffffffff163373ffffffffffffffffffffffffffffffffffffffff1614612966576040517f08c379a000000000000000000000000000000000000000000000000000000000815260040161295d906133ba565b60405180910390fd5b8060008190555050565b60015481565b6060600660008373ffffffffffffffffffffffffffffffffffffffff1673ffffffffffffffffffffffffffffffffffffffff168152602001908152602001600020805480602002602001604051908101604052809291908181526020018280548015612a0157602002820191906000526020600020905b8154815260200190600101908083116129ed575b50505050509050919050565b600060028281548110612a2357612a226133da565b5b90600052602060002090600a020160080160009054906101000a900460ff169050919050565b8160006002811115612a5e57612a5d6132b6565b5b60028281548110612a7257612a716133da565b5b90600052602060002090600a020160080160009054906101000a900460ff166002811115612aa357612aa26132b6565b5b14612ae3576040517f08c379a0000000000000000000000000000000000000000000000000000000008152600401612ada90613455565b60405180910390fd5b3373ffffffffffffffffffffffffffffffffffffffff1660028481548110612b0e57612b0d6133da565b5b90600052602060002090600a020160000160009054906101000a900473ffffffffffffffffffffffffffffffffffffffff1673ffffffffffffffffffffffffffffffffffffffff1614612b96576040517f08c379a0000000000000000000000000000000000000000000000000000000008152600401612b8d906140ce565b60405180910390fd5b60028381548110612baa57612ba96133da565b5b90600052602060002090600a0201600401548211612bfd576040517f08c379a0000000000000000000000000000000000000000000000000000000008152600401612bf490614160565b60405180910390fd5b8160028481548110612c1257612c116133da565b5b90600052602060002090600a020160040181905550505050565b828054828255906000526020600020908101928215612ca5579160200282015b82811115612ca45782518260006101000a81548173ffffffffffffffffffffffffffffffffffffffff021916908373ffffffffffffffffffffffffffffffffffffffff16021790555091602001919060010190612c4c565b5b509050612cb29190612cb6565b5090565b5b80821115612ccf576000816000905550600101612cb7565b5090565b6000604051905090565b600080fd5b600080fd5b6000819050919050565b612cfa81612ce7565b8114612d0557600080fd5b50565b600081359050612d1781612cf1565b92915050565b600060208284031215612d3357612d32612cdd565b5b6000612d4184828501612d08565b91505092915050565b612d5381612ce7565b82525050565b6000602082019050612d6e6000830184612d4a565b92915050565b600073ffffffffffffffffffffffffffffffffffffffff82169050919050565b6000612d9f82612d74565b9050919050565b612daf81612d94565b82525050565b6000602082019050612dca6000830184612da6565b92915050565b60008060408385031215612de757612de6612cdd565b5b6000612df585828601612d08565b9250506020612e0685828601612d08565b9150509250929050565b600081519050919050565b600082825260208201905092915050565b60005b83811015612e4a578082015181840152602081019050612e2f565b60008484015250505050565b6000601f19601f8301169050919050565b6000612e7282612e10565b612e7c8185612e1b565b9350612e8c818560208601612e2c565b612e9581612e56565b840191505092915050565b600060e0820190508181036000830152612eba818a612e67565b9050612ec96020830189612d4a565b612ed66040830188612d4a565b612ee36060830187612d4a565b612ef06080830186612d4a565b612efd60a0830185612d4a565b612f0a60c0830184612d4a565b98975050505050505050565b60008115159050919050565b612f2b81612f16565b82525050565b6000602082019050612f466000830184612f22565b92915050565b60038110612f5957600080fd5b50565b600081359050612f6b81612f4c565b92915050565b60008060408385031215612f8857612f87612cdd565b5b6000612f9685828601612d08565b9250506020612fa785828601612f5c565b9150509250929050565b600080fd5b600080fd5b7f4e487b7100000000000000000000000000000000000000000000000000000000600052604160045260246000fd5b612ff382612e56565b810181811067ffffffffffffffff8211171561301257613011612fbb565b5b80604052505050565b6000613025612cd3565b90506130318282612fea565b919050565b600067ffffffffffffffff82111561305157613050612fbb565b5b61305a82612e56565b9050602081019050919050565b82818337600083830152505050565b600061308961308484613036565b61301b565b9050828152602081018484840111156130a5576130a4612fb6565b5b6130b0848285613067565b509392505050565b600082601f8301126130cd576130cc612fb1565b5b81356130dd848260208601613076565b91505092915050565b600080600080600060a0868803121561310257613101612cdd565b5b600086013567ffffffffffffffff8111156131205761311f612ce2565b5b61312c888289016130b8565b955050602061313d88828901612d08565b945050604061314e88828901612d08565b935050606061315f88828901612d08565b925050608061317088828901612d08565b9150509295509295909350565b600081519050919050565b600082825260208201905092915050565b6000819050602082019050919050565b6131b281612ce7565b82525050565b60006131c483836131a9565b60208301905092915050565b6000602082019050919050565b60006131e88261317d565b6131f28185613188565b93506131fd83613199565b8060005b8381101561322e57815161321588826131b8565b9750613220836131d0565b925050600181019050613201565b5085935050505092915050565b6000602082019050818103600083015261325581846131dd565b905092915050565b61326681612d94565b811461327157600080fd5b50565b6000813590506132838161325d565b92915050565b60006020828403121561329f5761329e612cdd565b5b60006132ad84828501613274565b91505092915050565b7f4e487b7100000000000000000000000000000000000000000000000000000000600052602160045260246000fd5b600381106132f6576132f56132b6565b5b50565b6000819050613307826132e5565b919050565b6000613317826132f9565b9050919050565b6133278161330c565b82525050565b6000602082019050613342600083018461331e565b92915050565b7f4f6e6c7920746865206f776e65722063616e2063616c6c20746869732066756e60008201527f6374696f6e000000000000000000000000000000000000000000000000000000602082015250565b60006133a4602583612e1b565b91506133af82613348565b604082019050919050565b600060208201905081810360008301526133d381613397565b9050919050565b7f4e487b7100000000000000000000000000000000000000000000000000000000600052603260045260246000fd5b7f506f7274666f6c696f206e6f7420696e206f70656e2073746174650000000000600082015250565b600061343f601b83612e1b565b915061344a82613409565b602082019050919050565b6000602082019050818103600083015261346e81613432565b9050919050565b7f416d6f756e742073686f756c642062652067726561746572207468616e20746860008201527f65206d696e696d756d20616d6f756e7400000000000000000000000000000000602082015250565b60006134d1603083612e1b565b91506134dc82613475565b604082019050919050565b60006020820190508181036000830152613500816134c4565b9050919050565b7f4e487b7100000000000000000000000000000000000000000000000000000000600052601160045260246000fd5b600061354182612ce7565b915061354c83612ce7565b925082820190508082111561356457613563613507565b5b92915050565b7f416d6f756e742073686f756c64206265206c657373207468616e20746865207460008201527f6f74616c2066756e647300000000000000000000000000000000000000000000602082015250565b60006135c6602a83612e1b565b91506135d18261356a565b604082019050919050565b600060208201905081810360008301526135f5816135b9565b9050919050565b7f506f7274666f6c696f2061696e277420696e2074726164696e67206d6f646521600082015250565b6000613632602083612e1b565b915061363d826135fc565b602082019050919050565b6000602082019050818103600083015261366181613625565b9050919050565b7f4f6e6c7920746865206d616e616765722063616e2063616c6c2074686973206660008201527f756e6374696f6e206f722069662074686520646561646c696e6520686173206160208201527f7070726f61636865640000000000000000000000000000000000000000000000604082015250565b60006136ea604983612e1b565b91506136f582613668565b606082019050919050565b60006020820190508181036000830152613719816136dd565b9050919050565b600061372b82612ce7565b915061373683612ce7565b925082820261374481612ce7565b9150828204841483151761375b5761375a613507565b5b5092915050565b7f4e487b7100000000000000000000000000000000000000000000000000000000600052601260045260246000fd5b600061379c82612ce7565b91506137a783612ce7565b9250826137b7576137b6613762565b5b828204905092915050565b60006137cd82612ce7565b91506137d883612ce7565b92508282039050818111156137f0576137ef613507565b5b92915050565b7f46697273742070617920796f757220696e697469616c20616d6f756e74000000600082015250565b600061382c601d83612e1b565b9150613837826137f6565b602082019050919050565b6000602082019050818103600083015261385b8161381f565b9050919050565b7f4f6e6c7920746865206d616e616765722063616e2063616c6c2074686973206660008201527f756e6374696f6e00000000000000000000000000000000000000000000000000602082015250565b60006138be602783612e1b565b91506138c982613862565b604082019050919050565b600060208201905081810360008301526138ed816138b1565b9050919050565b7f416d6f756e742073686f756c6420626520657175616c20746f2074686520696e60008201527f6372656173656420616d6f756e74000000000000000000000000000000000000602082015250565b6000613950602e83612e1b565b915061395b826138f4565b604082019050919050565b6000602082019050818103600083015261397f81613943565b9050919050565b7f416d6f756e742073686f756c642062652067726561746572207468616e203000600082015250565b60006139bc601f83612e1b565b91506139c782613986565b602082019050919050565b600060208201905081810360008301526139eb816139af565b9050919050565b7f596f7520646f6e2774206861766520656e6f75676820616d6f756e7420746f2060008201527f7769746864726177000000000000000000000000000000000000000000000000602082015250565b6000613a4e602883612e1b565b9150613a59826139f2565b604082019050919050565b60006020820190508181036000830152613a7d81613a41565b9050919050565b7f596f752063616e2774207769746864726177206e6f7700000000000000000000600082015250565b6000613aba601683612e1b565b9150613ac582613a84565b602082019050919050565b60006020820190508181036000830152613ae981613aad565b9050919050565b7f506f7274666f6c696f206973206e6f7420696e20616374696f6e000000000000600082015250565b6000613b26601a83612e1b565b9150613b3182613af0565b602082019050919050565b60006020820190508181036000830152613b5581613b19565b9050919050565b7f4e487b7100000000000000000000000000000000000000000000000000000000600052602260045260246000fd5b60006002820490506001821680613ba357607f821691505b602082108103613bb657613bb5613b5c565b5b50919050565b7f4d616e616765722068617320706169642074686520616d6f756e740000000000600082015250565b6000613bf2601b83612e1b565b9150613bfd82613bbc565b602082019050919050565b60006020820190508181036000830152613c2181613be5565b9050919050565b7f506f7274666f6c696f206973206e6f74206f70656e20666f72206d616e61676560008201527f7220746f207061792074686520616d6f756e7400000000000000000000000000602082015250565b6000613c84603383612e1b565b9150613c8f82613c28565b604082019050919050565b60006020820190508181036000830152613cb381613c77565b9050919050565b7f416d6f756e742073686f756c6420626520657175616c20746f2074686520746f60008201527f74616c2066756e64730000000000000000000000000000000000000000000000602082015250565b6000613d16602983612e1b565b9150613d2182613cba565b604082019050919050565b60006020820190508181036000830152613d4581613d09565b9050919050565b7f546f74616c2066756e64732073686f756c64206265206772656174657220746860008201527f616e203000000000000000000000000000000000000000000000000000000000602082015250565b6000613da8602483612e1b565b9150613db382613d4c565b604082019050919050565b60006020820190508181036000830152613dd781613d9b565b9050919050565b60008190508160005260206000209050919050565b60006020601f8301049050919050565b600082821b905092915050565b600060088302613e407fffffffffffffffffffffffffffffffffffffffffffffffffffffffffffffffff82613e03565b613e4a8683613e03565b95508019841693508086168417925050509392505050565b6000819050919050565b6000613e87613e82613e7d84612ce7565b613e62565b612ce7565b9050919050565b6000819050919050565b613ea183613e6c565b613eb5613ead82613e8e565b848454613e10565b825550505050565b600090565b613eca613ebd565b613ed5818484613e98565b505050565b5b81811015613ef957613eee600082613ec2565b600181019050613edb565b5050565b601f821115613f3e57613f0f81613dde565b613f1884613df3565b81016020851015613f27578190505b613f3b613f3385613df3565b830182613eda565b50505b505050565b600082821c905092915050565b6000613f6160001984600802613f43565b1980831691505092915050565b6000613f7a8383613f50565b9150826002028217905092915050565b613f9382612e10565b67ffffffffffffffff811115613fac57613fab612fbb565b5b613fb68254613b8b565b613fc1828285613efd565b600060209050601f831160018114613ff45760008415613fe2578287015190505b613fec8582613f6e565b865550614054565b601f19841661400286613dde565b60005b8281101561402a57848901518255600182019150602085019450602081019050614005565b868310156140475784890151614043601f891682613f50565b8355505b6001600288020188555050505b505050505050565b7f4f6e6c7920746865206d616e616765722063616e206368616e6765207468652060008201527f746f74616c2066756e6473000000000000000000000000000000000000000000602082015250565b60006140b8602b83612e1b565b91506140c38261405c565b604082019050919050565b600060208201905081810360008301526140e7816140ab565b9050919050565b7f4e657720746f74616c2066756e64732073686f756c642062652067726561746560008201527f72207468616e207468652070726576696f7573206f6e65000000000000000000602082015250565b600061414a603783612e1b565b9150614155826140ee565b604082019050919050565b600060208201905081810360008301526141798161413d565b905091905056fea2646970667358221220564c2594c984bbbbb0d01305576a666f72ec8b24860553af3f840cc10be2286364736f6c63430008140033",
  "linkReferences": {},
  "deployedLinkReferences": {}
}