{
  "_format": "hh-sol-artifact-1",
  "contractName": "Platform",
  "sourceName": "contracts/Platform.sol",
  "abi": [
    {
      "inputs": [],
      "stateMutability": "nonpayable",
      "type": "constructor"
    },
    {
      "inputs": [
        {
          "internalType": "uint256",
          "name": "_id",
          "type": "uint256"
        },
        {
          "internalType": "uint256",
          "name": "_increasedPercentage",
          "type": "uint256"
        }
      ],
      "name": "changeMaxReturn",
      "outputs": [],
      "stateMutability": "payable",
      "type": "function"
    },
    {
      "inputs": [
        {
          "internalType": "uint256",
          "name": "_fee",
          "type": "uint256"
        }
      ],
      "name": "changePlatformFee",
      "outputs": [],
      "stateMutability": "nonpayable",
      "type": "function"
    },
    {
      "inputs": [
        {
          "internalType": "uint256",
          "name": "_id",
          "type": "uint256"
        },
        {
          "internalType": "enum Platform.PortfolioStatus",
          "name": "_state",
          "type": "uint8"
        }
      ],
      "name": "changeState",
      "outputs": [],
      "stateMutability": "nonpayable",
      "type": "function"
    },
    {
      "inputs": [
        {
          "internalType": "uint256",
          "name": "_id",
          "type": "uint256"
        },
        {
          "internalType": "uint256",
          "name": "_totalFunds",
          "type": "uint256"
        }
      ],
      "name": "changeTotalFunds",
      "outputs": [],
      "stateMutability": "nonpayable",
      "type": "function"
    },
    {
      "inputs": [
        {
          "internalType": "uint256",
          "name": "_id",
          "type": "uint256"
        }
      ],
      "name": "closePortfolio",
      "outputs": [],
      "stateMutability": "nonpayable",
      "type": "function"
    },
    {
      "inputs": [
        {
          "internalType": "string",
          "name": "_name",
          "type": "string"
        },
        {
          "internalType": "uint256",
          "name": "_minAmount",
          "type": "uint256"
        },
        {
          "internalType": "uint256",
          "name": "_totalFunds",
          "type": "uint256"
        },
        {
          "internalType": "uint256",
          "name": "_maxReturn",
          "type": "uint256"
        },
        {
          "internalType": "uint256",
          "name": "_feePercent",
          "type": "uint256"
        }
      ],
      "name": "createPortfolio",
      "outputs": [],
      "stateMutability": "nonpayable",
      "type": "function"
    },
    {
      "inputs": [
        {
          "internalType": "uint256",
          "name": "_id",
          "type": "uint256"
        }
      ],
      "name": "endPortfolio",
      "outputs": [],
      "stateMutability": "nonpayable",
      "type": "function"
    },
    {
      "inputs": [
        {
          "internalType": "address",
          "name": "_to",
          "type": "address"
        }
      ],
      "name": "getPortfolioIds",
      "outputs": [
        {
          "internalType": "uint256[]",
          "name": "",
          "type": "uint256[]"
        }
      ],
      "stateMutability": "view",
      "type": "function"
    },
    {
      "inputs": [
        {
          "internalType": "uint256",
          "name": "_id",
          "type": "uint256"
        }
      ],
      "name": "getPortfolioMajorDetails",
      "outputs": [
        {
          "internalType": "string",
          "name": "",
          "type": "string"
        },
        {
          "internalType": "uint256",
          "name": "",
          "type": "uint256"
        },
        {
          "internalType": "uint256",
          "name": "",
          "type": "uint256"
        },
        {
          "internalType": "uint256",
          "name": "",
          "type": "uint256"
        },
        {
          "internalType": "uint256",
          "name": "",
          "type": "uint256"
        },
        {
          "internalType": "uint256",
          "name": "",
          "type": "uint256"
        },
        {
          "internalType": "uint256",
          "name": "",
          "type": "uint256"
        }
      ],
      "stateMutability": "view",
      "type": "function"
    },
    {
      "inputs": [
        {
          "internalType": "uint256",
          "name": "_id",
          "type": "uint256"
        }
      ],
      "name": "getPortfolioManager",
      "outputs": [
        {
          "internalType": "address",
          "name": "",
          "type": "address"
        }
      ],
      "stateMutability": "view",
      "type": "function"
    },
    {
      "inputs": [
        {
          "internalType": "uint256",
          "name": "_id",
          "type": "uint256"
        }
      ],
      "name": "getPortfolioStatus",
      "outputs": [
        {
          "internalType": "enum Platform.PortfolioStatus",
          "name": "",
          "type": "uint8"
        }
      ],
      "stateMutability": "view",
      "type": "function"
    },
    {
      "inputs": [
        {
          "internalType": "uint256",
          "name": "id",
          "type": "uint256"
        }
      ],
      "name": "getReturns",
      "outputs": [
        {
          "internalType": "uint256",
          "name": "",
          "type": "uint256"
        }
      ],
      "stateMutability": "view",
      "type": "function"
    },
    {
      "inputs": [
        {
          "internalType": "uint256",
          "name": "_id",
          "type": "uint256"
        }
      ],
      "name": "hasDeadlineApproached",
      "outputs": [
        {
          "internalType": "bool",
          "name": "",
          "type": "bool"
        }
      ],
      "stateMutability": "view",
      "type": "function"
    },
    {
      "inputs": [
        {
          "internalType": "uint256",
          "name": "_portfolioId",
          "type": "uint256"
        }
      ],
      "name": "invest",
      "outputs": [],
      "stateMutability": "payable",
      "type": "function"
    },
    {
      "inputs": [
        {
          "internalType": "uint256",
          "name": "_id",
          "type": "uint256"
        }
      ],
      "name": "isPortfolioOpen",
      "outputs": [
        {
          "internalType": "bool",
          "name": "",
          "type": "bool"
        }
      ],
      "stateMutability": "view",
      "type": "function"
    },
    {
      "inputs": [
        {
          "internalType": "uint256",
          "name": "_id",
          "type": "uint256"
        }
      ],
      "name": "isPortfolioPaid",
      "outputs": [
        {
          "internalType": "bool",
          "name": "",
          "type": "bool"
        }
      ],
      "stateMutability": "view",
      "type": "function"
    },
    {
      "inputs": [
        {
          "internalType": "uint256",
          "name": "_id",
          "type": "uint256"
        }
      ],
      "name": "markDeadlineApproached",
      "outputs": [],
      "stateMutability": "nonpayable",
      "type": "function"
    },
    {
      "inputs": [
        {
          "internalType": "address",
          "name": "",
          "type": "address"
        },
        {
          "internalType": "uint256",
          "name": "",
          "type": "uint256"
        }
      ],
      "name": "myPortfolios",
      "outputs": [
        {
          "internalType": "uint256",
          "name": "",
          "type": "uint256"
        }
      ],
      "stateMutability": "view",
      "type": "function"
    },
    {
      "inputs": [],
      "name": "owner",
      "outputs": [
        {
          "internalType": "address",
          "name": "",
          "type": "address"
        }
      ],
      "stateMutability": "view",
      "type": "function"
    },
    {
      "inputs": [
        {
          "internalType": "uint256",
          "name": "_id",
          "type": "uint256"
        }
      ],
      "name": "payAmount",
      "outputs": [],
      "stateMutability": "payable",
      "type": "function"
    },
    {
      "inputs": [],
      "name": "platformFee",
      "outputs": [
        {
          "internalType": "uint256",
          "name": "",
          "type": "uint256"
        }
      ],
      "stateMutability": "view",
      "type": "function"
    },
    {
      "inputs": [
        {
          "internalType": "uint256",
          "name": "",
          "type": "uint256"
        },
        {
          "internalType": "address",
          "name": "",
          "type": "address"
        }
      ],
      "name": "portfolioInvestors",
      "outputs": [
        {
          "internalType": "uint256",
          "name": "",
          "type": "uint256"
        }
      ],
      "stateMutability": "view",
      "type": "function"
    },
    {
      "inputs": [
        {
          "internalType": "uint256",
          "name": "",
          "type": "uint256"
        }
      ],
      "name": "portfolioReturns",
      "outputs": [
        {
          "internalType": "uint256",
          "name": "",
          "type": "uint256"
        }
      ],
      "stateMutability": "view",
      "type": "function"
    },
    {
      "inputs": [
        {
          "internalType": "uint256",
          "name": "",
          "type": "uint256"
        }
      ],
      "name": "portfolios",
      "outputs": [
        {
          "internalType": "address",
          "name": "manager",
          "type": "address"
        },
        {
          "internalType": "bool",
          "name": "isOpen",
          "type": "bool"
        },
        {
          "internalType": "bool",
          "name": "isPaid",
          "type": "bool"
        },
        {
          "internalType": "bool",
          "name": "deadlineApproached",
          "type": "bool"
        },
        {
          "internalType": "uint256",
          "name": "id",
          "type": "uint256"
        },
        {
          "internalType": "string",
          "name": "name",
          "type": "string"
        },
        {
          "internalType": "uint256",
          "name": "minAmount",
          "type": "uint256"
        },
        {
          "internalType": "uint256",
          "name": "totalFunds",
          "type": "uint256"
        },
        {
          "internalType": "uint256",
          "name": "maxReturn",
          "type": "uint256"
        },
        {
          "internalType": "uint256",
          "name": "amountCollected",
          "type": "uint256"
        },
        {
          "internalType": "uint256",
          "name": "feePercent",
          "type": "uint256"
        },
        {
          "internalType": "enum Platform.PortfolioStatus",
          "name": "status",
          "type": "uint8"
        }
      ],
      "stateMutability": "view",
      "type": "function"
    },
    {
      "inputs": [
        {
          "internalType": "uint256",
          "name": "id",
          "type": "uint256"
        },
        {
          "internalType": "uint256",
          "name": "_amount",
          "type": "uint256"
        }
      ],
      "name": "setReturns",
      "outputs": [],
      "stateMutability": "nonpayable",
      "type": "function"
    },
    {
      "inputs": [
        {
          "internalType": "uint256",
          "name": "_id",
          "type": "uint256"
        }
      ],
      "name": "terminatePortfolio",
      "outputs": [],
      "stateMutability": "nonpayable",
      "type": "function"
    },
    {
      "inputs": [
        {
          "internalType": "uint256",
          "name": "_portfolioId",
          "type": "uint256"
        },
        {
          "internalType": "uint256",
          "name": "amount",
          "type": "uint256"
        }
      ],
      "name": "withdraw",
      "outputs": [],
      "stateMutability": "nonpayable",
      "type": "function"
    },
    {
      "inputs": [],
      "name": "withdrawFee",
      "outputs": [
        {
          "internalType": "uint256",
          "name": "",
          "type": "uint256"
        }
      ],
      "stateMutability": "view",
      "type": "function"
    }
  ],
  "bytecode": "0x6080604052662386f26fc10000600055661550f7dca7000060015534801561002657600080fd5b5033600660006101000a81548173ffffffffffffffffffffffffffffffffffffffff021916908373ffffffffffffffffffffffffffffffffffffffff160217905550614678806100776000396000f3fe6080604052600436106101b75760003560e01c8063627b43f1116100ec578063b23ca7041161008a578063e941fa7811610064578063e941fa781461064a578063ed6d280014610675578063ed8dc217146106b2578063fd36c3d0146106ef576101b7565b8063b23ca704146105bb578063d27eee77146105f8578063d7a5791a14610621576101b7565b80637ff73301116100c65780637ff73301146104ed5780638da5cb5b1461051657806390d36fd2146105415780639ccd8e9e1461057e576101b7565b8063627b43f11461045e578063693afcd91461049b5780636e630649146104c4576101b7565b80633321051b11610159578063441a3e7011610133578063441a3e70146103ad5780634c5b20f3146103d65780635f08b866146103ff5780635f93625614610442576101b7565b80633321051b1461030c578063367ca9141461032857806340a38b0414610370576101b7565b806326232a2e1161019557806326232a2e1461025f5780632afcf4801461028a5780632b5d3ddc146102a65780632f1253a4146102cf576101b7565b806302f6fa99146101bc5780630cfe5955146101e55780631540211614610222575b600080fd5b3480156101c857600080fd5b506101e360048036038101906101de919061309e565b610718565b005b3480156101f157600080fd5b5061020c60048036038101906102079190613129565b610837565b6040516102199190613178565b60405180910390f35b34801561022e57600080fd5b506102496004803603810190610244919061309e565b61085c565b6040516102569190613178565b60405180910390f35b34801561026b57600080fd5b50610274610874565b6040516102819190613178565b60405180910390f35b6102a4600480360381019061029f919061309e565b61087a565b005b3480156102b257600080fd5b506102cd60048036038101906102c8919061309e565b610b41565b005b3480156102db57600080fd5b506102f660048036038101906102f1919061309e565b6111d8565b60405161030391906131a2565b60405180910390f35b610326600480360381019061032191906131bd565b611227565b005b34801561033457600080fd5b5061034f600480360381019061034a919061309e565b61143d565b6040516103679c9b9a9998979695949392919061331f565b60405180910390f35b34801561037c57600080fd5b50610397600480360381019061039291906133e0565b611589565b6040516103a49190613178565b60405180910390f35b3480156103b957600080fd5b506103d460048036038101906103cf91906131bd565b6115ba565b005b3480156103e257600080fd5b506103fd60048036038101906103f8919061309e565b611bc1565b005b34801561040b57600080fd5b506104266004803603810190610421919061309e565b612064565b6040516104399796959493929190613420565b60405180910390f35b61045c6004803603810190610457919061309e565b61221d565b005b34801561046a57600080fd5b506104856004803603810190610480919061309e565b61251d565b6040516104929190613496565b60405180910390f35b3480156104a757600080fd5b506104c260048036038101906104bd919061309e565b612559565b005b3480156104d057600080fd5b506104eb60048036038101906104e691906134d6565b6126a8565b005b3480156104f957600080fd5b50610514600480360381019061050f919061364b565b612789565b005b34801561052257600080fd5b5061052b612a8f565b60405161053891906131a2565b60405180910390f35b34801561054d57600080fd5b506105686004803603810190610563919061309e565b612ab5565b6040516105759190613496565b60405180910390f35b34801561058a57600080fd5b506105a560048036038101906105a0919061309e565b612af1565b6040516105b29190613496565b60405180910390f35b3480156105c757600080fd5b506105e260048036038101906105dd919061309e565b612b2d565b6040516105ef9190613178565b60405180910390f35b34801561060457600080fd5b5061061f600480360381019061061a91906131bd565b612b4a565b005b34801561062d57600080fd5b506106486004803603810190610643919061309e565b612bf6565b005b34801561065657600080fd5b5061065f612c90565b60405161066c9190613178565b60405180910390f35b34801561068157600080fd5b5061069c600480360381019061069791906136e2565b612c96565b6040516106a991906137cd565b60405180910390f35b3480156106be57600080fd5b506106d960048036038101906106d4919061309e565b612d2d565b6040516106e691906137ef565b60405180910390f35b3480156106fb57600080fd5b50610716600480360381019061071191906131bd565b612d69565b005b600660009054906101000a900473ffffffffffffffffffffffffffffffffffffffff1673ffffffffffffffffffffffffffffffffffffffff163373ffffffffffffffffffffffffffffffffffffffff16146107a8576040517f08c379a000000000000000000000000000000000000000000000000000000000815260040161079f9061387c565b60405180910390fd5b6000600282815481106107be576107bd61389c565b5b90600052602060002090600a020160000160146101000a81548160ff0219169083151502179055506001600282815481106107fc576107fb61389c565b5b90600052602060002090600a020160080160006101000a81548160ff0219169083600281111561082f5761082e6132a8565b5b021790555050565b6004602052816000526040600020602052806000526040600020600091509150505481565b60036020528060005260406000206000915090505481565b60005481565b806000600281111561088f5761088e6132a8565b5b600282815481106108a3576108a261389c565b5b90600052602060002090600a020160080160009054906101000a900460ff1660028111156108d4576108d36132a8565b5b14610914576040517f08c379a000000000000000000000000000000000000000000000000000000000815260040161090b90613917565b60405180910390fd5b600282815481106109285761092761389c565b5b90600052602060002090600a02016003015434101561097c576040517f08c379a0000000000000000000000000000000000000000000000000000000008152600401610973906139a9565b60405180910390fd5b600282815481106109905761098f61389c565b5b90600052602060002090600a020160040154600283815481106109b6576109b561389c565b5b90600052602060002090600a020160060154346109d391906139f8565b1115610a14576040517f08c379a0000000000000000000000000000000000000000000000000000000008152600401610a0b90613a9e565b60405180910390fd5b3460028381548110610a2957610a2861389c565b5b90600052602060002090600a02016006016000828254610a4991906139f8565b92505081905550346004600084815260200190815260200160002060003373ffffffffffffffffffffffffffffffffffffffff1673ffffffffffffffffffffffffffffffffffffffff1681526020019081526020016000206000828254610ab091906139f8565b9250508190555060028281548110610acb57610aca61389c565b5b90600052602060002090600a0201600901339080600181540180825580915050600190039060005260206000200160009091909190916101000a81548173ffffffffffffffffffffffffffffffffffffffff021916908373ffffffffffffffffffffffffffffffffffffffff1602179055505050565b80600280811115610b5557610b546132a8565b5b60028281548110610b6957610b6861389c565b5b90600052602060002090600a020160080160009054906101000a900460ff166002811115610b9a57610b996132a8565b5b14610bda576040517f08c379a0000000000000000000000000000000000000000000000000000000008152600401610bd190613b0a565b60405180910390fd5b3373ffffffffffffffffffffffffffffffffffffffff1660028381548110610c0557610c0461389c565b5b90600052602060002090600a020160000160009054906101000a900473ffffffffffffffffffffffffffffffffffffffff1673ffffffffffffffffffffffffffffffffffffffff161480610c88575060028281548110610c6857610c6761389c565b5b90600052602060002090600a020160000160169054906101000a900460ff165b610cc7576040517f08c379a0000000000000000000000000000000000000000000000000000000008152600401610cbe90613bc2565b60405180910390fd5b600060028381548110610cdd57610cdc61389c565b5b90600052602060002090600a0201600701549050600060028481548110610d0757610d0661389c565b5b90600052602060002090600a0201600901805490509050600060028581548110610d3457610d3361389c565b5b90600052602060002090600a0201600601549050600060028681548110610d5e57610d5d61389c565b5b90600052602060002090600a020160000160009054906101000a900473ffffffffffffffffffffffffffffffffffffffff1690506000600360008881526020019081526020016000205490506000670de0b6b3a76400008685610dc19190613be2565b610dcb9190613c53565b90508273ffffffffffffffffffffffffffffffffffffffff166108fc829081150290604051600060405180830381858888f19350505050158015610e13573d6000803e3d6000fd5b506000670de0b6b3a764000060005486610e2d9190613be2565b610e379190613c53565b9050600660009054906101000a900473ffffffffffffffffffffffffffffffffffffffff1673ffffffffffffffffffffffffffffffffffffffff166108fc829081150290604051600060405180830381858888f19350505050158015610ea1573d6000803e3d6000fd5b5060005b8681101561103657600060028b81548110610ec357610ec261389c565b5b90600052602060002090600a02016009018281548110610ee657610ee561389c565b5b9060005260206000200160009054906101000a900473ffffffffffffffffffffffffffffffffffffffff1690506000600460008d815260200190815260200160002060008373ffffffffffffffffffffffffffffffffffffffff1673ffffffffffffffffffffffffffffffffffffffff1681526020019081526020016000205490506000811115611029576000670de0b6b3a76400008783610f889190613be2565b60005484610f969190613be2565b8d85610fa29190613be2565b670de0b6b3a764000086610fb69190613be2565b610fc09190613c84565b610fca9190613c84565b610fd491906139f8565b610fde9190613c53565b90508273ffffffffffffffffffffffffffffffffffffffff166108fc829081150290604051600060405180830381858888f19350505050158015611026573d6000803e3d6000fd5b50505b8260010192505050610ea5565b50600060028a8154811061104d5761104c61389c565b5b90600052602060002090600a0201600501549050838111156110e0576000670de0b6b3a764000085836110809190613c84565b8861108b9190613be2565b6110959190613c53565b90508573ffffffffffffffffffffffffffffffffffffffff166108fc829081150290604051600060405180830381858888f193505050501580156110dd573d6000803e3d6000fd5b50505b60028a815481106110f4576110f361389c565b5b90600052602060002090600a0201600080820160006101000a81549073ffffffffffffffffffffffffffffffffffffffff02191690556000820160146101000a81549060ff02191690556000820160156101000a81549060ff02191690556000820160166101000a81549060ff0219169055600182016000905560028201600061117e9190612f4c565b600382016000905560048201600090556005820160009055600682016000905560078201600090556008820160006101000a81549060ff02191690556009820160006111ca9190612f8c565b505050505050505050505050565b6000600282815481106111ee576111ed61389c565b5b90600052602060002090600a020160000160009054906101000a900473ffffffffffffffffffffffffffffffffffffffff169050919050565b600115156002838154811061123f5761123e61389c565b5b90600052602060002090600a020160000160159054906101000a900460ff161515146112a0576040517f08c379a000000000000000000000000000000000000000000000000000000000815260040161129790613d04565b60405180910390fd5b3373ffffffffffffffffffffffffffffffffffffffff16600283815481106112cb576112ca61389c565b5b90600052602060002090600a020160000160009054906101000a900473ffffffffffffffffffffffffffffffffffffffff1673ffffffffffffffffffffffffffffffffffffffff1614611353576040517f08c379a000000000000000000000000000000000000000000000000000000000815260040161134a90613d96565b60405180910390fd5b6000670de0b6b3a764000082600285815481106113735761137261389c565b5b90600052602060002090600a02016004015461138f9190613be2565b6113999190613c53565b9050803410156113de576040517f08c379a00000000000000000000000000000000000000000000000000000000081526004016113d590613e28565b60405180910390fd5b600283815481106113f2576113f161389c565b5b90600052602060002090600a0201600501548261140f91906139f8565b600284815481106114235761142261389c565b5b90600052602060002090600a020160050181905550505050565b6002818154811061144d57600080fd5b90600052602060002090600a02016000915090508060000160009054906101000a900473ffffffffffffffffffffffffffffffffffffffff16908060000160149054906101000a900460ff16908060000160159054906101000a900460ff16908060000160169054906101000a900460ff16908060010154908060020180546114d590613e77565b80601f016020809104026020016040519081016040528092919081815260200182805461150190613e77565b801561154e5780601f106115235761010080835404028352916020019161154e565b820191906000526020600020905b81548152906001019060200180831161153157829003601f168201915b5050505050908060030154908060040154908060050154908060060154908060070154908060080160009054906101000a900460ff1690508c565b600560205281600052604060002081815481106115a557600080fd5b90600052602060002001600091509150505481565b600081116115fd576040517f08c379a00000000000000000000000000000000000000000000000000000000081526004016115f490613ef4565b60405180910390fd5b6004600083815260200190815260200160002060003373ffffffffffffffffffffffffffffffffffffffff1673ffffffffffffffffffffffffffffffffffffffff16815260200190815260200160002054811115611690576040517f08c379a000000000000000000000000000000000000000000000000000000000815260040161168790613f86565b60405180910390fd5b600160028111156116a4576116a36132a8565b5b600283815481106116b8576116b761389c565b5b90600052602060002090600a020160080160009054906101000a900460ff1660028111156116e9576116e86132a8565b5b03611729576040517f08c379a000000000000000000000000000000000000000000000000000000000815260040161172090613ff2565b60405180910390fd5b6000600281111561173d5761173c6132a8565b5b600283815481106117515761175061389c565b5b90600052602060002090600a020160080160009054906101000a900460ff166002811115611782576117816132a8565b5b03611916576000670de0b6b3a7640000600154836117a09190613be2565b6117aa9190613c53565b9050600660009054906101000a900473ffffffffffffffffffffffffffffffffffffffff1673ffffffffffffffffffffffffffffffffffffffff166108fc829081150290604051600060405180830381858888f19350505050158015611814573d6000803e3d6000fd5b50600081836118239190613c84565b9050826004600086815260200190815260200160002060003373ffffffffffffffffffffffffffffffffffffffff1673ffffffffffffffffffffffffffffffffffffffff16815260200190815260200160002060008282546118859190613c84565b9250508190555082600285815481106118a1576118a061389c565b5b90600052602060002090600a020160060160008282546118c19190613c84565b925050819055503373ffffffffffffffffffffffffffffffffffffffff166108fc829081150290604051600060405180830381858888f1935050505015801561190e573d6000803e3d6000fd5b505050611bbd565b6000670de0b6b3a76400006000548361192f9190613be2565b6119399190613c53565b90506000670de0b6b3a76400006002858154811061195a5761195961389c565b5b90600052602060002090600a020160070154846119779190613be2565b6119819190613c53565b9050600660009054906101000a900473ffffffffffffffffffffffffffffffffffffffff1673ffffffffffffffffffffffffffffffffffffffff166108fc839081150290604051600060405180830381858888f193505050501580156119eb573d6000803e3d6000fd5b5060028481548110611a00576119ff61389c565b5b90600052602060002090600a020160000160009054906101000a900473ffffffffffffffffffffffffffffffffffffffff1673ffffffffffffffffffffffffffffffffffffffff166108fc829081150290604051600060405180830381858888f19350505050158015611a77573d6000803e3d6000fd5b506000670de0b6b3a7640000600360008781526020019081526020016000205485611aa29190613be2565b611aac9190613c53565b828486611ab99190613c84565b611ac39190613c84565b611acd91906139f8565b9050836004600087815260200190815260200160002060003373ffffffffffffffffffffffffffffffffffffffff1673ffffffffffffffffffffffffffffffffffffffff1681526020019081526020016000206000828254611b2f9190613c84565b925050819055508360028681548110611b4b57611b4a61389c565b5b90600052602060002090600a02016006016000828254611b6b9190613c84565b925050819055503373ffffffffffffffffffffffffffffffffffffffff166108fc829081150290604051600060405180830381858888f19350505050158015611bb8573d6000803e3d6000fd5b505050505b5050565b600660009054906101000a900473ffffffffffffffffffffffffffffffffffffffff1673ffffffffffffffffffffffffffffffffffffffff163373ffffffffffffffffffffffffffffffffffffffff1614611c51576040517f08c379a0000000000000000000000000000000000000000000000000000000008152600401611c489061387c565b60405180910390fd5b600280811115611c6457611c636132a8565b5b60028281548110611c7857611c7761389c565b5b90600052602060002090600a020160080160009054906101000a900460ff166002811115611ca957611ca86132a8565b5b14611ce9576040517f08c379a0000000000000000000000000000000000000000000000000000000008152600401611ce09061405e565b60405180910390fd5b6000670de0b6b3a764000060005460028481548110611d0b57611d0a61389c565b5b90600052602060002090600a020160060154611d279190613be2565b611d319190613c53565b9050600660009054906101000a900473ffffffffffffffffffffffffffffffffffffffff1673ffffffffffffffffffffffffffffffffffffffff166108fc829081150290604051600060405180830381858888f19350505050158015611d9b573d6000803e3d6000fd5b50600060028381548110611db257611db161389c565b5b90600052602060002090600a0201600501549050600060028481548110611ddc57611ddb61389c565b5b90600052602060002090600a020160090180549050905060005b81811015611f7157600060028681548110611e1457611e1361389c565b5b90600052602060002090600a02016009018281548110611e3757611e3661389c565b5b9060005260206000200160009054906101000a900473ffffffffffffffffffffffffffffffffffffffff16905060006004600088815260200190815260200160002060008373ffffffffffffffffffffffffffffffffffffffff1673ffffffffffffffffffffffffffffffffffffffff1681526020019081526020016000205490506000811115611f64576000670de0b6b3a76400008683611ed99190613be2565b60005484611ee79190613be2565b670de0b6b3a764000085611efb9190613be2565b611f059190613c84565b611f0f91906139f8565b611f199190613c53565b90508273ffffffffffffffffffffffffffffffffffffffff166108fc829081150290604051600060405180830381858888f19350505050158015611f61573d6000803e3d6000fd5b50505b8260010192505050611df6565b5060028481548110611f8657611f8561389c565b5b90600052602060002090600a0201600080820160006101000a81549073ffffffffffffffffffffffffffffffffffffffff02191690556000820160146101000a81549060ff02191690556000820160156101000a81549060ff02191690556000820160166101000a81549060ff021916905560018201600090556002820160006120109190612f4c565b600382016000905560048201600090556005820160009055600682016000905560078201600090556008820160006101000a81549060ff021916905560098201600061205c9190612f8c565b505050505050565b6060600080600080600080600288815481106120835761208261389c565b5b90600052602060002090600a0201600201600289815481106120a8576120a761389c565b5b90600052602060002090600a02016001015460028a815481106120ce576120cd61389c565b5b90600052602060002090600a02016003015460028b815481106120f4576120f361389c565b5b90600052602060002090600a02016004015460028c8154811061211a5761211961389c565b5b90600052602060002090600a02016005015460028d815481106121405761213f61389c565b5b90600052602060002090600a02016006015460028e815481106121665761216561389c565b5b90600052602060002090600a02016007015486805461218490613e77565b80601f01602080910402602001604051908101604052809291908181526020018280546121b090613e77565b80156121fd5780601f106121d2576101008083540402835291602001916121fd565b820191906000526020600020905b8154815290600101906020018083116121e057829003601f168201915b505050505096509650965096509650965096509650919395979092949650565b803373ffffffffffffffffffffffffffffffffffffffff16600282815481106122495761224861389c565b5b90600052602060002090600a020160000160009054906101000a900473ffffffffffffffffffffffffffffffffffffffff1673ffffffffffffffffffffffffffffffffffffffff16146122d1576040517f08c379a00000000000000000000000000000000000000000000000000000000081526004016122c890613d96565b60405180910390fd5b600281815481106122e5576122e461389c565b5b90600052602060002090600a020160000160159054906101000a900460ff1615612344576040517f08c379a000000000000000000000000000000000000000000000000000000000815260040161233b906140ca565b60405180910390fd5b60016002811115612358576123576132a8565b5b6002828154811061236c5761236b61389c565b5b90600052602060002090600a020160080160009054906101000a900460ff16600281111561239d5761239c6132a8565b5b146123dd576040517f08c379a00000000000000000000000000000000000000000000000000000000081526004016123d49061415c565b60405180910390fd5b6000670de0b6b3a7640000600284815481106123fc576123fb61389c565b5b90600052602060002090600a020160050154600285815481106124225761242161389c565b5b90600052602060002090600a02016006015461243e9190613be2565b6124489190613c53565b90508034101561248d576040517f08c379a0000000000000000000000000000000000000000000000000000000008152600401612484906141ee565b60405180910390fd5b6001600284815481106124a3576124a261389c565b5b90600052602060002090600a020160000160156101000a81548160ff02191690831515021790555060028084815481106124e0576124df61389c565b5b90600052602060002090600a020160080160006101000a81548160ff02191690836002811115612513576125126132a8565b5b0217905550505050565b6000600282815481106125335761253261389c565b5b90600052602060002090600a020160000160149054906101000a900460ff169050919050565b600660009054906101000a900473ffffffffffffffffffffffffffffffffffffffff1673ffffffffffffffffffffffffffffffffffffffff163373ffffffffffffffffffffffffffffffffffffffff16146125e9576040517f08c379a00000000000000000000000000000000000000000000000000000000081526004016125e09061387c565b60405180910390fd5b6001600282815481106125ff576125fe61389c565b5b90600052602060002090600a020160000160166101000a81548160ff0219169083151502179055506002818154811061263b5761263a61389c565b5b90600052602060002090600a020160050154600360008381526020019081526020016000205411156126a5576002818154811061267b5761267a61389c565b5b90600052602060002090600a02016005015460036000838152602001908152602001600020819055505b50565b600660009054906101000a900473ffffffffffffffffffffffffffffffffffffffff1673ffffffffffffffffffffffffffffffffffffffff163373ffffffffffffffffffffffffffffffffffffffff1614612738576040517f08c379a000000000000000000000000000000000000000000000000000000000815260040161272f9061387c565b60405180910390fd5b806002838154811061274d5761274c61389c565b5b90600052602060002090600a020160080160006101000a81548160ff021916908360028111156127805761277f6132a8565b5b02179055505050565b600083116127cc576040517f08c379a00000000000000000000000000000000000000000000000000000000081526004016127c390614280565b60405180910390fd5b600560003373ffffffffffffffffffffffffffffffffffffffff1673ffffffffffffffffffffffffffffffffffffffff16815260200190815260200160002060028054905090806001815401808255809150506001900390600052602060002001600090919091909150556002604051806101a001604052803373ffffffffffffffffffffffffffffffffffffffff168152602001600115158152602001600015158152602001600015158152602001600280549050815260200187815260200186815260200185815260200184815260200160008152602001838152602001600060028111156128c0576128bf6132a8565b5b8152602001600067ffffffffffffffff8111156128e0576128df613520565b5b60405190808252806020026020018201604052801561290e5781602001602082028036833780820191505090505b5081525090806001815401808255809150506001900390600052602060002090600a020160009091909190915060008201518160000160006101000a81548173ffffffffffffffffffffffffffffffffffffffff021916908373ffffffffffffffffffffffffffffffffffffffff16021790555060208201518160000160146101000a81548160ff02191690831515021790555060408201518160000160156101000a81548160ff02191690831515021790555060608201518160000160166101000a81548160ff0219169083151502179055506080820151816001015560a0820151816002019081612a01919061444c565b5060c0820151816003015560e082015181600401556101008201518160050155610120820151816006015561014082015181600701556101608201518160080160006101000a81548160ff02191690836002811115612a6357612a626132a8565b5b0217905550610180820151816009019080519060200190612a85929190612fad565b5050505050505050565b600660009054906101000a900473ffffffffffffffffffffffffffffffffffffffff1681565b600060028281548110612acb57612aca61389c565b5b90600052602060002090600a020160000160159054906101000a900460ff169050919050565b600060028281548110612b0757612b0661389c565b5b90600052602060002090600a020160000160169054906101000a900460ff169050919050565b600060036000838152602001908152602001600020549050919050565b600660009054906101000a900473ffffffffffffffffffffffffffffffffffffffff1673ffffffffffffffffffffffffffffffffffffffff163373ffffffffffffffffffffffffffffffffffffffff1614612bda576040517f08c379a0000000000000000000000000000000000000000000000000000000008152600401612bd19061387c565b60405180910390fd5b8060036000848152602001908152602001600020819055505050565b600660009054906101000a900473ffffffffffffffffffffffffffffffffffffffff1673ffffffffffffffffffffffffffffffffffffffff163373ffffffffffffffffffffffffffffffffffffffff1614612c86576040517f08c379a0000000000000000000000000000000000000000000000000000000008152600401612c7d9061387c565b60405180910390fd5b8060008190555050565b60015481565b6060600560008373ffffffffffffffffffffffffffffffffffffffff1673ffffffffffffffffffffffffffffffffffffffff168152602001908152602001600020805480602002602001604051908101604052809291908181526020018280548015612d2157602002820191906000526020600020905b815481526020019060010190808311612d0d575b50505050509050919050565b600060028281548110612d4357612d4261389c565b5b90600052602060002090600a020160080160009054906101000a900460ff169050919050565b8160006002811115612d7e57612d7d6132a8565b5b60028281548110612d9257612d9161389c565b5b90600052602060002090600a020160080160009054906101000a900460ff166002811115612dc357612dc26132a8565b5b14612e03576040517f08c379a0000000000000000000000000000000000000000000000000000000008152600401612dfa90613917565b60405180910390fd5b3373ffffffffffffffffffffffffffffffffffffffff1660028481548110612e2e57612e2d61389c565b5b90600052602060002090600a020160000160009054906101000a900473ffffffffffffffffffffffffffffffffffffffff1673ffffffffffffffffffffffffffffffffffffffff1614612eb6576040517f08c379a0000000000000000000000000000000000000000000000000000000008152600401612ead90614590565b60405180910390fd5b60028381548110612eca57612ec961389c565b5b90600052602060002090600a0201600401548211612f1d576040517f08c379a0000000000000000000000000000000000000000000000000000000008152600401612f1490614622565b60405180910390fd5b8160028481548110612f3257612f3161389c565b5b90600052602060002090600a020160040181905550505050565b508054612f5890613e77565b6000825580601f10612f6a5750612f89565b601f016020900490600052602060002090810190612f889190613037565b5b50565b5080546000825590600052602060002090810190612faa9190613037565b50565b828054828255906000526020600020908101928215613026579160200282015b828111156130255782518260006101000a81548173ffffffffffffffffffffffffffffffffffffffff021916908373ffffffffffffffffffffffffffffffffffffffff16021790555091602001919060010190612fcd565b5b5090506130339190613037565b5090565b5b80821115613050576000816000905550600101613038565b5090565b6000604051905090565b600080fd5b600080fd5b6000819050919050565b61307b81613068565b811461308657600080fd5b50565b60008135905061309881613072565b92915050565b6000602082840312156130b4576130b361305e565b5b60006130c284828501613089565b91505092915050565b600073ffffffffffffffffffffffffffffffffffffffff82169050919050565b60006130f6826130cb565b9050919050565b613106816130eb565b811461311157600080fd5b50565b600081359050613123816130fd565b92915050565b600080604083850312156131405761313f61305e565b5b600061314e85828601613089565b925050602061315f85828601613114565b9150509250929050565b61317281613068565b82525050565b600060208201905061318d6000830184613169565b92915050565b61319c816130eb565b82525050565b60006020820190506131b76000830184613193565b92915050565b600080604083850312156131d4576131d361305e565b5b60006131e285828601613089565b92505060206131f385828601613089565b9150509250929050565b60008115159050919050565b613212816131fd565b82525050565b600081519050919050565b600082825260208201905092915050565b60005b83811015613252578082015181840152602081019050613237565b60008484015250505050565b6000601f19601f8301169050919050565b600061327a82613218565b6132848185613223565b9350613294818560208601613234565b61329d8161325e565b840191505092915050565b7f4e487b7100000000000000000000000000000000000000000000000000000000600052602160045260246000fd5b600381106132e8576132e76132a8565b5b50565b60008190506132f9826132d7565b919050565b6000613309826132eb565b9050919050565b613319816132fe565b82525050565b600061018082019050613335600083018f613193565b613342602083018e613209565b61334f604083018d613209565b61335c606083018c613209565b613369608083018b613169565b81810360a083015261337b818a61326f565b905061338a60c0830189613169565b61339760e0830188613169565b6133a5610100830187613169565b6133b3610120830186613169565b6133c1610140830185613169565b6133cf610160830184613310565b9d9c50505050505050505050505050565b600080604083850312156133f7576133f661305e565b5b600061340585828601613114565b925050602061341685828601613089565b9150509250929050565b600060e082019050818103600083015261343a818a61326f565b90506134496020830189613169565b6134566040830188613169565b6134636060830187613169565b6134706080830186613169565b61347d60a0830185613169565b61348a60c0830184613169565b98975050505050505050565b60006020820190506134ab6000830184613209565b92915050565b600381106134be57600080fd5b50565b6000813590506134d0816134b1565b92915050565b600080604083850312156134ed576134ec61305e565b5b60006134fb85828601613089565b925050602061350c858286016134c1565b9150509250929050565b600080fd5b600080fd5b7f4e487b7100000000000000000000000000000000000000000000000000000000600052604160045260246000fd5b6135588261325e565b810181811067ffffffffffffffff8211171561357757613576613520565b5b80604052505050565b600061358a613054565b9050613596828261354f565b919050565b600067ffffffffffffffff8211156135b6576135b5613520565b5b6135bf8261325e565b9050602081019050919050565b82818337600083830152505050565b60006135ee6135e98461359b565b613580565b90508281526020810184848401111561360a5761360961351b565b5b6136158482856135cc565b509392505050565b600082601f83011261363257613631613516565b5b81356136428482602086016135db565b91505092915050565b600080600080600060a086880312156136675761366661305e565b5b600086013567ffffffffffffffff81111561368557613684613063565b5b6136918882890161361d565b95505060206136a288828901613089565b94505060406136b388828901613089565b93505060606136c488828901613089565b92505060806136d588828901613089565b9150509295509295909350565b6000602082840312156136f8576136f761305e565b5b600061370684828501613114565b91505092915050565b600081519050919050565b600082825260208201905092915050565b6000819050602082019050919050565b61374481613068565b82525050565b6000613756838361373b565b60208301905092915050565b6000602082019050919050565b600061377a8261370f565b613784818561371a565b935061378f8361372b565b8060005b838110156137c05781516137a7888261374a565b97506137b283613762565b925050600181019050613793565b5085935050505092915050565b600060208201905081810360008301526137e7818461376f565b905092915050565b60006020820190506138046000830184613310565b92915050565b7f4f6e6c7920746865206f776e65722063616e2063616c6c20746869732066756e60008201527f6374696f6e000000000000000000000000000000000000000000000000000000602082015250565b6000613866602583613223565b91506138718261380a565b604082019050919050565b6000602082019050818103600083015261389581613859565b9050919050565b7f4e487b7100000000000000000000000000000000000000000000000000000000600052603260045260246000fd5b7f506f7274666f6c696f206e6f7420696e206f70656e2073746174650000000000600082015250565b6000613901601b83613223565b915061390c826138cb565b602082019050919050565b60006020820190508181036000830152613930816138f4565b9050919050565b7f416d6f756e742073686f756c642062652067726561746572207468616e20746860008201527f65206d696e696d756d20616d6f756e7400000000000000000000000000000000602082015250565b6000613993603083613223565b915061399e82613937565b604082019050919050565b600060208201905081810360008301526139c281613986565b9050919050565b7f4e487b7100000000000000000000000000000000000000000000000000000000600052601160045260246000fd5b6000613a0382613068565b9150613a0e83613068565b9250828201905080821115613a2657613a256139c9565b5b92915050565b7f416d6f756e742073686f756c64206265206c657373207468616e20746865207460008201527f6f74616c2066756e647300000000000000000000000000000000000000000000602082015250565b6000613a88602a83613223565b9150613a9382613a2c565b604082019050919050565b60006020820190508181036000830152613ab781613a7b565b9050919050565b7f506f7274666f6c696f2061696e277420696e2074726164696e67206d6f646521600082015250565b6000613af4602083613223565b9150613aff82613abe565b602082019050919050565b60006020820190508181036000830152613b2381613ae7565b9050919050565b7f4f6e6c7920746865206d616e616765722063616e2063616c6c2074686973206660008201527f756e6374696f6e206f722069662074686520646561646c696e6520686173206160208201527f7070726f61636865640000000000000000000000000000000000000000000000604082015250565b6000613bac604983613223565b9150613bb782613b2a565b606082019050919050565b60006020820190508181036000830152613bdb81613b9f565b9050919050565b6000613bed82613068565b9150613bf883613068565b9250828202613c0681613068565b91508282048414831517613c1d57613c1c6139c9565b5b5092915050565b7f4e487b7100000000000000000000000000000000000000000000000000000000600052601260045260246000fd5b6000613c5e82613068565b9150613c6983613068565b925082613c7957613c78613c24565b5b828204905092915050565b6000613c8f82613068565b9150613c9a83613068565b9250828203905081811115613cb257613cb16139c9565b5b92915050565b7f46697273742070617920796f757220696e697469616c20616d6f756e74000000600082015250565b6000613cee601d83613223565b9150613cf982613cb8565b602082019050919050565b60006020820190508181036000830152613d1d81613ce1565b9050919050565b7f4f6e6c7920746865206d616e616765722063616e2063616c6c2074686973206660008201527f756e6374696f6e00000000000000000000000000000000000000000000000000602082015250565b6000613d80602783613223565b9150613d8b82613d24565b604082019050919050565b60006020820190508181036000830152613daf81613d73565b9050919050565b7f416d6f756e742073686f756c6420626520657175616c20746f2074686520696e60008201527f6372656173656420616d6f756e74000000000000000000000000000000000000602082015250565b6000613e12602e83613223565b9150613e1d82613db6565b604082019050919050565b60006020820190508181036000830152613e4181613e05565b9050919050565b7f4e487b7100000000000000000000000000000000000000000000000000000000600052602260045260246000fd5b60006002820490506001821680613e8f57607f821691505b602082108103613ea257613ea1613e48565b5b50919050565b7f416d6f756e742073686f756c642062652067726561746572207468616e203000600082015250565b6000613ede601f83613223565b9150613ee982613ea8565b602082019050919050565b60006020820190508181036000830152613f0d81613ed1565b9050919050565b7f596f7520646f6e2774206861766520656e6f75676820616d6f756e7420746f2060008201527f7769746864726177000000000000000000000000000000000000000000000000602082015250565b6000613f70602883613223565b9150613f7b82613f14565b604082019050919050565b60006020820190508181036000830152613f9f81613f63565b9050919050565b7f596f752063616e2774207769746864726177206e6f7700000000000000000000600082015250565b6000613fdc601683613223565b9150613fe782613fa6565b602082019050919050565b6000602082019050818103600083015261400b81613fcf565b9050919050565b7f506f7274666f6c696f206973206e6f7420696e20616374696f6e000000000000600082015250565b6000614048601a83613223565b915061405382614012565b602082019050919050565b600060208201905081810360008301526140778161403b565b9050919050565b7f4d616e616765722068617320706169642074686520616d6f756e740000000000600082015250565b60006140b4601b83613223565b91506140bf8261407e565b602082019050919050565b600060208201905081810360008301526140e3816140a7565b9050919050565b7f506f7274666f6c696f206973206e6f74206f70656e20666f72206d616e61676560008201527f7220746f207061792074686520616d6f756e7400000000000000000000000000602082015250565b6000614146603383613223565b9150614151826140ea565b604082019050919050565b6000602082019050818103600083015261417581614139565b9050919050565b7f416d6f756e742073686f756c6420626520657175616c20746f2074686520746f60008201527f74616c2066756e64730000000000000000000000000000000000000000000000602082015250565b60006141d8602983613223565b91506141e38261417c565b604082019050919050565b60006020820190508181036000830152614207816141cb565b9050919050565b7f546f74616c2066756e64732073686f756c64206265206772656174657220746860008201527f616e203000000000000000000000000000000000000000000000000000000000602082015250565b600061426a602483613223565b91506142758261420e565b604082019050919050565b600060208201905081810360008301526142998161425d565b9050919050565b60008190508160005260206000209050919050565b60006020601f8301049050919050565b600082821b905092915050565b6000600883026143027fffffffffffffffffffffffffffffffffffffffffffffffffffffffffffffffff826142c5565b61430c86836142c5565b95508019841693508086168417925050509392505050565b6000819050919050565b600061434961434461433f84613068565b614324565b613068565b9050919050565b6000819050919050565b6143638361432e565b61437761436f82614350565b8484546142d2565b825550505050565b600090565b61438c61437f565b61439781848461435a565b505050565b5b818110156143bb576143b0600082614384565b60018101905061439d565b5050565b601f821115614400576143d1816142a0565b6143da846142b5565b810160208510156143e9578190505b6143fd6143f5856142b5565b83018261439c565b50505b505050565b600082821c905092915050565b600061442360001984600802614405565b1980831691505092915050565b600061443c8383614412565b9150826002028217905092915050565b61445582613218565b67ffffffffffffffff81111561446e5761446d613520565b5b6144788254613e77565b6144838282856143bf565b600060209050601f8311600181146144b657600084156144a4578287015190505b6144ae8582614430565b865550614516565b601f1984166144c4866142a0565b60005b828110156144ec578489015182556001820191506020850194506020810190506144c7565b868310156145095784890151614505601f891682614412565b8355505b6001600288020188555050505b505050505050565b7f4f6e6c7920746865206d616e616765722063616e206368616e6765207468652060008201527f746f74616c2066756e6473000000000000000000000000000000000000000000602082015250565b600061457a602b83613223565b91506145858261451e565b604082019050919050565b600060208201905081810360008301526145a98161456d565b9050919050565b7f4e657720746f74616c2066756e64732073686f756c642062652067726561746560008201527f72207468616e207468652070726576696f7573206f6e65000000000000000000602082015250565b600061460c603783613223565b9150614617826145b0565b604082019050919050565b6000602082019050818103600083015261463b816145ff565b905091905056fea26469706673582212201126436bbcb84475b856d9913d996291f2fb8867a805e300dae88851096328fc64736f6c63430008140033",
  "linkReferences": {},
  "deployedLinkReferences": {}
}